{"abi":[{"type":"constructor","inputs":[{"name":"_beneficiary","type":"address","internalType":"address"},{"name":"_trotelcoin","type":"address","internalType":"address"}],"stateMutability":"nonpayable"},{"type":"function","name":"BENEFICIARY_ROLE","inputs":[],"outputs":[{"name":"","type":"bytes32","internalType":"bytes32"}],"stateMutability":"view"},{"type":"function","name":"CLIFF_DURATION","inputs":[],"outputs":[{"name":"","type":"uint256","internalType":"uint256"}],"stateMutability":"view"},{"type":"function","name":"DEFAULT_ADMIN_ROLE","inputs":[],"outputs":[{"name":"","type":"bytes32","internalType":"bytes32"}],"stateMutability":"view"},{"type":"function","name":"MONTHLY_RELEASE_AMOUNT","inputs":[],"outputs":[{"name":"","type":"uint256","internalType":"uint256"}],"stateMutability":"view"},{"type":"function","name":"TOTAL_TOKENS","inputs":[],"outputs":[{"name":"","type":"uint256","internalType":"uint256"}],"stateMutability":"view"},{"type":"function","name":"VESTING_DURATION","inputs":[],"outputs":[{"name":"","type":"uint256","internalType":"uint256"}],"stateMutability":"view"},{"type":"function","name":"beneficiary","inputs":[],"outputs":[{"name":"","type":"address","internalType":"address"}],"stateMutability":"view"},{"type":"function","name":"changeBeneficiary","inputs":[{"name":"_beneficiary","type":"address","internalType":"address"}],"outputs":[],"stateMutability":"nonpayable"},{"type":"function","name":"getRoleAdmin","inputs":[{"name":"role","type":"bytes32","internalType":"bytes32"}],"outputs":[{"name":"","type":"bytes32","internalType":"bytes32"}],"stateMutability":"view"},{"type":"function","name":"getTimeUntilNextClaim","inputs":[],"outputs":[{"name":"","type":"uint256","internalType":"uint256"}],"stateMutability":"view"},{"type":"function","name":"grantRole","inputs":[{"name":"role","type":"bytes32","internalType":"bytes32"},{"name":"account","type":"address","internalType":"address"}],"outputs":[],"stateMutability":"nonpayable"},{"type":"function","name":"hasRole","inputs":[{"name":"role","type":"bytes32","internalType":"bytes32"},{"name":"account","type":"address","internalType":"address"}],"outputs":[{"name":"","type":"bool","internalType":"bool"}],"stateMutability":"view"},{"type":"function","name":"release","inputs":[],"outputs":[],"stateMutability":"nonpayable"},{"type":"function","name":"releasedTokens","inputs":[],"outputs":[{"name":"","type":"uint256","internalType":"uint256"}],"stateMutability":"view"},{"type":"function","name":"renounceRole","inputs":[{"name":"role","type":"bytes32","internalType":"bytes32"},{"name":"callerConfirmation","type":"address","internalType":"address"}],"outputs":[],"stateMutability":"nonpayable"},{"type":"function","name":"revokeRole","inputs":[{"name":"role","type":"bytes32","internalType":"bytes32"},{"name":"account","type":"address","internalType":"address"}],"outputs":[],"stateMutability":"nonpayable"},{"type":"function","name":"startTime","inputs":[],"outputs":[{"name":"","type":"uint256","internalType":"uint256"}],"stateMutability":"view"},{"type":"function","name":"supportsInterface","inputs":[{"name":"interfaceId","type":"bytes4","internalType":"bytes4"}],"outputs":[{"name":"","type":"bool","internalType":"bool"}],"stateMutability":"view"},{"type":"function","name":"trotelCoinDAO","inputs":[],"outputs":[{"name":"","type":"address","internalType":"address"}],"stateMutability":"view"},{"type":"function","name":"trotelcoin","inputs":[],"outputs":[{"name":"","type":"address","internalType":"contract TrotelCoinV2"}],"stateMutability":"view"},{"type":"event","name":"RoleAdminChanged","inputs":[{"name":"role","type":"bytes32","indexed":true,"internalType":"bytes32"},{"name":"previousAdminRole","type":"bytes32","indexed":true,"internalType":"bytes32"},{"name":"newAdminRole","type":"bytes32","indexed":true,"internalType":"bytes32"}],"anonymous":false},{"type":"event","name":"RoleGranted","inputs":[{"name":"role","type":"bytes32","indexed":true,"internalType":"bytes32"},{"name":"account","type":"address","indexed":true,"internalType":"address"},{"name":"sender","type":"address","indexed":true,"internalType":"address"}],"anonymous":false},{"type":"event","name":"RoleRevoked","inputs":[{"name":"role","type":"bytes32","indexed":true,"internalType":"bytes32"},{"name":"account","type":"address","indexed":true,"internalType":"address"},{"name":"sender","type":"address","indexed":true,"internalType":"address"}],"anonymous":false},{"type":"event","name":"TokensReleased","inputs":[{"name":"amount","type":"uint256","indexed":false,"internalType":"uint256"}],"anonymous":false},{"type":"error","name":"AccessControlBadConfirmation","inputs":[]},{"type":"error","name":"AccessControlUnauthorizedAccount","inputs":[{"name":"account","type":"address","internalType":"address"},{"name":"neededRole","type":"bytes32","internalType":"bytes32"}]}],"bytecode":{"object":"0x608060405234801561001057600080fd5b50604051610cf9380380610cf983398101604081905261002f9161013c565b6001600160a01b0382166100955760405162461bcd60e51b815260206004820152602260248201527f42656e656669636961727920616464726573732063616e6e6f74206265207a65604482015261726f60f01b60648201526084015b60405180910390fd5b6001600160a01b0381166100eb5760405162461bcd60e51b815260206004820152601c60248201527f546f6b656e20616464726573732063616e6e6f74206265207a65726f00000000604482015260640161008c565b600280546001600160a01b039384166001600160a01b031991821617909155600580549290931691161790554260035561016f565b80516001600160a01b038116811461013757600080fd5b919050565b6000806040838503121561014f57600080fd5b61015883610120565b915061016660208401610120565b90509250929050565b610b7b8061017e6000396000f3fe608060405234801561001057600080fd5b506004361061012c5760003560e01c806391d14854116100ad578063ced3a40311610071578063ced3a40314610257578063d547741f1461026c578063dc0706571461027f578063dd0bd2dd14610292578063dd7d4e071461029a57600080fd5b806391d1485414610216578063a217fddf14610229578063b3daa65214610231578063bef399631461023b578063bfdf70f11461024457600080fd5b806338af3eed116100f457806338af3eed146101bc578063408bdb62146101e75780634cfc4d30146101fa57806378e979251461020557806386d1a69f1461020e57600080fd5b806301ffc9a7146101315780630b7abf7714610159578063248a9ca3146101715780632f2ff15d1461019457806336568abe146101a9575b600080fd5b61014461013f3660046109ac565b6102a2565b60405190151581526020015b60405180910390f35b610163624c4b4081565b604051908152602001610150565b61016361017f3660046109dd565b60009081526020819052604090206001015490565b6101a76101a2366004610a12565b6102d9565b005b6101a76101b7366004610a12565b610304565b6002546101cf906001600160a01b031681565b6040516001600160a01b039091168152602001610150565b6005546101cf906001600160a01b031681565b6101636301da9c0081565b61016360035481565b6101a761033c565b610144610224366004610a12565b610667565b610163600081565b6101636276a70081565b61016360045481565b6001546101cf906001600160a01b031681565b610163600080516020610b2683398151915281565b6101a761027a366004610a12565b610690565b6101a761028d366004610a3e565b6106b5565b6101636107c1565b610163610857565b60006001600160e01b03198216637965db0b60e01b14806102d357506301ffc9a760e01b6001600160e01b03198316145b92915050565b6000828152602081905260409020600101546102f481610868565b6102fe8383610872565b50505050565b6001600160a01b038116331461032d5760405163334bd91960e11b815260040160405180910390fd5b6103378282610904565b505050565b610354600080516020610b2683398151915233610667565b806103655750610365600033610667565b6103c55760405162461bcd60e51b815260206004820152602660248201527f43616c6c6572206973206e6f74207468652062656e6566696369617279206f726044820152651030b236b4b760d11b60648201526084015b60405180910390fd5b6276a7006003546103d69190610a6f565b4210156104255760405162461bcd60e51b815260206004820152601d60248201527f436c696666206475726174696f6e206e6f74207061737365642079657400000060448201526064016103bc565b610433600c624c4b40610a98565b6005546040516370a0823160e01b81523060048201526001600160a01b03909116906370a0823190602401602060405180830381865afa15801561047b573d6000803e3d6000fd5b505050506040513d601f19601f8201168201806040525081019061049f9190610aac565b10156104ed5760405162461bcd60e51b815260206004820152601c60248201527f4e6f7420656e6f75676820746f6b656e7320746f2072656c656173650000000060448201526064016103bc565b60006276a7006003546105009190610a6f565b61050a9042610ac5565b9050600061051b62278d0083610a98565b9050600061052d600c624c4b40610a98565b610538836001610a6f565b6105429190610ad8565b90506000600454826105549190610ac5565b90506000811161059d5760405162461bcd60e51b81526020600482015260146024820152734e6f20746f6b656e7320746f2072656c6561736560601b60448201526064016103bc565b80600460008282546105af9190610a6f565b909155505060055460025460405163a9059cbb60e01b81526001600160a01b0391821660048201526024810184905291169063a9059cbb906044016020604051808303816000875af1158015610609573d6000803e3d6000fd5b505050506040513d601f19601f8201168201806040525081019061062d9190610aef565b506040518181527fa1598fb976f7dd9df63fd18699c54a5744a6a95364166bbd0d77a2f6c8438b1f9060200160405180910390a150505050565b6000918252602082815260408084206001600160a01b0393909316845291905290205460ff1690565b6000828152602081905260409020600101546106ab81610868565b6102fe8383610904565b6106c0600033610667565b6107055760405162461bcd60e51b815260206004820152601660248201527521b0b63632b91034b9903737ba1030b71030b236b4b760511b60448201526064016103bc565b6001600160a01b0381166107665760405162461bcd60e51b815260206004820152602260248201527f42656e656669636961727920616464726573732063616e6e6f74206265207a65604482015261726f60f01b60648201526084016103bc565b60025461078b90600080516020610b26833981519152906001600160a01b0316610690565b600280546001600160a01b0319166001600160a01b0383161790556107be600080516020610b26833981519152826102d9565b50565b60006276a7006003546107d49190610a6f565b4210156107fc57426276a7006003546107ed9190610a6f565b6107f79190610ac5565b905090565b60006276a70060035461080f9190610a6f565b6108199042610ac5565b905061082862278d0082610b11565b60000361083757600091505090565b61084462278d0082610b11565b6108519062278d00610ac5565b91505090565b610865600c624c4b40610a98565b81565b6107be813361096f565b600061087e8383610667565b6108fc576000838152602081815260408083206001600160a01b03861684529091529020805460ff191660011790556108b43390565b6001600160a01b0316826001600160a01b0316847f2f8788117e7eff1d82e926ec794901d17c78024a50270940304540a733656f0d60405160405180910390a45060016102d3565b5060006102d3565b60006109108383610667565b156108fc576000838152602081815260408083206001600160a01b0386168085529252808320805460ff1916905551339286917ff6391f5c32d9c69d2a47ea670b442974b53935d1edc7fd64eb21e047a839171b9190a45060016102d3565b6109798282610667565b6109a85760405163e2517d3f60e01b81526001600160a01b0382166004820152602481018390526044016103bc565b5050565b6000602082840312156109be57600080fd5b81356001600160e01b0319811681146109d657600080fd5b9392505050565b6000602082840312156109ef57600080fd5b5035919050565b80356001600160a01b0381168114610a0d57600080fd5b919050565b60008060408385031215610a2557600080fd5b82359150610a35602084016109f6565b90509250929050565b600060208284031215610a5057600080fd5b6109d6826109f6565b634e487b7160e01b600052601160045260246000fd5b808201808211156102d3576102d3610a59565b634e487b7160e01b600052601260045260246000fd5b600082610aa757610aa7610a82565b500490565b600060208284031215610abe57600080fd5b5051919050565b818103818111156102d3576102d3610a59565b80820281158282048414176102d3576102d3610a59565b600060208284031215610b0157600080fd5b815180151581146109d657600080fd5b600082610b2057610b20610a82565b50069056fec8a41221bcd7fcf2c225f5a9265e1d4d39949d89197159d59e5f4b87b62c419ea2646970667358221220e53ec6fb9fca6cc44b510862de51980b10126083e1046883921bc1c1e0da4e4864736f6c63430008190033","linkReferences":{}},"methodIdentifiers":{"BENEFICIARY_ROLE()":"ced3a403","CLIFF_DURATION()":"b3daa652","DEFAULT_ADMIN_ROLE()":"a217fddf","MONTHLY_RELEASE_AMOUNT()":"dd7d4e07","TOTAL_TOKENS()":"0b7abf77","VESTING_DURATION()":"4cfc4d30","beneficiary()":"38af3eed","changeBeneficiary(address)":"dc070657","getRoleAdmin(bytes32)":"248a9ca3","getTimeUntilNextClaim()":"dd0bd2dd","grantRole(bytes32,address)":"2f2ff15d","hasRole(bytes32,address)":"91d14854","release()":"86d1a69f","releasedTokens()":"bef39963","renounceRole(bytes32,address)":"36568abe","revokeRole(bytes32,address)":"d547741f","startTime()":"78e97925","supportsInterface(bytes4)":"01ffc9a7","trotelCoinDAO()":"bfdf70f1","trotelcoin()":"408bdb62"},"id":4}