{"abi":[{"type":"constructor","inputs":[{"name":"_contractAddress","type":"address","internalType":"address"}],"stateMutability":"nonpayable"},{"type":"function","name":"mintToMultiple","inputs":[],"outputs":[],"stateMutability":"nonpayable"}],"bytecode":{"object":"0x6080604052348015600f57600080fd5b50604051612667380380612667833981016040819052602c916050565b600080546001600160a01b0319166001600160a01b0392909216919091179055607e565b600060208284031215606157600080fd5b81516001600160a01b0381168114607757600080fd5b9392505050565b6125da8061008d6000396000f3fe608060405234801561001057600080fd5b506004361061002b5760003560e01c8063ede691ac14610030575b600080fd5b61003861003a565b005b6040805160828082526110608201909252600091602082016110408036833701905050905073a075104d047b8474576fe0e2d3f86d94b5905f808160008151811061008757610087612541565b60200260200101906001600160a01b031690816001600160a01b031681525050731990c29b1190184de1ed6c667f128ceb257b7bd9816001815181106100cf576100cf612541565b60200260200101906001600160a01b031690816001600160a01b03168152505073add1129fadfefbd660cff48230c7ee8ea862df3f8160028151811061011757610117612541565b60200260200101906001600160a01b031690816001600160a01b03168152505073ce7ee38ba519b7db03b3a0502545aa3eab8809018160038151811061015f5761015f612541565b60200260200101906001600160a01b031690816001600160a01b031681525050730493b6988add9a904926937abd80891c6f0d42ff816004815181106101a7576101a7612541565b60200260200101906001600160a01b031690816001600160a01b03168152505073db6be2c5792455f5b4b2bd47f1e54ba38bd9c2b7816005815181106101ef576101ef612541565b60200260200101906001600160a01b031690816001600160a01b03168152505073c09aef0631909446d495224add265ed49bca45ca8160068151811061023757610237612541565b60200260200101906001600160a01b031690816001600160a01b031681525050735727b0b3fe892b25e326826fd564af878c1d02068160078151811061027f5761027f612541565b60200260200101906001600160a01b031690816001600160a01b03168152505073df72ca34c2bb189f4c60a707ca873b41ffe52ede816008815181106102c7576102c7612541565b60200260200101906001600160a01b031690816001600160a01b03168152505073f93826c1d2d8a7f3d60d90f44fa0c1fd18d024c88160098151811061030f5761030f612541565b60200260200101906001600160a01b031690816001600160a01b031681525050732a4e5b9c1c87dc511a7163b5a6d63a6afea2f7fe81600a8151811061035757610357612541565b60200260200101906001600160a01b031690816001600160a01b031681525050732e4a9631e77247a8bdc93f6f03d42fb5f9badf4e81600b8151811061039f5761039f612541565b60200260200101906001600160a01b031690816001600160a01b031681525050732281c62588fa425a6e3229ce4991cc429d2263dd81600c815181106103e7576103e7612541565b60200260200101906001600160a01b031690816001600160a01b0316815250507389e1e6066635f69e596b7440243917abc413689c81600d8151811061042f5761042f612541565b60200260200101906001600160a01b031690816001600160a01b03168152505073fb24b19a7de9690e8085239bbb43fdc486fad7ab81600e8151811061047757610477612541565b60200260200101906001600160a01b031690816001600160a01b0316815250507376e8174f497e37b813ebea26050f9bbd2c23779481600f815181106104bf576104bf612541565b60200260200101906001600160a01b031690816001600160a01b031681525050730b11d438d83979374c31d219e7fb0405c9238dd58160108151811061050757610507612541565b60200260200101906001600160a01b031690816001600160a01b0316815250507367e6585623ef4f06d17332a311f84ae3d9e1aa3c8160118151811061054f5761054f612541565b60200260200101906001600160a01b031690816001600160a01b031681525050737a4a390633a0121f2c5a98b5d6e15445050ec2468160128151811061059757610597612541565b60200260200101906001600160a01b031690816001600160a01b03168152505073e7b619a1c85753fe4b6e177a7d0800b20ee3e4bc816013815181106105df576105df612541565b60200260200101906001600160a01b031690816001600160a01b03168152505073127bb7b32bc79d32bfbdc9614d12fd5658be8b818160148151811061062757610627612541565b60200260200101906001600160a01b031690816001600160a01b03168152505073cab7343b8e727ab3963f2bb34e65161cc07a50e08160158151811061066f5761066f612541565b60200260200101906001600160a01b031690816001600160a01b03168152505073aec109dcd8521d4e12a7ec04532cbf9ecaffcc52816016815181106106b7576106b7612541565b60200260200101906001600160a01b031690816001600160a01b0316815250507319775e1817bc7a1e41060f80e0d00eabae2959a7816017815181106106ff576106ff612541565b60200260200101906001600160a01b031690816001600160a01b03168152505073667225cc6e9b407b46b469b861e9d29a99ce91458160188151811061074757610747612541565b60200260200101906001600160a01b031690816001600160a01b03168152505073158632dfcceae59262e8a7b11b8250e9ccaa92d08160198151811061078f5761078f612541565b60200260200101906001600160a01b031690816001600160a01b031681525050739b1c1b7a76ff97c6323257b20d70b139db91d0f181601a815181106107d7576107d7612541565b60200260200101906001600160a01b031690816001600160a01b03168152505073d152ee2e051924d167a1a87fa0099ef125cf89fe81601b8151811061081f5761081f612541565b60200260200101906001600160a01b031690816001600160a01b0316815250507316813eaaed0b2fb9630700e109f81d9b0c37b03a81601c8151811061086757610867612541565b60200260200101906001600160a01b031690816001600160a01b031681525050732a80014c978b77a85edd2c5d654782dd68852e6881601d815181106108af576108af612541565b60200260200101906001600160a01b031690816001600160a01b03168152505073b66ef2f3ecbc18fa60538fc426c8332584b67cd181601e815181106108f7576108f7612541565b60200260200101906001600160a01b031690816001600160a01b03168152505073224d2e3498e28940f89bdb1ab42c6c3a448025b881601f8151811061093f5761093f612541565b60200260200101906001600160a01b031690816001600160a01b031681525050739312225b91068b876126293e080c16f6b6da47128160208151811061098757610987612541565b60200260200101906001600160a01b031690816001600160a01b03168152505073b11f0be6f95e066230fd4ea98ea63c36e3764eee816021815181106109cf576109cf612541565b60200260200101906001600160a01b031690816001600160a01b03168152505073e6f377131784df641bb0e69342501b1b0766281f81602281518110610a1757610a17612541565b60200260200101906001600160a01b031690816001600160a01b031681525050730c6249ef5f3ac452ae89b20e3f0bc894d7acf3ff81602381518110610a5f57610a5f612541565b60200260200101906001600160a01b031690816001600160a01b03168152505073de4ca1e38de15f1533df1f3660eef16c80152bdb81602481518110610aa757610aa7612541565b60200260200101906001600160a01b031690816001600160a01b031681525050737e8d97755b176349a3da82107b2339fb9504990581602581518110610aef57610aef612541565b60200260200101906001600160a01b031690816001600160a01b0316815250507310b0000bb4b7a07ab03f2d1da71a505b41f2bfb581602681518110610b3757610b37612541565b60200260200101906001600160a01b031690816001600160a01b03168152505073223da95483520286fafb15cc9ad00e1c4b8ce91a81602781518110610b7f57610b7f612541565b60200260200101906001600160a01b031690816001600160a01b031681525050734df320d25e8df805543a0f74b88ce2d2f6d67c9081602881518110610bc757610bc7612541565b60200260200101906001600160a01b031690816001600160a01b031681525050732c96ed78a9d5ffb26fd67acfc98267f0256c300681602981518110610c0f57610c0f612541565b60200260200101906001600160a01b031690816001600160a01b031681525050733c6985bdb61d3b7f7a32c1cdc15849372608422081602a81518110610c5757610c57612541565b60200260200101906001600160a01b031690816001600160a01b031681525050739b6e5967c89d05acf5e27e6f4b480c30b723968881602b81518110610c9f57610c9f612541565b60200260200101906001600160a01b031690816001600160a01b03168152505073a394daabfa2f1c23db0b0c69ea550f9e6459d40581602c81518110610ce757610ce7612541565b60200260200101906001600160a01b031690816001600160a01b0316815250507397ac14623ddc9030f5ec84bce140dcbe3fe2ac4881602d81518110610d2f57610d2f612541565b60200260200101906001600160a01b031690816001600160a01b03168152505073bd6c12354288740472fe08465904a66b08c5c47e81602e81518110610d7757610d77612541565b60200260200101906001600160a01b031690816001600160a01b031681525050732bbe1998f437f74eca81d924752dcf0277c8b4dc81602f81518110610dbf57610dbf612541565b60200260200101906001600160a01b031690816001600160a01b03168152505073bad7136d3527cc5bc18a81c8815956729cb72a7281603081518110610e0757610e07612541565b60200260200101906001600160a01b031690816001600160a01b0316815250507370eb58d6fd0744238ba89d9e96c872ba326d984c81603181518110610e4f57610e4f612541565b60200260200101906001600160a01b031690816001600160a01b03168152505073ee214b1bda3b9c0fb4b8013e82778baa393a6f7881603281518110610e9757610e97612541565b60200260200101906001600160a01b031690816001600160a01b031681525050739f798e993fb87d1dfc483d7576c11c239c9d9e7c81603381518110610edf57610edf612541565b60200260200101906001600160a01b031690816001600160a01b03168152505073393b5505807dce9f57ed9e285317e15ff0c622a981603481518110610f2757610f27612541565b60200260200101906001600160a01b031690816001600160a01b03168152505073ce1c9295244af44b024a65354d80ff9389bd353681603581518110610f6f57610f6f612541565b60200260200101906001600160a01b031690816001600160a01b0316815250507396c7736bbbcd731e33b882b117e1214a4ccfa22e81603681518110610fb757610fb7612541565b60200260200101906001600160a01b031690816001600160a01b031681525050738a83998b625d90a04bc2e0b72dcde2f33ab9355d81603781518110610fff57610fff612541565b60200260200101906001600160a01b031690816001600160a01b03168152505073f7894f08f816ec2741563cb63861da6e63a3d8dd8160388151811061104757611047612541565b60200260200101906001600160a01b031690816001600160a01b03168152505073bee2433d2de508064385c82715d8a93f5318a1d68160398151811061108f5761108f612541565b60200260200101906001600160a01b031690816001600160a01b0316815250507350794623a1618bf49e0aa475280daea3be281b3c81603a815181106110d7576110d7612541565b60200260200101906001600160a01b031690816001600160a01b0316815250507301ae07f137df957cacd5a02474019968c0eedb8c81603b8151811061111f5761111f612541565b60200260200101906001600160a01b031690816001600160a01b03168152505073f713c818a71400e76aaeac5748da88c762dc9dbc81603c8151811061116757611167612541565b60200260200101906001600160a01b031690816001600160a01b03168152505073a799cf9a9242eb89d77a61571fb14502f6ba453c81603d815181106111af576111af612541565b60200260200101906001600160a01b031690816001600160a01b03168152505073099532f577a1e474a30d198551936c8a075efbe181603e815181106111f7576111f7612541565b60200260200101906001600160a01b031690816001600160a01b031681525050730a65c215ce8abc782a4b763fffa10a41652ac42c81603f8151811061123f5761123f612541565b60200260200101906001600160a01b031690816001600160a01b03168152505073ae7484f3587e783debb51e430fb2fa3a6427797b8160408151811061128757611287612541565b60200260200101906001600160a01b031690816001600160a01b03168152505073dbe56345cb2025fbc4935768f49480d4004fcf32816041815181106112cf576112cf612541565b60200260200101906001600160a01b031690816001600160a01b0316815250507355449773004c05ceb8fba25e3738175800bfc9068160428151811061131757611317612541565b60200260200101906001600160a01b031690816001600160a01b0316815250507314f22a3202fa7a9e869dc4f69dbf244aaf0d6cb58160438151811061135f5761135f612541565b60200260200101906001600160a01b031690816001600160a01b031681525050731b76b4fe7602dd8542123eb7504b0e86dcf90b65816044815181106113a7576113a7612541565b60200260200101906001600160a01b031690816001600160a01b031681525050731964b16073d891b048d36c4a1fa5b3e66cd919be816045815181106113ef576113ef612541565b60200260200101906001600160a01b031690816001600160a01b03168152505073094b9cf9363cc855101069d346c9eb95598c20958160468151811061143757611437612541565b60200260200101906001600160a01b031690816001600160a01b031681525050733a43a837140378c74bc9201faaee69385e3cfca28160478151811061147f5761147f612541565b60200260200101906001600160a01b031690816001600160a01b031681525050731b2b3d008f85ca378d989fdd56d3e7ff24aa04f4816048815181106114c7576114c7612541565b60200260200101906001600160a01b031690816001600160a01b031681525050736a718978a8dcf0053b4af526609215c55682d9a28160498151811061150f5761150f612541565b60200260200101906001600160a01b031690816001600160a01b03168152505073ee56febb8647bc5f63f96f3b24f743e971120e2881604a8151811061155757611557612541565b60200260200101906001600160a01b031690816001600160a01b03168152505073a7462472ae2523f2ef0022690f6f891cba6ee94c81604b8151811061159f5761159f612541565b60200260200101906001600160a01b031690816001600160a01b03168152505073dc768186cac0d2563e4986d0bed86a2d9221b87d81604c815181106115e7576115e7612541565b60200260200101906001600160a01b031690816001600160a01b03168152505073ddb343113b75ebb43e5aa42d71559d5a8595226381604d8151811061162f5761162f612541565b60200260200101906001600160a01b031690816001600160a01b031681525050739022d014d960b1fc3e2696766698d1537b5c11ea81604e8151811061167757611677612541565b60200260200101906001600160a01b031690816001600160a01b0316815250507305a935a92db5bfc8c665ed8d1761fda10a91bc2c81604f815181106116bf576116bf612541565b60200260200101906001600160a01b031690816001600160a01b0316815250507314ca309223126dfd651d974cd359e1ec9ca5c59a8160508151811061170757611707612541565b60200260200101906001600160a01b031690816001600160a01b03168152505073045a7129b943eef7528ef042a3add153b70dc8e18160518151811061174f5761174f612541565b60200260200101906001600160a01b031690816001600160a01b0316815250507394c105a920738e7ecdd5fb442c1ea4badd51ec7a8160528151811061179757611797612541565b60200260200101906001600160a01b031690816001600160a01b03168152505073f8f90722b6d8d1b554a887662f0f16d111644c68816053815181106117df576117df612541565b60200260200101906001600160a01b031690816001600160a01b03168152505073a4e9386bc3d8ae26bb9a3ace262359a4407743c18160548151811061182757611827612541565b60200260200101906001600160a01b031690816001600160a01b031681525050735b839de16d86c774fd5ae92bff772e1f0d93e1d18160558151811061186f5761186f612541565b60200260200101906001600160a01b031690816001600160a01b031681525050730681294fe1d527dde290f065f249649f39d9d719816056815181106118b7576118b7612541565b60200260200101906001600160a01b031690816001600160a01b03168152505073339f2dd1c2b116618e5ec7a1ac0446e39fabf8dd816057815181106118ff576118ff612541565b60200260200101906001600160a01b031690816001600160a01b03168152505073968cd825522c50a9e1d393a546e560e49940d8e28160588151811061194757611947612541565b60200260200101906001600160a01b031690816001600160a01b03168152505073a5be98ec4f02a0a6c182c2ae6168768d33dfb6888160598151811061198f5761198f612541565b60200260200101906001600160a01b031690816001600160a01b031681525050733bdfca0d36ab23466dd68fd1cfe951921b3d2aed81605a815181106119d7576119d7612541565b60200260200101906001600160a01b031690816001600160a01b031681525050739f52e7d05ef15c5f14a419ef9abe344783ff8d2481605b81518110611a1f57611a1f612541565b60200260200101906001600160a01b031690816001600160a01b0316815250507344fbcd7a7c9a97488b1e7047ac5f7ad5d3e3ecbf81605c81518110611a6757611a67612541565b60200260200101906001600160a01b031690816001600160a01b031681525050739862c98f397c1b99d525e5e559b0ae02ff6df52c81605d81518110611aaf57611aaf612541565b60200260200101906001600160a01b031690816001600160a01b03168152505073c7a21822ac0885999c42ccf9a41bb1b7166789db81605e81518110611af757611af7612541565b60200260200101906001600160a01b031690816001600160a01b0316815250507322a9228c7d2be7da3f0a562f4fe362b95dd9e57981605f81518110611b3f57611b3f612541565b60200260200101906001600160a01b031690816001600160a01b0316815250507356f75050fabc6296500f71521cc10c6e32d899c681606081518110611b8757611b87612541565b60200260200101906001600160a01b031690816001600160a01b031681525050730cd898352e9f781af7d65e29adc890add42f735081606181518110611bcf57611bcf612541565b60200260200101906001600160a01b031690816001600160a01b03168152505073d1a690ff4392ab677d5d2c044307fe2ce2cb5ef281606281518110611c1757611c17612541565b60200260200101906001600160a01b031690816001600160a01b03168152505073768c545669e6821e059473ffca7912d291078cfe81606381518110611c5f57611c5f612541565b60200260200101906001600160a01b031690816001600160a01b031681525050733cb7e258de4cf86f8e286ae3becd69b28d934c6d81606481518110611ca757611ca7612541565b60200260200101906001600160a01b031690816001600160a01b031681525050739882954d15f500ea7a63a33479cbe0132b584eb081606581518110611cef57611cef612541565b60200260200101906001600160a01b031690816001600160a01b03168152505073cf24a48c662c096c602ebd45386a4b133b2bd89e81606681518110611d3757611d37612541565b60200260200101906001600160a01b031690816001600160a01b0316815250507327573933421403b0f832e346a6ef30ab103dafed81606781518110611d7f57611d7f612541565b60200260200101906001600160a01b031690816001600160a01b03168152505073a0ddea94a1c76181ab8bbfdf6a2c2353cbe3ca0581606881518110611dc757611dc7612541565b60200260200101906001600160a01b031690816001600160a01b03168152505073e81b74146e27eb7c9eb862821a3da3a8f6f29b0681606981518110611e0f57611e0f612541565b60200260200101906001600160a01b031690816001600160a01b03168152505073bbb0c5f2e2ccf64563a8752f921dd541661e8cad81606a81518110611e5757611e57612541565b60200260200101906001600160a01b031690816001600160a01b03168152505073cd5fb01d9f7af57eaccf00ff7b50014ca7fa114681606b81518110611e9f57611e9f612541565b60200260200101906001600160a01b031690816001600160a01b0316815250507366c0d9152209b51977047b9dc3b0b5bf2339b67c81606c81518110611ee757611ee7612541565b60200260200101906001600160a01b031690816001600160a01b03168152505073b13d491fc28d3351ed0aa4bbc5639ec02d8dd61581606d81518110611f2f57611f2f612541565b60200260200101906001600160a01b031690816001600160a01b031681525050733658ce9070ba4c890cdbf59ee14ab3b4e73c0d1781606e81518110611f7757611f77612541565b60200260200101906001600160a01b031690816001600160a01b0316815250507394d70d38fd20e1a9ffb5b83c6298fa4801ffec7b81606f81518110611fbf57611fbf612541565b60200260200101906001600160a01b031690816001600160a01b031681525050734175239a81a3280f8b93d30e40fb17133f22d7138160708151811061200757612007612541565b60200260200101906001600160a01b031690816001600160a01b03168152505073653820ce32b3ac1dff9d149d11eea009b46864bb8160718151811061204f5761204f612541565b60200260200101906001600160a01b031690816001600160a01b03168152505073bee2ba88800800f49a0d8bd35969c914fcb8f53e8160728151811061209757612097612541565b60200260200101906001600160a01b031690816001600160a01b031681525050737fe35e8327b15912524bb850990046cdaf7fe5e3816073815181106120df576120df612541565b60200260200101906001600160a01b031690816001600160a01b031681525050734bc10a13a35565107ba0d6a0b273e163ef1fb7468160748151811061212757612127612541565b60200260200101906001600160a01b031690816001600160a01b03168152505073638ac4bc8c1585b7c0874c2dbaf80f5a8805559c8160758151811061216f5761216f612541565b60200260200101906001600160a01b031690816001600160a01b031681525050739fd4faafa63933eaa7a72ab12920da1dc32aa1fc816076815181106121b7576121b7612541565b60200260200101906001600160a01b031690816001600160a01b03168152505073b44900990eb97ccfaf43e6d2f49c60714cf05e25816077815181106121ff576121ff612541565b60200260200101906001600160a01b031690816001600160a01b03168152505073755cd4e94394f16c8214953da4ddddb3388a97488160788151811061224757612247612541565b60200260200101906001600160a01b031690816001600160a01b0316815250507371e91f689338b13aa4a8c32a69d410f433b916638160798151811061228f5761228f612541565b60200260200101906001600160a01b031690816001600160a01b03168152505073a1b95af66e9a9ec0aed9a09bb6294b4f2c486a0f81607a815181106122d7576122d7612541565b60200260200101906001600160a01b031690816001600160a01b031681525050731fa4feb6364c190ca8a340c3af40862330d65ecd81607b8151811061231f5761231f612541565b60200260200101906001600160a01b031690816001600160a01b031681525050733e9bfd8c32f76d98f0f86c622a64b27c3493cda381607c8151811061236757612367612541565b60200260200101906001600160a01b031690816001600160a01b031681525050738333c1b5131cc694c3a238e41e50cbc236e73dbc81607d815181106123af576123af612541565b60200260200101906001600160a01b031690816001600160a01b0316815250507320948b421def6a597c55e111ce43b06d1845870e81607e815181106123f7576123f7612541565b60200260200101906001600160a01b031690816001600160a01b0316815250507350d1f66689d7dceccce294d15f72b3171d5579a581607f8151811061243f5761243f612541565b60200260200101906001600160a01b031690816001600160a01b031681525050738b253eced564e483aec4f30cd5a1916663a998df8160808151811061248757612487612541565b60200260200101906001600160a01b031690816001600160a01b0316815250507364ea76437183623cd015cc31757efff2368f2923816081815181106124cf576124cf612541565b6001600160a01b03928316602091820292909201015260005460405163b8e121f160e01b815291169063b8e121f19061250c908490600401612557565b600060405180830381600087803b15801561252657600080fd5b505af115801561253a573d6000803e3d6000fd5b5050505050565b634e487b7160e01b600052603260045260246000fd5b6020808252825182820181905260009190848201906040850190845b818110156125985783516001600160a01b031683529284019291840191600101612573565b5090969550505050505056fea26469706673582212206804d69e62e519eea2bbfb509a2c23ec24de75cb794770285e48ad00c213fcf664736f6c63430008190033","linkReferences":{}},"methodIdentifiers":{"mintToMultiple()":"ede691ac"},"id":0}