{"abi":[{"type":"constructor","inputs":[],"stateMutability":"nonpayable"},{"type":"function","name":"approve","inputs":[{"name":"to","type":"address","internalType":"address"},{"name":"tokenId","type":"uint256","internalType":"uint256"}],"outputs":[],"stateMutability":"nonpayable"},{"type":"function","name":"balanceOf","inputs":[{"name":"owner","type":"address","internalType":"address"}],"outputs":[{"name":"","type":"uint256","internalType":"uint256"}],"stateMutability":"view"},{"type":"function","name":"defaultMinter","inputs":[],"outputs":[{"name":"","type":"address","internalType":"address"}],"stateMutability":"view"},{"type":"function","name":"getApproved","inputs":[{"name":"tokenId","type":"uint256","internalType":"uint256"}],"outputs":[{"name":"","type":"address","internalType":"address"}],"stateMutability":"view"},{"type":"function","name":"isApprovedForAll","inputs":[{"name":"owner","type":"address","internalType":"address"},{"name":"operator","type":"address","internalType":"address"}],"outputs":[{"name":"","type":"bool","internalType":"bool"}],"stateMutability":"view"},{"type":"function","name":"mint","inputs":[{"name":"to","type":"address","internalType":"address"}],"outputs":[],"stateMutability":"nonpayable"},{"type":"function","name":"mintToMultiple","inputs":[{"name":"addresses","type":"address[]","internalType":"address[]"}],"outputs":[],"stateMutability":"nonpayable"},{"type":"function","name":"name","inputs":[],"outputs":[{"name":"","type":"string","internalType":"string"}],"stateMutability":"view"},{"type":"function","name":"owner","inputs":[],"outputs":[{"name":"","type":"address","internalType":"address"}],"stateMutability":"view"},{"type":"function","name":"ownerOf","inputs":[{"name":"tokenId","type":"uint256","internalType":"uint256"}],"outputs":[{"name":"","type":"address","internalType":"address"}],"stateMutability":"view"},{"type":"function","name":"renounceOwnership","inputs":[],"outputs":[],"stateMutability":"nonpayable"},{"type":"function","name":"safeTransferFrom","inputs":[{"name":"from","type":"address","internalType":"address"},{"name":"to","type":"address","internalType":"address"},{"name":"tokenId","type":"uint256","internalType":"uint256"}],"outputs":[],"stateMutability":"nonpayable"},{"type":"function","name":"safeTransferFrom","inputs":[{"name":"from","type":"address","internalType":"address"},{"name":"to","type":"address","internalType":"address"},{"name":"tokenId","type":"uint256","internalType":"uint256"},{"name":"data","type":"bytes","internalType":"bytes"}],"outputs":[],"stateMutability":"nonpayable"},{"type":"function","name":"setApprovalForAll","inputs":[{"name":"operator","type":"address","internalType":"address"},{"name":"approved","type":"bool","internalType":"bool"}],"outputs":[],"stateMutability":"nonpayable"},{"type":"function","name":"setMinter","inputs":[{"name":"_newMinter","type":"address","internalType":"address"}],"outputs":[],"stateMutability":"nonpayable"},{"type":"function","name":"supportsInterface","inputs":[{"name":"interfaceId","type":"bytes4","internalType":"bytes4"}],"outputs":[{"name":"","type":"bool","internalType":"bool"}],"stateMutability":"view"},{"type":"function","name":"symbol","inputs":[],"outputs":[{"name":"","type":"string","internalType":"string"}],"stateMutability":"view"},{"type":"function","name":"tokenIdCounter","inputs":[],"outputs":[{"name":"","type":"uint256","internalType":"uint256"}],"stateMutability":"view"},{"type":"function","name":"tokenURI","inputs":[{"name":"tokenId","type":"uint256","internalType":"uint256"}],"outputs":[{"name":"","type":"string","internalType":"string"}],"stateMutability":"view"},{"type":"function","name":"totalSupply","inputs":[],"outputs":[{"name":"","type":"uint256","internalType":"uint256"}],"stateMutability":"view"},{"type":"function","name":"transferFrom","inputs":[{"name":"from","type":"address","internalType":"address"},{"name":"to","type":"address","internalType":"address"},{"name":"tokenId","type":"uint256","internalType":"uint256"}],"outputs":[],"stateMutability":"nonpayable"},{"type":"function","name":"transferOwnership","inputs":[{"name":"newOwner","type":"address","internalType":"address"}],"outputs":[],"stateMutability":"nonpayable"},{"type":"event","name":"Approval","inputs":[{"name":"owner","type":"address","indexed":true,"internalType":"address"},{"name":"approved","type":"address","indexed":true,"internalType":"address"},{"name":"tokenId","type":"uint256","indexed":true,"internalType":"uint256"}],"anonymous":false},{"type":"event","name":"ApprovalForAll","inputs":[{"name":"owner","type":"address","indexed":true,"internalType":"address"},{"name":"operator","type":"address","indexed":true,"internalType":"address"},{"name":"approved","type":"bool","indexed":false,"internalType":"bool"}],"anonymous":false},{"type":"event","name":"NFTMinted","inputs":[{"name":"to","type":"address","indexed":true,"internalType":"address"},{"name":"tokenId","type":"uint256","indexed":false,"internalType":"uint256"}],"anonymous":false},{"type":"event","name":"OwnershipTransferred","inputs":[{"name":"previousOwner","type":"address","indexed":true,"internalType":"address"},{"name":"newOwner","type":"address","indexed":true,"internalType":"address"}],"anonymous":false},{"type":"event","name":"Transfer","inputs":[{"name":"from","type":"address","indexed":true,"internalType":"address"},{"name":"to","type":"address","indexed":true,"internalType":"address"},{"name":"tokenId","type":"uint256","indexed":true,"internalType":"uint256"}],"anonymous":false},{"type":"error","name":"ERC721IncorrectOwner","inputs":[{"name":"sender","type":"address","internalType":"address"},{"name":"tokenId","type":"uint256","internalType":"uint256"},{"name":"owner","type":"address","internalType":"address"}]},{"type":"error","name":"ERC721InsufficientApproval","inputs":[{"name":"operator","type":"address","internalType":"address"},{"name":"tokenId","type":"uint256","internalType":"uint256"}]},{"type":"error","name":"ERC721InvalidApprover","inputs":[{"name":"approver","type":"address","internalType":"address"}]},{"type":"error","name":"ERC721InvalidOperator","inputs":[{"name":"operator","type":"address","internalType":"address"}]},{"type":"error","name":"ERC721InvalidOwner","inputs":[{"name":"owner","type":"address","internalType":"address"}]},{"type":"error","name":"ERC721InvalidReceiver","inputs":[{"name":"receiver","type":"address","internalType":"address"}]},{"type":"error","name":"ERC721InvalidSender","inputs":[{"name":"sender","type":"address","internalType":"address"}]},{"type":"error","name":"ERC721NonexistentToken","inputs":[{"name":"tokenId","type":"uint256","internalType":"uint256"}]},{"type":"error","name":"OwnableInvalidOwner","inputs":[{"name":"owner","type":"address","internalType":"address"}]},{"type":"error","name":"OwnableUnauthorizedAccount","inputs":[{"name":"account","type":"address","internalType":"address"}]}],"bytecode":{"object":"0x6080604052600060075534801561001557600080fd5b50336040518060400160405280601081526020016f54726f74656c436f696e204561726c7960801b8152506040518060400160405280600781526020016654434541524c5960c81b815250816000908161006f91906101dd565b50600161007c82826101dd565b5050506001600160a01b0381166100ad57604051631e4fbdf760e01b81526000600482015260240160405180910390fd5b6100b6816100ea565b50600880546001600160a01b031916339081179091556000908152600960205260409020805460ff1916600117905561029c565b600680546001600160a01b038381166001600160a01b0319831681179093556040519116919082907f8be0079c531659141344cd1fd0a4f28419497f9722a3daafe3b4186f6b6457e090600090a35050565b634e487b7160e01b600052604160045260246000fd5b600181811c9082168061016657607f821691505b60208210810361018657634e487b7160e01b600052602260045260246000fd5b50919050565b601f8211156101d8576000816000526020600020601f850160051c810160208610156101b55750805b601f850160051c820191505b818110156101d4578281556001016101c1565b5050505b505050565b81516001600160401b038111156101f6576101f661013c565b61020a816102048454610152565b8461018c565b602080601f83116001811461023f57600084156102275750858301515b600019600386901b1c1916600185901b1785556101d4565b600085815260208120601f198616915b8281101561026e5788860151825594840194600190910190840161024f565b508582101561028c5787850151600019600388901b60f8161c191681555b5050505050600190811b01905550565b611426806102ab6000396000f3fe608060405234801561001057600080fd5b50600436106101425760003560e01c8063715018a6116100b8578063b88d4fde1161007c578063b88d4fde14610285578063b8e121f114610298578063c87b56dd146102ab578063e985e9c5146102be578063f2fde38b146102d1578063fca3b5aa146102e457600080fd5b8063715018a6146102485780638da5cb5b1461025057806395d89b411461026157806398bdf6f514610269578063a22cb4651461027257600080fd5b806323b872dd1161010a57806323b872dd146101d6578063389dee18146101e957806342842e0e146101fc5780636352211e1461020f5780636a6278421461022257806370a082311461023557600080fd5b806301ffc9a71461014757806306fdde031461016f578063081812fc14610184578063095ea7b3146101af57806318160ddd146101c4575b600080fd5b61015a610155366004610f97565b6102f7565b60405190151581526020015b60405180910390f35b610177610349565b6040516101669190611004565b610197610192366004611017565b6103db565b6040516001600160a01b039091168152602001610166565b6101c26101bd36600461104c565b610404565b005b6007545b604051908152602001610166565b6101c26101e4366004611076565b610413565b600854610197906001600160a01b031681565b6101c261020a366004611076565b6104a3565b61019761021d366004611017565b6104c3565b6101c26102303660046110b2565b6104ce565b6101c86102433660046110b2565b610585565b6101c26105cd565b6006546001600160a01b0316610197565b6101776105e1565b6101c860075481565b6101c26102803660046110cd565b6105f0565b6101c2610293366004611150565b6105fb565b6101c26102a6366004611210565b610612565b6101776102b9366004611017565b61070c565b61015a6102cc3660046112bd565b610781565b6101c26102df3660046110b2565b6107af565b6101c26102f23660046110b2565b6107ed565b60006001600160e01b031982166380ac58cd60e01b148061032857506001600160e01b03198216635b5e139f60e01b145b8061034357506301ffc9a760e01b6001600160e01b03198316145b92915050565b606060008054610358906112f0565b80601f0160208091040260200160405190810160405280929190818152602001828054610384906112f0565b80156103d15780601f106103a6576101008083540402835291602001916103d1565b820191906000526020600020905b8154815290600101906020018083116103b457829003601f168201915b5050505050905090565b60006103e68261085b565b506000828152600460205260409020546001600160a01b0316610343565b61040f828233610894565b5050565b6001600160a01b03821661044257604051633250574960e11b8152600060048201526024015b60405180910390fd5b600061044f8383336108a1565b9050836001600160a01b0316816001600160a01b03161461049d576040516364283d7b60e01b81526001600160a01b0380861660048301526024820184905282166044820152606401610439565b50505050565b6104be838383604051806020016040528060008152506105fb565b505050565b60006103438261085b565b3360009081526009602052604090205460ff1661051c5760405162461bcd60e51b815260206004820152600c60248201526b2737ba10309036b4b73a32b960a11b6044820152606401610439565b6105288160075461099a565b600780549060006105388361132a565b9190505550806001600160a01b03167f4cc0a9c4a99ddc700de1af2c9f916a7cbfdb71f14801ccff94061ad1ef8a804060075460405161057a91815260200190565b60405180910390a250565b60006001600160a01b0382166105b1576040516322718ad960e21b815260006004820152602401610439565b506001600160a01b031660009081526003602052604090205490565b6105d56109ff565b6105df6000610a2c565b565b606060018054610358906112f0565b61040f338383610a7e565b610606848484610413565b61049d84848484610b1d565b3360009081526009602052604090205460ff166106605760405162461bcd60e51b815260206004820152600c60248201526b2737ba10309036b4b73a32b960a11b6044820152606401610439565b60005b815181101561040f5761069182828151811061068157610681611351565b602002602001015160075461099a565b600780549060006106a18361132a565b91905055508181815181106106b8576106b8611351565b60200260200101516001600160a01b03167f4cc0a9c4a99ddc700de1af2c9f916a7cbfdb71f14801ccff94061ad1ef8a80406007546040516106fc91815260200190565b60405180910390a2600101610663565b60606107178261085b565b50600061072f60408051602081019091526000815290565b9050600081511161074f576040518060200160405280600081525061077a565b8061075984610c46565b60405160200161076a929190611367565b6040516020818303038152906040525b9392505050565b6001600160a01b03918216600090815260056020908152604080832093909416825291909152205460ff1690565b6107b76109ff565b6001600160a01b0381166107e157604051631e4fbdf760e01b815260006004820152602401610439565b6107ea81610a2c565b50565b6008546001600160a01b031633146108375760405162461bcd60e51b815260206004820152600d60248201526c2737ba103a34329037bbb732b960991b6044820152606401610439565b6001600160a01b03166000908152600960205260409020805460ff19166001179055565b6000818152600260205260408120546001600160a01b03168061034357604051637e27328960e01b815260048101849052602401610439565b6104be8383836001610cd9565b6000828152600260205260408120546001600160a01b03908116908316156108ce576108ce818486610ddf565b6001600160a01b0381161561090c576108eb600085600080610cd9565b6001600160a01b038116600090815260036020526040902080546000190190555b6001600160a01b0385161561093b576001600160a01b0385166000908152600360205260409020805460010190555b60008481526002602052604080822080546001600160a01b0319166001600160a01b0389811691821790925591518793918516917fddf252ad1be2c89b69c2b068fc378daa952ba7f163c4a11628f55a4df523b3ef91a4949350505050565b6001600160a01b0382166109c457604051633250574960e11b815260006004820152602401610439565b60006109d2838360006108a1565b90506001600160a01b038116156104be576040516339e3563760e11b815260006004820152602401610439565b6006546001600160a01b031633146105df5760405163118cdaa760e01b8152336004820152602401610439565b600680546001600160a01b038381166001600160a01b0319831681179093556040519116919082907f8be0079c531659141344cd1fd0a4f28419497f9722a3daafe3b4186f6b6457e090600090a35050565b6001600160a01b038216610ab057604051630b61174360e31b81526001600160a01b0383166004820152602401610439565b6001600160a01b03838116600081815260056020908152604080832094871680845294825291829020805460ff191686151590811790915591519182527f17307eab39ab6107e8899845ad3d59bd9653f200f220920489ca2b5937696c31910160405180910390a3505050565b6001600160a01b0383163b1561049d57604051630a85bd0160e11b81526001600160a01b0384169063150b7a0290610b5f903390889087908790600401611396565b6020604051808303816000875af1925050508015610b9a575060408051601f3d908101601f19168201909252610b97918101906113d3565b60015b610c03573d808015610bc8576040519150601f19603f3d011682016040523d82523d6000602084013e610bcd565b606091505b508051600003610bfb57604051633250574960e11b81526001600160a01b0385166004820152602401610439565b805181602001fd5b6001600160e01b03198116630a85bd0160e11b14610c3f57604051633250574960e11b81526001600160a01b0385166004820152602401610439565b5050505050565b60606000610c5383610e43565b600101905060008167ffffffffffffffff811115610c7357610c73611109565b6040519080825280601f01601f191660200182016040528015610c9d576020820181803683370190505b5090508181016020015b600019016f181899199a1a9b1b9c1cb0b131b232b360811b600a86061a8153600a8504945084610ca757509392505050565b8080610ced57506001600160a01b03821615155b15610daf576000610cfd8461085b565b90506001600160a01b03831615801590610d295750826001600160a01b0316816001600160a01b031614155b8015610d3c5750610d3a8184610781565b155b15610d655760405163a9fbf51f60e01b81526001600160a01b0384166004820152602401610439565b8115610dad5783856001600160a01b0316826001600160a01b03167f8c5be1e5ebec7d5bd14f71427d1e84f3dd0314c0f7b2291e5b200ac8c7c3b92560405160405180910390a45b505b5050600090815260046020526040902080546001600160a01b0319166001600160a01b0392909216919091179055565b610dea838383610f1b565b6104be576001600160a01b038316610e1857604051637e27328960e01b815260048101829052602401610439565b60405163177e802f60e01b81526001600160a01b038316600482015260248101829052604401610439565b60008072184f03e93ff9f4daa797ed6e38ed64bf6a1f0160401b8310610e825772184f03e93ff9f4daa797ed6e38ed64bf6a1f0160401b830492506040015b6d04ee2d6d415b85acef81000000008310610eae576d04ee2d6d415b85acef8100000000830492506020015b662386f26fc100008310610ecc57662386f26fc10000830492506010015b6305f5e1008310610ee4576305f5e100830492506008015b6127108310610ef857612710830492506004015b60648310610f0a576064830492506002015b600a83106103435760010192915050565b60006001600160a01b03831615801590610f795750826001600160a01b0316846001600160a01b03161480610f555750610f558484610781565b80610f7957506000828152600460205260409020546001600160a01b038481169116145b949350505050565b6001600160e01b0319811681146107ea57600080fd5b600060208284031215610fa957600080fd5b813561077a81610f81565b60005b83811015610fcf578181015183820152602001610fb7565b50506000910152565b60008151808452610ff0816020860160208601610fb4565b601f01601f19169290920160200192915050565b60208152600061077a6020830184610fd8565b60006020828403121561102957600080fd5b5035919050565b80356001600160a01b038116811461104757600080fd5b919050565b6000806040838503121561105f57600080fd5b61106883611030565b946020939093013593505050565b60008060006060848603121561108b57600080fd5b61109484611030565b92506110a260208501611030565b9150604084013590509250925092565b6000602082840312156110c457600080fd5b61077a82611030565b600080604083850312156110e057600080fd5b6110e983611030565b9150602083013580151581146110fe57600080fd5b809150509250929050565b634e487b7160e01b600052604160045260246000fd5b604051601f8201601f1916810167ffffffffffffffff8111828210171561114857611148611109565b604052919050565b6000806000806080858703121561116657600080fd5b61116f85611030565b9350602061117e818701611030565b935060408601359250606086013567ffffffffffffffff808211156111a257600080fd5b818801915088601f8301126111b657600080fd5b8135818111156111c8576111c8611109565b6111da601f8201601f1916850161111f565b915080825289848285010111156111f057600080fd5b808484018584013760008482840101525080935050505092959194509250565b6000602080838503121561122357600080fd5b823567ffffffffffffffff8082111561123b57600080fd5b818501915085601f83011261124f57600080fd5b81358181111561126157611261611109565b8060051b915061127284830161111f565b818152918301840191848101908884111561128c57600080fd5b938501935b838510156112b1576112a285611030565b82529385019390850190611291565b98975050505050505050565b600080604083850312156112d057600080fd5b6112d983611030565b91506112e760208401611030565b90509250929050565b600181811c9082168061130457607f821691505b60208210810361132457634e487b7160e01b600052602260045260246000fd5b50919050565b60006001820161134a57634e487b7160e01b600052601160045260246000fd5b5060010190565b634e487b7160e01b600052603260045260246000fd5b60008351611379818460208801610fb4565b83519083019061138d818360208801610fb4565b01949350505050565b6001600160a01b03858116825284166020820152604081018390526080606082018190526000906113c990830184610fd8565b9695505050505050565b6000602082840312156113e557600080fd5b815161077a81610f8156fea2646970667358221220c07363c0e5b0d663a5fc288b30ff53f5efe02ad0534c89bc738786a6e0b212da64736f6c63430008190033","linkReferences":{}},"methodIdentifiers":{"approve(address,uint256)":"095ea7b3","balanceOf(address)":"70a08231","defaultMinter()":"389dee18","getApproved(uint256)":"081812fc","isApprovedForAll(address,address)":"e985e9c5","mint(address)":"6a627842","mintToMultiple(address[])":"b8e121f1","name()":"06fdde03","owner()":"8da5cb5b","ownerOf(uint256)":"6352211e","renounceOwnership()":"715018a6","safeTransferFrom(address,address,uint256)":"42842e0e","safeTransferFrom(address,address,uint256,bytes)":"b88d4fde","setApprovalForAll(address,bool)":"a22cb465","setMinter(address)":"fca3b5aa","supportsInterface(bytes4)":"01ffc9a7","symbol()":"95d89b41","tokenIdCounter()":"98bdf6f5","tokenURI(uint256)":"c87b56dd","totalSupply()":"18160ddd","transferFrom(address,address,uint256)":"23b872dd","transferOwnership(address)":"f2fde38b"},"id":0}