{"abi":[{"type":"constructor","inputs":[{"name":"_trotelcoinaddress","type":"address","internalType":"address"},{"name":"_trotelcoinstaking","type":"address","internalType":"address"}],"stateMutability":"nonpayable"},{"type":"function","name":"DEFAULT_ADMIN_ROLE","inputs":[],"outputs":[{"name":"","type":"bytes32","internalType":"bytes32"}],"stateMutability":"view"},{"type":"function","name":"adjustReputation","inputs":[{"name":"_courseId","type":"uint256","internalType":"uint256"},{"name":"_approved","type":"bool","internalType":"bool"}],"outputs":[],"stateMutability":"nonpayable"},{"type":"function","name":"courses","inputs":[{"name":"","type":"uint256","internalType":"uint256"}],"outputs":[{"name":"title","type":"string","internalType":"string"},{"name":"ipfsHash","type":"string","internalType":"string"},{"name":"creator","type":"address","internalType":"address"},{"name":"submissionTime","type":"uint256","internalType":"uint256"},{"name":"state","type":"uint8","internalType":"enum ITrotelCoinCollectiveIntelligenceV1.CourseState"},{"name":"votes","type":"tuple","internalType":"struct ITrotelCoinCollectiveIntelligenceV1.Votes","components":[{"name":"approve","type":"uint256","internalType":"uint256"},{"name":"reject","type":"uint256","internalType":"uint256"},{"name":"total","type":"uint256","internalType":"uint256"}]},{"name":"voteEndTime","type":"uint256","internalType":"uint256"}],"stateMutability":"view"},{"type":"function","name":"creators","inputs":[{"name":"","type":"address","internalType":"address"}],"outputs":[{"name":"reputation","type":"int8","internalType":"int8"},{"name":"numberOfCourses","type":"uint256","internalType":"uint256"}],"stateMutability":"view"},{"type":"function","name":"finalizeCourse","inputs":[{"name":"_courseId","type":"uint256","internalType":"uint256"}],"outputs":[],"stateMutability":"nonpayable"},{"type":"function","name":"getCourse","inputs":[{"name":"_courseId","type":"uint256","internalType":"uint256"}],"outputs":[{"name":"","type":"tuple","internalType":"struct ITrotelCoinCollectiveIntelligenceV1.Course","components":[{"name":"title","type":"string","internalType":"string"},{"name":"ipfsHash","type":"string","internalType":"string"},{"name":"creator","type":"address","internalType":"address"},{"name":"submissionTime","type":"uint256","internalType":"uint256"},{"name":"state","type":"uint8","internalType":"enum ITrotelCoinCollectiveIntelligenceV1.CourseState"},{"name":"votes","type":"tuple","internalType":"struct ITrotelCoinCollectiveIntelligenceV1.Votes","components":[{"name":"approve","type":"uint256","internalType":"uint256"},{"name":"reject","type":"uint256","internalType":"uint256"},{"name":"total","type":"uint256","internalType":"uint256"}]},{"name":"voteEndTime","type":"uint256","internalType":"uint256"}]}],"stateMutability":"view"},{"type":"function","name":"getCourses","inputs":[{"name":"_user","type":"address","internalType":"address"}],"outputs":[{"name":"","type":"uint256[]","internalType":"uint256[]"}],"stateMutability":"view"},{"type":"function","name":"getCreator","inputs":[{"name":"_courseId","type":"uint256","internalType":"uint256"}],"outputs":[{"name":"","type":"tuple","internalType":"struct ITrotelCoinCollectiveIntelligenceV1.Creator","components":[{"name":"reputation","type":"int8","internalType":"int8"},{"name":"numberOfCourses","type":"uint256","internalType":"uint256"},{"name":"courses","type":"uint256[]","internalType":"uint256[]"}]}],"stateMutability":"view"},{"type":"function","name":"getCreatorByAddress","inputs":[{"name":"_creator","type":"address","internalType":"address"}],"outputs":[{"name":"","type":"tuple","internalType":"struct ITrotelCoinCollectiveIntelligenceV1.Creator","components":[{"name":"reputation","type":"int8","internalType":"int8"},{"name":"numberOfCourses","type":"uint256","internalType":"uint256"},{"name":"courses","type":"uint256[]","internalType":"uint256[]"}]}],"stateMutability":"view"},{"type":"function","name":"getCreatorNumberOfCourses","inputs":[{"name":"_creator","type":"address","internalType":"address"}],"outputs":[{"name":"","type":"uint256","internalType":"uint256"}],"stateMutability":"view"},{"type":"function","name":"getCreatorReputation","inputs":[{"name":"_creator","type":"address","internalType":"address"}],"outputs":[{"name":"","type":"int8","internalType":"int8"}],"stateMutability":"view"},{"type":"function","name":"getNumberOfCourses","inputs":[{"name":"_user","type":"address","internalType":"address"}],"outputs":[{"name":"","type":"uint256","internalType":"uint256"}],"stateMutability":"view"},{"type":"function","name":"getReputation","inputs":[{"name":"_user","type":"address","internalType":"address"}],"outputs":[{"name":"","type":"int8","internalType":"int8"}],"stateMutability":"view"},{"type":"function","name":"getRoleAdmin","inputs":[{"name":"role","type":"bytes32","internalType":"bytes32"}],"outputs":[{"name":"","type":"bytes32","internalType":"bytes32"}],"stateMutability":"view"},{"type":"function","name":"getVotingPeriod","inputs":[{"name":"_user","type":"address","internalType":"address"}],"outputs":[{"name":"","type":"uint256","internalType":"uint256"}],"stateMutability":"view"},{"type":"function","name":"grantRole","inputs":[{"name":"role","type":"bytes32","internalType":"bytes32"},{"name":"account","type":"address","internalType":"address"}],"outputs":[],"stateMutability":"nonpayable"},{"type":"function","name":"hasRole","inputs":[{"name":"role","type":"bytes32","internalType":"bytes32"},{"name":"account","type":"address","internalType":"address"}],"outputs":[{"name":"","type":"bool","internalType":"bool"}],"stateMutability":"view"},{"type":"function","name":"hasVoted","inputs":[{"name":"_courseId","type":"uint256","internalType":"uint256"},{"name":"_voter","type":"address","internalType":"address"}],"outputs":[{"name":"","type":"bool","internalType":"bool"}],"stateMutability":"view"},{"type":"function","name":"maxSubmissionFee","inputs":[],"outputs":[{"name":"","type":"uint256","internalType":"uint256"}],"stateMutability":"view"},{"type":"function","name":"maxVotingPeriodsDuration","inputs":[],"outputs":[{"name":"","type":"uint256","internalType":"uint256"}],"stateMutability":"view"},{"type":"function","name":"renounceRole","inputs":[{"name":"role","type":"bytes32","internalType":"bytes32"},{"name":"callerConfirmation","type":"address","internalType":"address"}],"outputs":[],"stateMutability":"nonpayable"},{"type":"function","name":"reputation","inputs":[{"name":"","type":"address","internalType":"address"}],"outputs":[{"name":"","type":"int8","internalType":"int8"}],"stateMutability":"view"},{"type":"function","name":"revokeRole","inputs":[{"name":"role","type":"bytes32","internalType":"bytes32"},{"name":"account","type":"address","internalType":"address"}],"outputs":[],"stateMutability":"nonpayable"},{"type":"function","name":"setSubmissionFee","inputs":[{"name":"_fee","type":"uint256","internalType":"uint256"}],"outputs":[],"stateMutability":"nonpayable"},{"type":"function","name":"setVotingPeriodsDuration","inputs":[{"name":"_votingPeriodsDuration","type":"uint256","internalType":"uint256"}],"outputs":[],"stateMutability":"nonpayable"},{"type":"function","name":"submissionFee","inputs":[],"outputs":[{"name":"","type":"uint256","internalType":"uint256"}],"stateMutability":"view"},{"type":"function","name":"submitCourse","inputs":[{"name":"_title","type":"string","internalType":"string"},{"name":"_ipfsHash","type":"string","internalType":"string"},{"name":"_voteEndTime","type":"uint256","internalType":"uint256"}],"outputs":[],"stateMutability":"nonpayable"},{"type":"function","name":"supportsInterface","inputs":[{"name":"interfaceId","type":"bytes4","internalType":"bytes4"}],"outputs":[{"name":"","type":"bool","internalType":"bool"}],"stateMutability":"view"},{"type":"function","name":"totalCourses","inputs":[],"outputs":[{"name":"","type":"uint256","internalType":"uint256"}],"stateMutability":"view"},{"type":"function","name":"trotelcoin","inputs":[],"outputs":[{"name":"","type":"address","internalType":"contract TrotelCoinV2"}],"stateMutability":"view"},{"type":"function","name":"trotelcoinstaking","inputs":[],"outputs":[{"name":"","type":"address","internalType":"contract TrotelCoinStakingV2"}],"stateMutability":"view"},{"type":"function","name":"updateReputation","inputs":[{"name":"_user","type":"address","internalType":"address"},{"name":"_reputation","type":"int8","internalType":"int8"}],"outputs":[],"stateMutability":"nonpayable"},{"type":"function","name":"updateTrotelCoin","inputs":[{"name":"_trotelcoinaddress","type":"address","internalType":"address"}],"outputs":[],"stateMutability":"nonpayable"},{"type":"function","name":"updateTrotelCoinStaking","inputs":[{"name":"_trotelcoinstaking","type":"address","internalType":"address"}],"outputs":[],"stateMutability":"nonpayable"},{"type":"function","name":"voteCourse","inputs":[{"name":"_courseId","type":"uint256","internalType":"uint256"},{"name":"_vote","type":"bool","internalType":"bool"}],"outputs":[],"stateMutability":"nonpayable"},{"type":"function","name":"votes","inputs":[{"name":"","type":"uint256","internalType":"uint256"},{"name":"","type":"address","internalType":"address"}],"outputs":[{"name":"","type":"bool","internalType":"bool"}],"stateMutability":"view"},{"type":"function","name":"votingPeriodsDuration","inputs":[{"name":"","type":"uint256","internalType":"uint256"}],"outputs":[{"name":"","type":"uint256","internalType":"uint256"}],"stateMutability":"view"},{"type":"function","name":"withdrawFees","inputs":[{"name":"_feeCollector","type":"address","internalType":"address"}],"outputs":[],"stateMutability":"nonpayable"},{"type":"event","name":"CourseApproved","inputs":[{"name":"courseId","type":"uint256","indexed":true,"internalType":"uint256"}],"anonymous":false},{"type":"event","name":"CourseRejected","inputs":[{"name":"courseId","type":"uint256","indexed":true,"internalType":"uint256"}],"anonymous":false},{"type":"event","name":"CourseSubmitted","inputs":[{"name":"courseId","type":"uint256","indexed":true,"internalType":"uint256"},{"name":"creator","type":"address","indexed":true,"internalType":"address"},{"name":"ipfsHash","type":"string","indexed":false,"internalType":"string"},{"name":"submissionTime","type":"uint256","indexed":false,"internalType":"uint256"}],"anonymous":false},{"type":"event","name":"FeeCollected","inputs":[{"name":"feeCollector","type":"address","indexed":true,"internalType":"address"},{"name":"amount","type":"uint256","indexed":false,"internalType":"uint256"}],"anonymous":false},{"type":"event","name":"ReputationUpdated","inputs":[{"name":"user","type":"address","indexed":true,"internalType":"address"},{"name":"reputation","type":"int8","indexed":false,"internalType":"int8"}],"anonymous":false},{"type":"event","name":"RoleAdminChanged","inputs":[{"name":"role","type":"bytes32","indexed":true,"internalType":"bytes32"},{"name":"previousAdminRole","type":"bytes32","indexed":true,"internalType":"bytes32"},{"name":"newAdminRole","type":"bytes32","indexed":true,"internalType":"bytes32"}],"anonymous":false},{"type":"event","name":"RoleGranted","inputs":[{"name":"role","type":"bytes32","indexed":true,"internalType":"bytes32"},{"name":"account","type":"address","indexed":true,"internalType":"address"},{"name":"sender","type":"address","indexed":true,"internalType":"address"}],"anonymous":false},{"type":"event","name":"RoleRevoked","inputs":[{"name":"role","type":"bytes32","indexed":true,"internalType":"bytes32"},{"name":"account","type":"address","indexed":true,"internalType":"address"},{"name":"sender","type":"address","indexed":true,"internalType":"address"}],"anonymous":false},{"type":"event","name":"VoteCast","inputs":[{"name":"courseId","type":"uint256","indexed":true,"internalType":"uint256"},{"name":"voter","type":"address","indexed":true,"internalType":"address"},{"name":"vote","type":"bool","indexed":false,"internalType":"bool"}],"anonymous":false},{"type":"error","name":"AccessControlBadConfirmation","inputs":[]},{"type":"error","name":"AccessControlUnauthorizedAccount","inputs":[{"name":"account","type":"address","internalType":"address"},{"name":"neededRole","type":"bytes32","internalType":"bytes32"}]}],"bytecode":{"object":"0x608060405234801561001057600080fd5b506040516128ba3803806128ba83398101604081905261002f916101e1565b600180546001600160a01b038085166001600160a01b03199283168117909355600280549185169190921617905562278d006003556040805163313ce56760e01b8152905163313ce567916004808201926020929091908290030181865afa15801561009f573d6000803e3d6000fd5b505050506040513d601f19601f820116820180604052508101906100c39190610214565b6100ce90600a61033a565b6100da90612710610349565b6004908155600580546001818101835560008390526213c6807f036b6384b5eca791c62761152d0c79bb0604c104a5fb6f4eb0703f3154bb3db0928301558254808201845562093a809083015582548082019093556203f4809290910191909155546040805163313ce56760e01b815290516001600160a01b039092169263313ce5679282820192602092908290030181865afa15801561017f573d6000803e3d6000fd5b505050506040513d601f19601f820116820180604052508101906101a39190610214565b6101ae90600a61033a565b6101ba906103e8610349565b600655506103609050565b80516001600160a01b03811681146101dc57600080fd5b919050565b600080604083850312156101f457600080fd5b6101fd836101c5565b915061020b602084016101c5565b90509250929050565b60006020828403121561022657600080fd5b815160ff8116811461023757600080fd5b9392505050565b634e487b7160e01b600052601160045260246000fd5b600181815b8085111561028f5781600019048211156102755761027561023e565b8085161561028257918102915b93841c9390800290610259565b509250929050565b6000826102a657506001610334565b816102b357506000610334565b81600181146102c957600281146102d3576102ef565b6001915050610334565b60ff8411156102e4576102e461023e565b50506001821b610334565b5060208310610133831016604e8410600b8410161715610312575081810a610334565b61031c8383610254565b80600019048211156103305761033061023e565b0290505b92915050565b600061023760ff841683610297565b80820281158282048414176103345761033461023e565b61254b8061036f6000396000f3fe608060405234801561001057600080fd5b50600436106102325760003560e01c80637b62150c11610130578063af115bf9116100b8578063dfb067501161007c578063dfb06750146105cd578063e610a28f146105f8578063e88889421461060b578063ee750ac51461052b578063f0bdff3b1461061457600080fd5b8063af115bf91461052b578063b9f7945114610557578063d23254b414610579578063d48e638a146105a7578063d547741f146105ba57600080fd5b806396f979d2116100ff57806396f979d2146104995780639b7b7348146104bf5780639c89a0e2146104d2578063a217fddf14610510578063aee398d51461051857600080fd5b80637b62150c1461042657806387ac18601461043957806391d1485414610442578063933166e11461045557600080fd5b806343859632116101be5780635d1e4444116101825780635d1e4444146103d157806364149579146103e45780636752071c146103ed5780636ec678eb146104005780637204adc51461041357600080fd5b806343859632146103495780634795060e146103825780634a0a0a1b1461039557806350a42d4a146103b55780635b6be123146103be57600080fd5b8063248a9ca311610205578063248a9ca3146102b45780632c1743be146102e55780632f2ff15d146102f857806336568abe1461030b578063408bdb621461031e57600080fd5b806301ffc9a7146102375780630b91e28d1461025f578063164e68de1461027f5780631b77648f14610294575b600080fd5b61024a610245366004611b9a565b610627565b60405190151581526020015b60405180910390f35b61027261026d366004611bcb565b61065e565b6040516102569190611c62565b61029261028d366004611d21565b61082a565b005b6102a76102a2366004611d21565b6109ab565b6040516102569190611d3c565b6102d76102c2366004611bcb565b60009081526020819052604090206001015490565b604051908152602001610256565b6102926102f3366004611e60565b610a1a565b610292610306366004611ecd565b610dcf565b610292610319366004611ecd565b610dfa565b600154610331906001600160a01b031681565b6040516001600160a01b039091168152602001610256565b61024a610357366004611ecd565b60009182526009602090815260408084206001600160a01b0393909316845291905290205460ff1690565b610292610390366004611bcb565b610e32565b6103a86103a3366004611d21565b610e5e565b6040516102569190611ef9565b6102d760045481565b600254610331906001600160a01b031681565b6102d76103df366004611d21565b610f06565b6102d760035481565b6102926103fb366004611bcb565b6110f1565b61029261040e366004611d21565b61111d565b610292610421366004611f70565b611166565b610292610434366004611d21565b61124a565b6102d760075481565b61024a610450366004611ecd565b611293565b61047f610463366004611d21565b600b6020526000908152604081208054600190910154910b9082565b6040805160009390930b8352602083019190915201610256565b6104ac6104a7366004611bcb565b6112bc565b6040516102569796959493929190611fa0565b6102d76104cd366004611bcb565b611436565b6104fd6104e0366004611d21565b6001600160a01b03166000908152600a6020526040812054900b90565b60405160009190910b8152602001610256565b6102d7600081565b610292610526366004611bcb565b611457565b6102d7610539366004611d21565b6001600160a01b03166000908152600b602052604090206001015490565b6104fd610565366004611d21565b600a60205260009081526040812054900b81565b61024a610587366004611ecd565b600960209081526000928352604080842090915290825290205460ff1681565b6103a86105b5366004611bcb565b611608565b6102926105c8366004611ecd565b6116bb565b6104fd6105db366004611d21565b6001600160a01b03166000908152600b6020526040812054900b90565b610292610606366004611f70565b6116e0565b6102d760065481565b610292610622366004612019565b6118f8565b60006001600160e01b03198216637965db0b60e01b148061065857506301ffc9a760e01b6001600160e01b03198316145b92915050565b610666611ac1565b60008281526008602052604090819020815160e0810190925280548290829061068e9061204b565b80601f01602080910402602001604051908101604052809291908181526020018280546106ba9061204b565b80156107075780601f106106dc57610100808354040283529160200191610707565b820191906000526020600020905b8154815290600101906020018083116106ea57829003601f168201915b505050505081526020016001820180546107209061204b565b80601f016020809104026020016040519081016040528092919081815260200182805461074c9061204b565b80156107995780601f1061076e57610100808354040283529160200191610799565b820191906000526020600020905b81548152906001019060200180831161077c57829003601f168201915b50505091835250506002828101546001600160a01b0316602083015260038301546040830152600483015460609092019160ff16908111156107dd576107dd611c2a565b60028111156107ee576107ee611c2a565b81526040805160608101825260058401548152600684015460208281019190915260078501548284015283015260089092015491015292915050565b80610836600082611293565b61087c5760405162461bcd60e51b815260206004820152601260248201527127b7363c903332b29031b7b63632b1ba37b960711b60448201526064015b60405180910390fd5b6001546040516370a0823160e01b81523060048201526000916001600160a01b0316906370a0823190602401602060405180830381865afa1580156108c5573d6000803e3d6000fd5b505050506040513d601f19601f820116820180604052508101906108e99190612085565b60015460405163a9059cbb60e01b81526001600160a01b0386811660048301526024820184905292935091169063a9059cbb906044016020604051808303816000875af115801561093e573d6000803e3d6000fd5b505050506040513d601f19601f82011682018060405250810190610962919061209e565b50826001600160a01b03167f06c5efeff5c320943d265dc4e5f1af95ad523555ce0c1957e367dda5514572df8260405161099e91815260200190565b60405180910390a2505050565b6001600160a01b0381166000908152600b6020908152604091829020600201805483518184028101840190945280845260609392830182828015610a0e57602002820191906000526020600020905b8154815260200190600101908083116109fa575b50505050509050919050565b600354811115610a645760405162461bcd60e51b8152602060048201526015602482015274125b9d985b1a59081d9bdd1a5b99c81c195c9a5bd9605a1b6044820152606401610873565b6006546001546040516370a0823160e01b81523360048201526001600160a01b03909116906370a0823190602401602060405180830381865afa158015610aaf573d6000803e3d6000fd5b505050506040513d601f19601f82011682018060405250810190610ad39190612085565b1015610b185760405162461bcd60e51b8152602060048201526014602482015273496e73756666696369656e742062616c616e636560601b6044820152606401610873565b60006007546001610b2991906120d1565b60078190556040805160e081018252868152602081018690523391810191909152426060820152909150608081016000815260408051606081018252600080825260208281018290528284018290528085019290925292820186905284835260089052902081518190610b9c9082612134565b5060208201516001820190610bb19082612134565b506040820151600282810180546001600160a01b0319166001600160a01b03909316929092179091556060830151600383015560808301516004830180549192909160ff1916906001908490811115610c0c57610c0c611c2a565b021790555060a0820151805160058301556020810151600680840191909155604091820151600784015560c090930151600890920191909155600154915490516323b872dd60e01b815233600482015230602482015260448101919091526001600160a01b03909116906323b872dd906064016020604051808303816000875af1158015610c9e573d6000803e3d6000fd5b505050506040513d601f19601f82011682018060405250810190610cc2919061209e565b50336001600160a01b0316817fdd7f2f8175adb2a894b67b6c48a81bea575b7faf8f76d344ac2854a211f410c58542604051610cff9291906121f4565b60405180910390a3336000908152600b6020526040812054810b9003610d8457604080516060810182526000808252602080830182815284518381528083018652848601908152338452600b8352949092208351815460ff191660ff909116178155915160018301559251805192939192610d809260028501920190611b3a565b5050505b336000908152600b60205260408120600101805491610da283612216565b9091555050336000908152600b602090815260408220600201805460018101825590835291200155505050565b600082815260208190526040902060010154610dea8161197d565b610df48383611987565b50505050565b6001600160a01b0381163314610e235760405163334bd91960e11b815260040160405180910390fd5b610e2d8282611a19565b505050565b610e3d600033611293565b610e595760405162461bcd60e51b81526004016108739061222f565b600355565b604080516060808201835260008083526020830152918101919091526001600160a01b0382166000908152600b602090815260408083208151606081018352815490940b84526001810154848401526002810180548351818602810186018552818152929493860193830182828015610ef657602002820191906000526020600020905b815481526020019060010190808311610ee2575b5050505050815250509050919050565b60025460405163683b481960e11b81526001600160a01b038381166004830152600092839291169063d076903290602401600060405180830381865afa158015610f54573d6000803e3d6000fd5b505050506040513d6000823e601f3d908101601f19168201604052610f7c91908101906122e7565b80516001546040805163313ce56760e01b8152905193945091926001600160a01b039091169163313ce5679160048083019260209291908290030181865afa158015610fcc573d6000803e3d6000fd5b505050506040513d601f19601f82011682018060405250810190610ff091906123b1565b610ffb90600a6124b8565b6110079061c3506124c7565b8110611035576005600281548110611021576110216124de565b906000526020600020015492505050919050565b600160009054906101000a90046001600160a01b03166001600160a01b031663313ce5676040518163ffffffff1660e01b8152600401602060405180830381865afa158015611088573d6000803e3d6000fd5b505050506040513d601f19601f820116820180604052508101906110ac91906123b1565b6110b790600a6124b8565b6110c3906127106124c7565b81106110dd576005600181548110611021576110216124de565b6005600081548110611021576110216124de565b6110fc600033611293565b6111185760405162461bcd60e51b81526004016108739061222f565b600655565b611128600033611293565b6111445760405162461bcd60e51b81526004016108739061222f565b600180546001600160a01b0319166001600160a01b0392909216919091179055565b611171600033611293565b61118d5760405162461bcd60e51b81526004016108739061222f565b6000828152600860205260408120600201546001600160a01b031690826111b6576000196111b9565b60015b6001600160a01b0383166000908152600a60205260408120549192506111e19183910b6124f4565b6001600160a01b0383166000818152600a60209081526040808320805460ff191660ff969096169590951794859055519390910b835290917fdba71613b365b4b8cc5a3a790cfa5a7879ee821a392279e2799ff0b97ae23288910160405180910390a250505050565b611255600033611293565b6112715760405162461bcd60e51b81526004016108739061222f565b600280546001600160a01b0319166001600160a01b0392909216919091179055565b6000918252602082815260408084206001600160a01b0393909316845291905290205460ff1690565b6008602052600090815260409020805481906112d79061204b565b80601f01602080910402602001604051908101604052809291908181526020018280546113039061204b565b80156113505780601f1061132557610100808354040283529160200191611350565b820191906000526020600020905b81548152906001019060200180831161133357829003601f168201915b5050505050908060010180546113659061204b565b80601f01602080910402602001604051908101604052809291908181526020018280546113919061204b565b80156113de5780601f106113b3576101008083540402835291602001916113de565b820191906000526020600020905b8154815290600101906020018083116113c157829003601f168201915b50505060028401546003850154600486015460408051606081018252600589015481526006890154602082015260078901549181019190915260089097015495966001600160a01b039093169591945060ff16925087565b6005818154811061144657600080fd5b600091825260209091200154905081565b611462600033611293565b61147e5760405162461bcd60e51b81526004016108739061222f565b600081815260086020819052604090912001546114d95760405162461bcd60e51b8152602060048201526019602482015278159bdd1a5b99c81c195c9a5bd9081b9bdd081cdd185c9d1959603a1b6044820152606401610873565b6000818152600860208190526040909120015442101561153b5760405162461bcd60e51b815260206004820152601760248201527f566f74696e6720706572696f64206e6f7420656e6465640000000000000000006044820152606401610873565b6000818152600860205260409020600681015460059091015411156115b2576000818152600860205260409020600401805460ff19166001908117909155611584908290611166565b60405181907f87c1c0e5cd17beb8c61a3337b32c66021cb179dd6f97d6d9ce923a029092bd4590600090a250565b6000818152600860205260408120600401805460ff191660021790556115d9908290611166565b60405181907f403fb997e937debea2e070ac9d2b3ba5e6772201bb88ee66b140480efa7f666190600090a25b50565b6040805160608082018352600080835260208301529181019190915260008281526008602090815260408083206002908101546001600160a01b03168452600b83528184208251606081018452815490950b855260018101548585015290810180548351818602810186018552818152929493860193830182828015610ef65760200282019190600052602060002090815481526020019060010190808311610ee2575050505050815250509050919050565b6000828152602081905260409020600101546116d68161197d565b610df48383611a19565b60008281526008602081905260409091200154829061173d5760405162461bcd60e51b8152602060048201526019602482015278159bdd1a5b99c81c195c9a5bd9081b9bdd081cdd185c9d1959603a1b6044820152606401610873565b6000818152600860208190526040909120015442106117945760405162461bcd60e51b8152602060048201526013602482015272159bdd1a5b99c81c195c9a5bd908195b991959606a1b6044820152606401610873565b600083815260096020908152604080832033845290915290205460ff16156117ee5760405162461bcd60e51b815260206004820152600d60248201526c105b1c9958591e481d9bdd1959609a1b6044820152606401610873565b60008381526009602090815260408083203384529091529020805460ff19166001179055811561185057600083815260086020526040812060050180549161183583612216565b90915550600084815260086020526040902060050155611884565b600083815260086020526040812060060180549161186d83612216565b909155506000848152600860205260409020600601555b60008381526008602052604081206007018054916118a183612216565b9091555060008481526008602090815260409182902060070192909255518315158152339185917fe71fcdac32df1877c1700e7bda2a03157e20993363a28fc35ac495cefc76e4d4910160405180910390a3505050565b611903600033611293565b61191f5760405162461bcd60e51b81526004016108739061222f565b6001600160a01b0382166000818152600a60209081526040808320805460ff191660ff8716179055519184900b82527fdba71613b365b4b8cc5a3a790cfa5a7879ee821a392279e2799ff0b97ae23288910160405180910390a25050565b6116058133611a84565b60006119938383611293565b611a11576000838152602081815260408083206001600160a01b03861684529091529020805460ff191660011790556119c93390565b6001600160a01b0316826001600160a01b0316847f2f8788117e7eff1d82e926ec794901d17c78024a50270940304540a733656f0d60405160405180910390a4506001610658565b506000610658565b6000611a258383611293565b15611a11576000838152602081815260408083206001600160a01b0386168085529252808320805460ff1916905551339286917ff6391f5c32d9c69d2a47ea670b442974b53935d1edc7fd64eb21e047a839171b9190a4506001610658565b611a8e8282611293565b611abd5760405163e2517d3f60e01b81526001600160a01b038216600482015260248101839052604401610873565b5050565b6040518060e00160405280606081526020016060815260200160006001600160a01b031681526020016000815260200160006002811115611b0457611b04611c2a565b8152602001611b2d60405180606001604052806000815260200160008152602001600081525090565b8152602001600081525090565b828054828255906000526020600020908101928215611b75579160200282015b82811115611b75578251825591602001919060010190611b5a565b50611b81929150611b85565b5090565b5b80821115611b815760008155600101611b86565b600060208284031215611bac57600080fd5b81356001600160e01b031981168114611bc457600080fd5b9392505050565b600060208284031215611bdd57600080fd5b5035919050565b6000815180845260005b81811015611c0a57602081850181015186830182015201611bee565b506000602082860101526020601f19601f83011685010191505092915050565b634e487b7160e01b600052602160045260246000fd5b60038110611c5e57634e487b7160e01b600052602160045260246000fd5b9052565b6020815260008251610120806020850152611c81610140850183611be4565b91506020850151601f19858403016040860152611c9e8382611be4565b92505060018060a01b036040860151166060850152606085015160808501526080850151611ccf60a0860182611c40565b5060a0850151805160c0860152602081015160e086015260408101516101008601525060c0949094015192909301919091525090565b80356001600160a01b0381168114611d1c57600080fd5b919050565b600060208284031215611d3357600080fd5b611bc482611d05565b6020808252825182820181905260009190848201906040850190845b81811015611d7457835183529284019291840191600101611d58565b50909695505050505050565b634e487b7160e01b600052604160045260246000fd5b60405160e0810167ffffffffffffffff81118282101715611db957611db9611d80565b60405290565b604051601f8201601f1916810167ffffffffffffffff81118282101715611de857611de8611d80565b604052919050565b600082601f830112611e0157600080fd5b813567ffffffffffffffff811115611e1b57611e1b611d80565b611e2e601f8201601f1916602001611dbf565b818152846020838601011115611e4357600080fd5b816020850160208301376000918101602001919091529392505050565b600080600060608486031215611e7557600080fd5b833567ffffffffffffffff80821115611e8d57600080fd5b611e9987838801611df0565b94506020860135915080821115611eaf57600080fd5b50611ebc86828701611df0565b925050604084013590509250925092565b60008060408385031215611ee057600080fd5b82359150611ef060208401611d05565b90509250929050565b6000602080835260808301845160000b82850152818501516040850152604085015160608086015281815180845260a0870191508483019350600092505b80831015611f575783518252928401926001929092019190840190611f37565b509695505050505050565b801515811461160557600080fd5b60008060408385031215611f8357600080fd5b823591506020830135611f9581611f62565b809150509250929050565b6000610120808352611fb48184018b611be4565b90508281036020840152611fc8818a611be4565b6001600160a01b0389166040850152606084018890529150611fef90506080830186611c40565b835160a0830152602084015160c083015260409093015160e0820152610100015295945050505050565b6000806040838503121561202c57600080fd5b61203583611d05565b915060208301358060000b8114611f9557600080fd5b600181811c9082168061205f57607f821691505b60208210810361207f57634e487b7160e01b600052602260045260246000fd5b50919050565b60006020828403121561209757600080fd5b5051919050565b6000602082840312156120b057600080fd5b8151611bc481611f62565b634e487b7160e01b600052601160045260246000fd5b80820180821115610658576106586120bb565b601f821115610e2d576000816000526020600020601f850160051c8101602086101561210d5750805b601f850160051c820191505b8181101561212c57828155600101612119565b505050505050565b815167ffffffffffffffff81111561214e5761214e611d80565b6121628161215c845461204b565b846120e4565b602080601f831160018114612197576000841561217f5750858301515b600019600386901b1c1916600185901b17855561212c565b600085815260208120601f198616915b828110156121c6578886015182559484019460019091019084016121a7565b50858210156121e45787850151600019600388901b60f8161c191681555b5050505050600190811b01905550565b6040815260006122076040830185611be4565b90508260208301529392505050565b600060018201612228576122286120bb565b5060010190565b6020808252600a908201526927b7363c9030b236b4b760b11b604082015260600190565b805163ffffffff81168114611d1c57600080fd5b600082601f83011261227857600080fd5b8151602067ffffffffffffffff82111561229457612294611d80565b8160051b6122a3828201611dbf565b92835284810182019282810190878511156122bd57600080fd5b83870192505b848310156122dc578251825291830191908301906122c3565b979650505050505050565b6000602082840312156122f957600080fd5b815167ffffffffffffffff8082111561231157600080fd5b9083019060e0828603121561232557600080fd5b61232d611d96565b825181526020830151602082015261234760408401612253565b6040820152606083015160608201526080830151608082015260a08301518281111561237257600080fd5b61237e87828601612267565b60a08301525060c08301518281111561239657600080fd5b6123a287828601612267565b60c08301525095945050505050565b6000602082840312156123c357600080fd5b815160ff81168114611bc457600080fd5b600181815b8085111561240f5781600019048211156123f5576123f56120bb565b8085161561240257918102915b93841c93908002906123d9565b509250929050565b60008261242657506001610658565b8161243357506000610658565b816001811461244957600281146124535761246f565b6001915050610658565b60ff841115612464576124646120bb565b50506001821b610658565b5060208310610133831016604e8410600b8410161715612492575081810a610658565b61249c83836123d4565b80600019048211156124b0576124b06120bb565b029392505050565b6000611bc460ff841683612417565b8082028115828204841417610658576106586120bb565b634e487b7160e01b600052603260045260246000fd5b600081810b9083900b01607f8113607f1982121715610658576106586120bb56fea2646970667358221220a46361488819378dd1175696fb8c8b13f73477c3fe7666d2e2759e0c664f37cb64736f6c63430008190033","linkReferences":{}},"methodIdentifiers":{"DEFAULT_ADMIN_ROLE()":"a217fddf","adjustReputation(uint256,bool)":"7204adc5","courses(uint256)":"96f979d2","creators(address)":"933166e1","finalizeCourse(uint256)":"aee398d5","getCourse(uint256)":"0b91e28d","getCourses(address)":"1b77648f","getCreator(uint256)":"d48e638a","getCreatorByAddress(address)":"4a0a0a1b","getCreatorNumberOfCourses(address)":"af115bf9","getCreatorReputation(address)":"dfb06750","getNumberOfCourses(address)":"ee750ac5","getReputation(address)":"9c89a0e2","getRoleAdmin(bytes32)":"248a9ca3","getVotingPeriod(address)":"5d1e4444","grantRole(bytes32,address)":"2f2ff15d","hasRole(bytes32,address)":"91d14854","hasVoted(uint256,address)":"43859632","maxSubmissionFee()":"50a42d4a","maxVotingPeriodsDuration()":"64149579","renounceRole(bytes32,address)":"36568abe","reputation(address)":"b9f79451","revokeRole(bytes32,address)":"d547741f","setSubmissionFee(uint256)":"6752071c","setVotingPeriodsDuration(uint256)":"4795060e","submissionFee()":"e8888942","submitCourse(string,string,uint256)":"2c1743be","supportsInterface(bytes4)":"01ffc9a7","totalCourses()":"87ac1860","trotelcoin()":"408bdb62","trotelcoinstaking()":"5b6be123","updateReputation(address,int8)":"f0bdff3b","updateTrotelCoin(address)":"6ec678eb","updateTrotelCoinStaking(address)":"7b62150c","voteCourse(uint256,bool)":"e610a28f","votes(uint256,address)":"d23254b4","votingPeriodsDuration(uint256)":"9b7b7348","withdrawFees(address)":"164e68de"},"id":0}