{"abi":[{"type":"constructor","inputs":[],"stateMutability":"nonpayable"},{"type":"function","name":"DEFAULT_ADMIN_ROLE","inputs":[],"outputs":[{"name":"","type":"bytes32","internalType":"bytes32"}],"stateMutability":"view"},{"type":"function","name":"DOMAIN_SEPARATOR","inputs":[],"outputs":[{"name":"","type":"bytes32","internalType":"bytes32"}],"stateMutability":"view"},{"type":"function","name":"MINTER_ROLE","inputs":[],"outputs":[{"name":"","type":"bytes32","internalType":"bytes32"}],"stateMutability":"view"},{"type":"function","name":"UPGRADER_ROLE","inputs":[],"outputs":[{"name":"","type":"bytes32","internalType":"bytes32"}],"stateMutability":"view"},{"type":"function","name":"UPGRADE_INTERFACE_VERSION","inputs":[],"outputs":[{"name":"","type":"string","internalType":"string"}],"stateMutability":"view"},{"type":"function","name":"allowance","inputs":[{"name":"owner","type":"address","internalType":"address"},{"name":"spender","type":"address","internalType":"address"}],"outputs":[{"name":"","type":"uint256","internalType":"uint256"}],"stateMutability":"view"},{"type":"function","name":"approve","inputs":[{"name":"spender","type":"address","internalType":"address"},{"name":"value","type":"uint256","internalType":"uint256"}],"outputs":[{"name":"","type":"bool","internalType":"bool"}],"stateMutability":"nonpayable"},{"type":"function","name":"balanceOf","inputs":[{"name":"account","type":"address","internalType":"address"}],"outputs":[{"name":"","type":"uint256","internalType":"uint256"}],"stateMutability":"view"},{"type":"function","name":"burn","inputs":[{"name":"value","type":"uint256","internalType":"uint256"}],"outputs":[],"stateMutability":"nonpayable"},{"type":"function","name":"burnFrom","inputs":[{"name":"account","type":"address","internalType":"address"},{"name":"value","type":"uint256","internalType":"uint256"}],"outputs":[],"stateMutability":"nonpayable"},{"type":"function","name":"decimals","inputs":[],"outputs":[{"name":"","type":"uint8","internalType":"uint8"}],"stateMutability":"view"},{"type":"function","name":"eip712Domain","inputs":[],"outputs":[{"name":"fields","type":"bytes1","internalType":"bytes1"},{"name":"name","type":"string","internalType":"string"},{"name":"version","type":"string","internalType":"string"},{"name":"chainId","type":"uint256","internalType":"uint256"},{"name":"verifyingContract","type":"address","internalType":"address"},{"name":"salt","type":"bytes32","internalType":"bytes32"},{"name":"extensions","type":"uint256[]","internalType":"uint256[]"}],"stateMutability":"view"},{"type":"function","name":"getRoleAdmin","inputs":[{"name":"role","type":"bytes32","internalType":"bytes32"}],"outputs":[{"name":"","type":"bytes32","internalType":"bytes32"}],"stateMutability":"view"},{"type":"function","name":"grantRole","inputs":[{"name":"role","type":"bytes32","internalType":"bytes32"},{"name":"account","type":"address","internalType":"address"}],"outputs":[],"stateMutability":"nonpayable"},{"type":"function","name":"hasRole","inputs":[{"name":"role","type":"bytes32","internalType":"bytes32"},{"name":"account","type":"address","internalType":"address"}],"outputs":[{"name":"","type":"bool","internalType":"bool"}],"stateMutability":"view"},{"type":"function","name":"initialize","inputs":[{"name":"defaultAdmin","type":"address","internalType":"address"},{"name":"minter","type":"address","internalType":"address"},{"name":"upgrader","type":"address","internalType":"address"}],"outputs":[],"stateMutability":"nonpayable"},{"type":"function","name":"mint","inputs":[{"name":"to","type":"address","internalType":"address"},{"name":"amount","type":"uint256","internalType":"uint256"}],"outputs":[],"stateMutability":"nonpayable"},{"type":"function","name":"name","inputs":[],"outputs":[{"name":"","type":"string","internalType":"string"}],"stateMutability":"view"},{"type":"function","name":"nonces","inputs":[{"name":"owner","type":"address","internalType":"address"}],"outputs":[{"name":"","type":"uint256","internalType":"uint256"}],"stateMutability":"view"},{"type":"function","name":"permit","inputs":[{"name":"owner","type":"address","internalType":"address"},{"name":"spender","type":"address","internalType":"address"},{"name":"value","type":"uint256","internalType":"uint256"},{"name":"deadline","type":"uint256","internalType":"uint256"},{"name":"v","type":"uint8","internalType":"uint8"},{"name":"r","type":"bytes32","internalType":"bytes32"},{"name":"s","type":"bytes32","internalType":"bytes32"}],"outputs":[],"stateMutability":"nonpayable"},{"type":"function","name":"proxiableUUID","inputs":[],"outputs":[{"name":"","type":"bytes32","internalType":"bytes32"}],"stateMutability":"view"},{"type":"function","name":"renounceRole","inputs":[{"name":"role","type":"bytes32","internalType":"bytes32"},{"name":"callerConfirmation","type":"address","internalType":"address"}],"outputs":[],"stateMutability":"nonpayable"},{"type":"function","name":"revokeRole","inputs":[{"name":"role","type":"bytes32","internalType":"bytes32"},{"name":"account","type":"address","internalType":"address"}],"outputs":[],"stateMutability":"nonpayable"},{"type":"function","name":"supportsInterface","inputs":[{"name":"interfaceId","type":"bytes4","internalType":"bytes4"}],"outputs":[{"name":"","type":"bool","internalType":"bool"}],"stateMutability":"view"},{"type":"function","name":"symbol","inputs":[],"outputs":[{"name":"","type":"string","internalType":"string"}],"stateMutability":"view"},{"type":"function","name":"totalSupply","inputs":[],"outputs":[{"name":"","type":"uint256","internalType":"uint256"}],"stateMutability":"view"},{"type":"function","name":"transfer","inputs":[{"name":"to","type":"address","internalType":"address"},{"name":"value","type":"uint256","internalType":"uint256"}],"outputs":[{"name":"","type":"bool","internalType":"bool"}],"stateMutability":"nonpayable"},{"type":"function","name":"transferFrom","inputs":[{"name":"from","type":"address","internalType":"address"},{"name":"to","type":"address","internalType":"address"},{"name":"value","type":"uint256","internalType":"uint256"}],"outputs":[{"name":"","type":"bool","internalType":"bool"}],"stateMutability":"nonpayable"},{"type":"function","name":"upgradeToAndCall","inputs":[{"name":"newImplementation","type":"address","internalType":"address"},{"name":"data","type":"bytes","internalType":"bytes"}],"outputs":[],"stateMutability":"payable"},{"type":"event","name":"Approval","inputs":[{"name":"owner","type":"address","indexed":true,"internalType":"address"},{"name":"spender","type":"address","indexed":true,"internalType":"address"},{"name":"value","type":"uint256","indexed":false,"internalType":"uint256"}],"anonymous":false},{"type":"event","name":"EIP712DomainChanged","inputs":[],"anonymous":false},{"type":"event","name":"Initialized","inputs":[{"name":"version","type":"uint64","indexed":false,"internalType":"uint64"}],"anonymous":false},{"type":"event","name":"RoleAdminChanged","inputs":[{"name":"role","type":"bytes32","indexed":true,"internalType":"bytes32"},{"name":"previousAdminRole","type":"bytes32","indexed":true,"internalType":"bytes32"},{"name":"newAdminRole","type":"bytes32","indexed":true,"internalType":"bytes32"}],"anonymous":false},{"type":"event","name":"RoleGranted","inputs":[{"name":"role","type":"bytes32","indexed":true,"internalType":"bytes32"},{"name":"account","type":"address","indexed":true,"internalType":"address"},{"name":"sender","type":"address","indexed":true,"internalType":"address"}],"anonymous":false},{"type":"event","name":"RoleRevoked","inputs":[{"name":"role","type":"bytes32","indexed":true,"internalType":"bytes32"},{"name":"account","type":"address","indexed":true,"internalType":"address"},{"name":"sender","type":"address","indexed":true,"internalType":"address"}],"anonymous":false},{"type":"event","name":"Transfer","inputs":[{"name":"from","type":"address","indexed":true,"internalType":"address"},{"name":"to","type":"address","indexed":true,"internalType":"address"},{"name":"value","type":"uint256","indexed":false,"internalType":"uint256"}],"anonymous":false},{"type":"event","name":"Upgraded","inputs":[{"name":"implementation","type":"address","indexed":true,"internalType":"address"}],"anonymous":false},{"type":"error","name":"AccessControlBadConfirmation","inputs":[]},{"type":"error","name":"AccessControlUnauthorizedAccount","inputs":[{"name":"account","type":"address","internalType":"address"},{"name":"neededRole","type":"bytes32","internalType":"bytes32"}]},{"type":"error","name":"AddressEmptyCode","inputs":[{"name":"target","type":"address","internalType":"address"}]},{"type":"error","name":"ECDSAInvalidSignature","inputs":[]},{"type":"error","name":"ECDSAInvalidSignatureLength","inputs":[{"name":"length","type":"uint256","internalType":"uint256"}]},{"type":"error","name":"ECDSAInvalidSignatureS","inputs":[{"name":"s","type":"bytes32","internalType":"bytes32"}]},{"type":"error","name":"ERC1967InvalidImplementation","inputs":[{"name":"implementation","type":"address","internalType":"address"}]},{"type":"error","name":"ERC1967NonPayable","inputs":[]},{"type":"error","name":"ERC20InsufficientAllowance","inputs":[{"name":"spender","type":"address","internalType":"address"},{"name":"allowance","type":"uint256","internalType":"uint256"},{"name":"needed","type":"uint256","internalType":"uint256"}]},{"type":"error","name":"ERC20InsufficientBalance","inputs":[{"name":"sender","type":"address","internalType":"address"},{"name":"balance","type":"uint256","internalType":"uint256"},{"name":"needed","type":"uint256","internalType":"uint256"}]},{"type":"error","name":"ERC20InvalidApprover","inputs":[{"name":"approver","type":"address","internalType":"address"}]},{"type":"error","name":"ERC20InvalidReceiver","inputs":[{"name":"receiver","type":"address","internalType":"address"}]},{"type":"error","name":"ERC20InvalidSender","inputs":[{"name":"sender","type":"address","internalType":"address"}]},{"type":"error","name":"ERC20InvalidSpender","inputs":[{"name":"spender","type":"address","internalType":"address"}]},{"type":"error","name":"ERC2612ExpiredSignature","inputs":[{"name":"deadline","type":"uint256","internalType":"uint256"}]},{"type":"error","name":"ERC2612InvalidSigner","inputs":[{"name":"signer","type":"address","internalType":"address"},{"name":"owner","type":"address","internalType":"address"}]},{"type":"error","name":"FailedInnerCall","inputs":[]},{"type":"error","name":"InvalidAccountNonce","inputs":[{"name":"account","type":"address","internalType":"address"},{"name":"currentNonce","type":"uint256","internalType":"uint256"}]},{"type":"error","name":"InvalidInitialization","inputs":[]},{"type":"error","name":"NotInitializing","inputs":[]},{"type":"error","name":"UUPSUnauthorizedCallContext","inputs":[]},{"type":"error","name":"UUPSUnsupportedProxiableUUID","inputs":[{"name":"slot","type":"bytes32","internalType":"bytes32"}]}],"bytecode":{"object":"0x60a06040523060805234801561001457600080fd5b5061001d610022565b6100d4565b7ff0c57e16840df040f15088dc2f81fe391c3923bec73e23a9662efc9c229c6a00805468010000000000000000900460ff16156100725760405163f92ee8a960e01b815260040160405180910390fd5b80546001600160401b03908116146100d15780546001600160401b0319166001600160401b0390811782556040519081527fc7f505b2f371ae2175ee4913f4499e1f2633a7b5936321eed1cdaeb6115181d29060200160405180910390a15b50565b6080516121a66100fd60003960008181610fa301528181610fcc015261113101526121a66000f3fe6080604052600436106101c25760003560e01c806370a08231116100f7578063a9059cbb11610095578063d539139311610064578063d5391393146104fa578063d547741f1461052e578063dd62ed3e1461054e578063f72c0d8b1461056e57600080fd5b8063a9059cbb14610469578063ad3cb1cc14610489578063c0c53b8b146104ba578063d505accf146104da57600080fd5b806384b0196e116100d157806384b0196e146103f757806391d148541461041f57806395d89b411461043f578063a217fddf1461045457600080fd5b806370a082311461039757806379cc6790146103b75780637ecebe00146103d757600080fd5b8063313ce5671161016457806340c10f191161013e57806340c10f191461032f57806342966c681461034f5780634f1ef2861461036f57806352d1902d1461038257600080fd5b8063313ce567146102de5780633644e515146102fa57806336568abe1461030f57600080fd5b806318160ddd116101a057806318160ddd1461023e57806323b872dd1461027c578063248a9ca31461029c5780632f2ff15d146102bc57600080fd5b806301ffc9a7146101c757806306fdde03146101fc578063095ea7b31461021e575b600080fd5b3480156101d357600080fd5b506101e76101e2366004611a68565b6105a2565b60405190151581526020015b60405180910390f35b34801561020857600080fd5b506102116105d9565b6040516101f39190611ae2565b34801561022a57600080fd5b506101e7610239366004611b11565b610682565b34801561024a57600080fd5b507f52c63247e1f47db19d5ce0460030c497f067ca4cebf71ba98eeadabe20bace02545b6040519081526020016101f3565b34801561028857600080fd5b506101e7610297366004611b3b565b61069a565b3480156102a857600080fd5b5061026e6102b7366004611b77565b6106c0565b3480156102c857600080fd5b506102dc6102d7366004611b90565b6106e2565b005b3480156102ea57600080fd5b50604051601281526020016101f3565b34801561030657600080fd5b5061026e610704565b34801561031b57600080fd5b506102dc61032a366004611b90565b610713565b34801561033b57600080fd5b506102dc61034a366004611b11565b61074b565b34801561035b57600080fd5b506102dc61036a366004611b77565b61077f565b6102dc61037d366004611bd2565b61078c565b34801561038e57600080fd5b5061026e6107ab565b3480156103a357600080fd5b5061026e6103b2366004611c94565b6107c8565b3480156103c357600080fd5b506102dc6103d2366004611b11565b6107fb565b3480156103e357600080fd5b5061026e6103f2366004611c94565b610810565b34801561040357600080fd5b5061040c61081b565b6040516101f39796959493929190611caf565b34801561042b57600080fd5b506101e761043a366004611b90565b6108cc565b34801561044b57600080fd5b50610211610904565b34801561046057600080fd5b5061026e600081565b34801561047557600080fd5b506101e7610484366004611b11565b610943565b34801561049557600080fd5b50610211604051806040016040528060058152602001640352e302e360dc1b81525081565b3480156104c657600080fd5b506102dc6104d5366004611d48565b610951565b3480156104e657600080fd5b506102dc6104f5366004611d8b565b610b6c565b34801561050657600080fd5b5061026e7f9f2df0fed2c77648de5860a4cc508cd0818c85b8b8a1ab4ceeef8d981c8956a681565b34801561053a57600080fd5b506102dc610549366004611b90565b610cc5565b34801561055a57600080fd5b5061026e610569366004611dfe565b610ce1565b34801561057a57600080fd5b5061026e7f189ab7a9244df0848122154315af71fe140f3db0fe014031783b0946b8c9d2e381565b60006001600160e01b03198216637965db0b60e01b14806105d357506301ffc9a760e01b6001600160e01b03198316145b92915050565b606060006000805160206120f18339815191525b90508060030180546105fe90611e28565b80601f016020809104026020016040519081016040528092919081815260200182805461062a90611e28565b80156106775780601f1061064c57610100808354040283529160200191610677565b820191906000526020600020905b81548152906001019060200180831161065a57829003601f168201915b505050505091505090565b600033610690818585610d2b565b5060019392505050565b6000336106a8858285610d38565b6106b3858585610d98565b60019150505b9392505050565b6000908152600080516020612151833981519152602052604090206001015490565b6106eb826106c0565b6106f481610df7565b6106fe8383610e01565b50505050565b600061070e610ea6565b905090565b6001600160a01b038116331461073c5760405163334bd91960e11b815260040160405180910390fd5b6107468282610eb0565b505050565b7f9f2df0fed2c77648de5860a4cc508cd0818c85b8b8a1ab4ceeef8d981c8956a661077581610df7565b6107468383610f2c565b6107893382610f62565b50565b610794610f98565b61079d8261103f565b6107a78282611069565b5050565b60006107b5611126565b5060008051602061213183398151915290565b6000806000805160206120f18339815191525b6001600160a01b0390931660009081526020939093525050604090205490565b610806823383610d38565b6107a78282610f62565b60006105d38261116f565b60006060808280808381600080516020612111833981519152805490915015801561084857506001810154155b6108915760405162461bcd60e51b81526020600482015260156024820152741152540dcc4c8e88155b9a5b9a5d1a585b1a5e9959605a1b60448201526064015b60405180910390fd5b610899611198565b6108a16111d7565b60408051600080825260208201909252600f60f81b9c939b5091995046985030975095509350915050565b6000918252600080516020612151833981519152602090815260408084206001600160a01b0393909316845291905290205460ff1690565b7f52c63247e1f47db19d5ce0460030c497f067ca4cebf71ba98eeadabe20bace0480546060916000805160206120f1833981519152916105fe90611e28565b600033610690818585610d98565b7ff0c57e16840df040f15088dc2f81fe391c3923bec73e23a9662efc9c229c6a008054600160401b810460ff16159067ffffffffffffffff166000811580156109975750825b905060008267ffffffffffffffff1660011480156109b45750303b155b9050811580156109c2575080155b156109e05760405163f92ee8a960e01b815260040160405180910390fd5b845467ffffffffffffffff191660011785558315610a0a57845460ff60401b1916600160401b1785555b610a546040518060400160405280600a8152602001692a3937ba32b621b7b4b760b11b81525060405180604001604052806006815260200165151493d5115360d21b8152506111ef565b610a5c611201565b610a64611201565b610a8f6040518060400160405280600a8152602001692a3937ba32b621b7b4b760b11b815250611209565b610a97611201565b610aba33610aa76012600a611f5c565b610ab5906305f5e100611f6b565b610f2c565b610ac5600089610e01565b50610af07f9f2df0fed2c77648de5860a4cc508cd0818c85b8b8a1ab4ceeef8d981c8956a688610e01565b50610b1b7f189ab7a9244df0848122154315af71fe140f3db0fe014031783b0946b8c9d2e387610e01565b508315610b6257845460ff60401b19168555604051600181527fc7f505b2f371ae2175ee4913f4499e1f2633a7b5936321eed1cdaeb6115181d29060200160405180910390a15b5050505050505050565b83421115610b905760405163313c898160e11b815260048101859052602401610888565b60007f6e71edae12b1b97f4d1f60370fef10105fa2faae0126114a169c64845d6126c9888888610bfc8c6001600160a01b031660009081527f5ab42ced628888259c08ac98db1eb0cf702fc1501344311d8b100cd1bfe4bb006020526040902080546001810190915590565b6040805160208101969096526001600160a01b0394851690860152929091166060840152608083015260a082015260c0810186905260e0016040516020818303038152906040528051906020012090506000610c5782611234565b90506000610c6782878787611261565b9050896001600160a01b0316816001600160a01b031614610cae576040516325c0072360e11b81526001600160a01b0380831660048301528b166024820152604401610888565b610cb98a8a8a610d2b565b50505050505050505050565b610cce826106c0565b610cd781610df7565b6106fe8383610eb0565b6001600160a01b0391821660009081527f52c63247e1f47db19d5ce0460030c497f067ca4cebf71ba98eeadabe20bace016020908152604080832093909416825291909152205490565b610746838383600161128f565b6000610d448484610ce1565b905060001981146106fe5781811015610d8957604051637dc7a0d960e11b81526001600160a01b03841660048201526024810182905260448101839052606401610888565b6106fe8484848403600061128f565b6001600160a01b038316610dc257604051634b637e8f60e11b815260006004820152602401610888565b6001600160a01b038216610dec5760405163ec442f0560e01b815260006004820152602401610888565b610746838383611377565b61078981336114b5565b6000600080516020612151833981519152610e1c84846108cc565b610e9c576000848152602082815260408083206001600160a01b03871684529091529020805460ff19166001179055610e523390565b6001600160a01b0316836001600160a01b0316857f2f8788117e7eff1d82e926ec794901d17c78024a50270940304540a733656f0d60405160405180910390a460019150506105d3565b60009150506105d3565b600061070e6114ee565b6000600080516020612151833981519152610ecb84846108cc565b15610e9c576000848152602082815260408083206001600160a01b0387168085529252808320805460ff1916905551339287917ff6391f5c32d9c69d2a47ea670b442974b53935d1edc7fd64eb21e047a839171b9190a460019150506105d3565b6001600160a01b038216610f565760405163ec442f0560e01b815260006004820152602401610888565b6107a760008383611377565b6001600160a01b038216610f8c57604051634b637e8f60e11b815260006004820152602401610888565b6107a782600083611377565b306001600160a01b037f000000000000000000000000000000000000000000000000000000000000000016148061101f57507f00000000000000000000000000000000000000000000000000000000000000006001600160a01b0316611013600080516020612131833981519152546001600160a01b031690565b6001600160a01b031614155b1561103d5760405163703e46dd60e11b815260040160405180910390fd5b565b7f189ab7a9244df0848122154315af71fe140f3db0fe014031783b0946b8c9d2e36107a781610df7565b816001600160a01b03166352d1902d6040518163ffffffff1660e01b8152600401602060405180830381865afa9250505080156110c3575060408051601f3d908101601f191682019092526110c091810190611f82565b60015b6110eb57604051634c9c8ce360e01b81526001600160a01b0383166004820152602401610888565b600080516020612131833981519152811461111c57604051632a87526960e21b815260048101829052602401610888565b6107468383611562565b306001600160a01b037f0000000000000000000000000000000000000000000000000000000000000000161461103d5760405163703e46dd60e11b815260040160405180910390fd5b6000807f5ab42ced628888259c08ac98db1eb0cf702fc1501344311d8b100cd1bfe4bb006107db565b7fa16a46d94261c7517cc8ff89f61c0ce93598e3c849801011dee649a6a557d1028054606091600080516020612111833981519152916105fe90611e28565b606060006000805160206121118339815191526105ed565b6111f76115b8565b6107a78282611601565b61103d6115b8565b6112116115b8565b61078981604051806040016040528060018152602001603160f81b815250611652565b60006105d3611241610ea6565b8360405161190160f01b8152600281019290925260228201526042902090565b600080600080611273888888886116b3565b9250925092506112838282611782565b50909695505050505050565b6000805160206120f18339815191526001600160a01b0385166112c85760405163e602df0560e01b815260006004820152602401610888565b6001600160a01b0384166112f257604051634a1406b160e11b815260006004820152602401610888565b6001600160a01b0380861660009081526001830160209081526040808320938816835292905220839055811561137057836001600160a01b0316856001600160a01b03167f8c5be1e5ebec7d5bd14f71427d1e84f3dd0314c0f7b2291e5b200ac8c7c3b9258560405161136791815260200190565b60405180910390a35b5050505050565b6000805160206120f18339815191526001600160a01b0384166113b357818160020160008282546113a89190611f9b565b909155506114259050565b6001600160a01b038416600090815260208290526040902054828110156114065760405163391434e360e21b81526001600160a01b03861660048201526024810182905260448101849052606401610888565b6001600160a01b03851660009081526020839052604090209083900390555b6001600160a01b038316611443576002810180548390039055611462565b6001600160a01b03831660009081526020829052604090208054830190555b826001600160a01b0316846001600160a01b03167fddf252ad1be2c89b69c2b068fc378daa952ba7f163c4a11628f55a4df523b3ef846040516114a791815260200190565b60405180910390a350505050565b6114bf82826108cc565b6107a75760405163e2517d3f60e01b81526001600160a01b038216600482015260248101839052604401610888565b60007f8b73c3c69bb8fe3d512ecc4cf759cc79239f7b179b0ffacaa9a75d522b39400f61151961183b565b6115216118a5565b60408051602081019490945283019190915260608201524660808201523060a082015260c00160405160208183030381529060405280519060200120905090565b61156b826118e9565b6040516001600160a01b038316907fbc7cd75a20ee27fd9adebab32041f755214dbc6bffa90cc0225b39da2e5c2d3b90600090a28051156115b057610746828261194e565b6107a76119c4565b7ff0c57e16840df040f15088dc2f81fe391c3923bec73e23a9662efc9c229c6a0054600160401b900460ff1661103d57604051631afcd79f60e31b815260040160405180910390fd5b6116096115b8565b6000805160206120f18339815191527f52c63247e1f47db19d5ce0460030c497f067ca4cebf71ba98eeadabe20bace036116438482611ffe565b50600481016106fe8382611ffe565b61165a6115b8565b6000805160206121118339815191527fa16a46d94261c7517cc8ff89f61c0ce93598e3c849801011dee649a6a557d1026116948482611ffe565b50600381016116a38382611ffe565b5060008082556001909101555050565b600080807f7fffffffffffffffffffffffffffffff5d576e7357a4501ddfe92f46681b20a08411156116ee5750600091506003905082611778565b604080516000808252602082018084528a905260ff891692820192909252606081018790526080810186905260019060a0016020604051602081039080840390855afa158015611742573d6000803e3d6000fd5b5050604051601f1901519150506001600160a01b03811661176e57506000925060019150829050611778565b9250600091508190505b9450945094915050565b6000826003811115611796576117966120be565b0361179f575050565b60018260038111156117b3576117b36120be565b036117d15760405163f645eedf60e01b815260040160405180910390fd5b60028260038111156117e5576117e56120be565b036118065760405163fce698f760e01b815260048101829052602401610888565b600382600381111561181a5761181a6120be565b036107a7576040516335e2f38360e21b815260048101829052602401610888565b600060008051602061211183398151915281611855611198565b80519091501561186d57805160209091012092915050565b8154801561187c579392505050565b7fc5d2460186f7233c927e7db2dcc703c0e500b653ca82273b7bfad8045d85a470935050505090565b6000600080516020612111833981519152816118bf6111d7565b8051909150156118d757805160209091012092915050565b6001820154801561187c579392505050565b806001600160a01b03163b60000361191f57604051634c9c8ce360e01b81526001600160a01b0382166004820152602401610888565b60008051602061213183398151915280546001600160a01b0319166001600160a01b0392909216919091179055565b6060600080846001600160a01b03168460405161196b91906120d4565b600060405180830381855af49150503d80600081146119a6576040519150601f19603f3d011682016040523d82523d6000602084013e6119ab565b606091505b50915091506119bb8583836119e3565b95945050505050565b341561103d5760405163b398979f60e01b815260040160405180910390fd5b6060826119f8576119f382611a3f565b6106b9565b8151158015611a0f57506001600160a01b0384163b155b15611a3857604051639996b31560e01b81526001600160a01b0385166004820152602401610888565b50806106b9565b805115611a4f5780518082602001fd5b604051630a12f52160e11b815260040160405180910390fd5b600060208284031215611a7a57600080fd5b81356001600160e01b0319811681146106b957600080fd5b60005b83811015611aad578181015183820152602001611a95565b50506000910152565b60008151808452611ace816020860160208601611a92565b601f01601f19169290920160200192915050565b6020815260006106b96020830184611ab6565b80356001600160a01b0381168114611b0c57600080fd5b919050565b60008060408385031215611b2457600080fd5b611b2d83611af5565b946020939093013593505050565b600080600060608486031215611b5057600080fd5b611b5984611af5565b9250611b6760208501611af5565b9150604084013590509250925092565b600060208284031215611b8957600080fd5b5035919050565b60008060408385031215611ba357600080fd5b82359150611bb360208401611af5565b90509250929050565b634e487b7160e01b600052604160045260246000fd5b60008060408385031215611be557600080fd5b611bee83611af5565b9150602083013567ffffffffffffffff80821115611c0b57600080fd5b818501915085601f830112611c1f57600080fd5b813581811115611c3157611c31611bbc565b604051601f8201601f19908116603f01168101908382118183101715611c5957611c59611bbc565b81604052828152886020848701011115611c7257600080fd5b8260208601602083013760006020848301015280955050505050509250929050565b600060208284031215611ca657600080fd5b6106b982611af5565b60ff60f81b881681526000602060e06020840152611cd060e084018a611ab6565b8381036040850152611ce2818a611ab6565b606085018990526001600160a01b038816608086015260a0850187905284810360c08601528551808252602080880193509091019060005b81811015611d3657835183529284019291840191600101611d1a565b50909c9b505050505050505050505050565b600080600060608486031215611d5d57600080fd5b611d6684611af5565b9250611d7460208501611af5565b9150611d8260408501611af5565b90509250925092565b600080600080600080600060e0888a031215611da657600080fd5b611daf88611af5565b9650611dbd60208901611af5565b95506040880135945060608801359350608088013560ff81168114611de157600080fd5b9699959850939692959460a0840135945060c09093013592915050565b60008060408385031215611e1157600080fd5b611e1a83611af5565b9150611bb360208401611af5565b600181811c90821680611e3c57607f821691505b602082108103611e5c57634e487b7160e01b600052602260045260246000fd5b50919050565b634e487b7160e01b600052601160045260246000fd5b600181815b80851115611eb3578160001904821115611e9957611e99611e62565b80851615611ea657918102915b93841c9390800290611e7d565b509250929050565b600082611eca575060016105d3565b81611ed7575060006105d3565b8160018114611eed5760028114611ef757611f13565b60019150506105d3565b60ff841115611f0857611f08611e62565b50506001821b6105d3565b5060208310610133831016604e8410600b8410161715611f36575081810a6105d3565b611f408383611e78565b8060001904821115611f5457611f54611e62565b029392505050565b60006106b960ff841683611ebb565b80820281158282048414176105d3576105d3611e62565b600060208284031215611f9457600080fd5b5051919050565b808201808211156105d3576105d3611e62565b601f821115610746576000816000526020600020601f850160051c81016020861015611fd75750805b601f850160051c820191505b81811015611ff657828155600101611fe3565b505050505050565b815167ffffffffffffffff81111561201857612018611bbc565b61202c816120268454611e28565b84611fae565b602080601f83116001811461206157600084156120495750858301515b600019600386901b1c1916600185901b178555611ff6565b600085815260208120601f198616915b8281101561209057888601518255948401946001909101908401612071565b50858210156120ae5787850151600019600388901b60f8161c191681555b5050505050600190811b01905550565b634e487b7160e01b600052602160045260246000fd5b600082516120e6818460208701611a92565b919091019291505056fe52c63247e1f47db19d5ce0460030c497f067ca4cebf71ba98eeadabe20bace00a16a46d94261c7517cc8ff89f61c0ce93598e3c849801011dee649a6a557d100360894a13ba1a3210667c828492db98dca3e2076cc3735a920a3ca505d382bbc02dd7bc7dec4dceedda775e58dd541e08a116c6c53815c0bd028192f7b626800a2646970667358221220c9ecc3900cf881ab4e055650410aa30661471a1bdf2e34be793e2961280f8a2464736f6c63430008190033","linkReferences":{}},"methodIdentifiers":{"DEFAULT_ADMIN_ROLE()":"a217fddf","DOMAIN_SEPARATOR()":"3644e515","MINTER_ROLE()":"d5391393","UPGRADER_ROLE()":"f72c0d8b","UPGRADE_INTERFACE_VERSION()":"ad3cb1cc","allowance(address,address)":"dd62ed3e","approve(address,uint256)":"095ea7b3","balanceOf(address)":"70a08231","burn(uint256)":"42966c68","burnFrom(address,uint256)":"79cc6790","decimals()":"313ce567","eip712Domain()":"84b0196e","getRoleAdmin(bytes32)":"248a9ca3","grantRole(bytes32,address)":"2f2ff15d","hasRole(bytes32,address)":"91d14854","initialize(address,address,address)":"c0c53b8b","mint(address,uint256)":"40c10f19","name()":"06fdde03","nonces(address)":"7ecebe00","permit(address,address,uint256,uint256,uint8,bytes32,bytes32)":"d505accf","proxiableUUID()":"52d1902d","renounceRole(bytes32,address)":"36568abe","revokeRole(bytes32,address)":"d547741f","supportsInterface(bytes4)":"01ffc9a7","symbol()":"95d89b41","totalSupply()":"18160ddd","transfer(address,uint256)":"a9059cbb","transferFrom(address,address,uint256)":"23b872dd","upgradeToAndCall(address,bytes)":"4f1ef286"},"id":5}