{"abi":[{"type":"constructor","inputs":[{"name":"_defaultAdmin","type":"address","internalType":"address"},{"name":"_upgrader","type":"address","internalType":"address"},{"name":"_trotelToken","type":"address","internalType":"address"}],"stateMutability":"nonpayable"},{"type":"function","name":"DEFAULT_ADMIN_ROLE","inputs":[],"outputs":[{"name":"","type":"bytes32","internalType":"bytes32"}],"stateMutability":"view"},{"type":"function","name":"UPGRADER_ROLE","inputs":[],"outputs":[{"name":"","type":"bytes32","internalType":"bytes32"}],"stateMutability":"view"},{"type":"function","name":"fiveMinutes","inputs":[],"outputs":[{"name":"","type":"uint256","internalType":"uint256"}],"stateMutability":"view"},{"type":"function","name":"getRoleAdmin","inputs":[{"name":"role","type":"bytes32","internalType":"bytes32"}],"outputs":[{"name":"","type":"bytes32","internalType":"bytes32"}],"stateMutability":"view"},{"type":"function","name":"getUserStakingDetails","inputs":[{"name":"user","type":"address","internalType":"address"}],"outputs":[{"name":"","type":"uint256","internalType":"uint256"},{"name":"","type":"uint256","internalType":"uint256"}],"stateMutability":"view"},{"type":"function","name":"grantRole","inputs":[{"name":"role","type":"bytes32","internalType":"bytes32"},{"name":"account","type":"address","internalType":"address"}],"outputs":[],"stateMutability":"nonpayable"},{"type":"function","name":"hasRole","inputs":[{"name":"role","type":"bytes32","internalType":"bytes32"},{"name":"account","type":"address","internalType":"address"}],"outputs":[{"name":"","type":"bool","internalType":"bool"}],"stateMutability":"view"},{"type":"function","name":"oneYear","inputs":[],"outputs":[{"name":"","type":"uint256","internalType":"uint256"}],"stateMutability":"view"},{"type":"function","name":"renounceRole","inputs":[{"name":"role","type":"bytes32","internalType":"bytes32"},{"name":"callerConfirmation","type":"address","internalType":"address"}],"outputs":[],"stateMutability":"nonpayable"},{"type":"function","name":"revokeRole","inputs":[{"name":"role","type":"bytes32","internalType":"bytes32"},{"name":"account","type":"address","internalType":"address"}],"outputs":[],"stateMutability":"nonpayable"},{"type":"function","name":"sixMonths","inputs":[],"outputs":[{"name":"","type":"uint256","internalType":"uint256"}],"stateMutability":"view"},{"type":"function","name":"stake","inputs":[{"name":"amount","type":"uint256","internalType":"uint256"},{"name":"duration","type":"uint256","internalType":"uint256"}],"outputs":[],"stateMutability":"nonpayable"},{"type":"function","name":"stakingPeriods","inputs":[{"name":"","type":"uint256","internalType":"uint256"}],"outputs":[{"name":"","type":"uint256","internalType":"uint256"}],"stateMutability":"view"},{"type":"function","name":"stakings","inputs":[{"name":"","type":"address","internalType":"address"}],"outputs":[{"name":"amount","type":"uint256","internalType":"uint256"},{"name":"startTime","type":"uint256","internalType":"uint256"},{"name":"duration","type":"uint256","internalType":"uint256"}],"stateMutability":"view"},{"type":"function","name":"supportsInterface","inputs":[{"name":"interfaceId","type":"bytes4","internalType":"bytes4"}],"outputs":[{"name":"","type":"bool","internalType":"bool"}],"stateMutability":"view"},{"type":"function","name":"thirstyDays","inputs":[],"outputs":[{"name":"","type":"uint256","internalType":"uint256"}],"stateMutability":"view"},{"type":"function","name":"threeMonths","inputs":[],"outputs":[{"name":"","type":"uint256","internalType":"uint256"}],"stateMutability":"view"},{"type":"function","name":"trotelToken","inputs":[],"outputs":[{"name":"","type":"address","internalType":"contract TrotelCoin"}],"stateMutability":"view"},{"type":"function","name":"unstake","inputs":[],"outputs":[],"stateMutability":"nonpayable"},{"type":"event","name":"Initialized","inputs":[{"name":"version","type":"uint64","indexed":false,"internalType":"uint64"}],"anonymous":false},{"type":"event","name":"RoleAdminChanged","inputs":[{"name":"role","type":"bytes32","indexed":true,"internalType":"bytes32"},{"name":"previousAdminRole","type":"bytes32","indexed":true,"internalType":"bytes32"},{"name":"newAdminRole","type":"bytes32","indexed":true,"internalType":"bytes32"}],"anonymous":false},{"type":"event","name":"RoleGranted","inputs":[{"name":"role","type":"bytes32","indexed":true,"internalType":"bytes32"},{"name":"account","type":"address","indexed":true,"internalType":"address"},{"name":"sender","type":"address","indexed":true,"internalType":"address"}],"anonymous":false},{"type":"event","name":"RoleRevoked","inputs":[{"name":"role","type":"bytes32","indexed":true,"internalType":"bytes32"},{"name":"account","type":"address","indexed":true,"internalType":"address"},{"name":"sender","type":"address","indexed":true,"internalType":"address"}],"anonymous":false},{"type":"event","name":"Staked","inputs":[{"name":"user","type":"address","indexed":true,"internalType":"address"},{"name":"amount","type":"uint256","indexed":false,"internalType":"uint256"},{"name":"duration","type":"uint256","indexed":false,"internalType":"uint256"}],"anonymous":false},{"type":"event","name":"Unstaked","inputs":[{"name":"user","type":"address","indexed":true,"internalType":"address"},{"name":"amount","type":"uint256","indexed":false,"internalType":"uint256"},{"name":"rewards","type":"uint256","indexed":false,"internalType":"uint256"}],"anonymous":false},{"type":"error","name":"AccessControlBadConfirmation","inputs":[]},{"type":"error","name":"AccessControlUnauthorizedAccount","inputs":[{"name":"account","type":"address","internalType":"address"},{"name":"neededRole","type":"bytes32","internalType":"bytes32"}]},{"type":"error","name":"InvalidInitialization","inputs":[]},{"type":"error","name":"NotInitializing","inputs":[]}],"bytecode":{"object":"0x608060405262278d006004556277f88060055562eff1006006556301e1338060075561012c60085534801561003357600080fd5b50604051610dca380380610dca83398101604081905261005291610237565b61005d60008461016f565b506100887f189ab7a9244df0848122154315af71fe140f3db0fe014031783b0946b8c9d2e38361016f565b50600280546001600160a01b0319166001600160a01b03929092169190911790555050600360208190527f088aab27fb2d2799e31fa393824fe216196a49fc27b39913450798eb702f196c5560067f96969103e822e0e947d6832818408304f963a4290d2e0c4166bbd7b3b4009f8455600a7fb40ea04fa8b2ad21f9cf922a9056c52b28df50646d2fe3846b19b97d0a06018155600f7f42792e04ade73599c164d1618add98dbd7f5c73bae7634123a66cb0d04ac4fc55561012c60009081527fa4decfbe94dc7f8f9dc9b3f5cb03517599ba54b362d013c1d15fd7ce6589fcee5561027a565b6000828152602081815260408083206001600160a01b038516845290915281205460ff16610211576000838152602081815260408083206001600160a01b03861684529091529020805460ff191660011790556101c93390565b6001600160a01b0316826001600160a01b0316847f2f8788117e7eff1d82e926ec794901d17c78024a50270940304540a733656f0d60405160405180910390a4506001610215565b5060005b92915050565b80516001600160a01b038116811461023257600080fd5b919050565b60008060006060848603121561024c57600080fd5b6102558461021b565b92506102636020850161021b565b91506102716040850161021b565b90509250925092565b610b41806102896000396000f3fe608060405234801561001057600080fd5b50600436106101215760003560e01c806391d14854116100ad578063f27c3bf611610071578063f27c3bf614610274578063f72c0d8b1461027d578063f93f3b63146102a4578063f9a88247146102cc578063fd4608a9146102d557600080fd5b806391d14854146101f4578063a217fddf14610207578063c95e40071461020f578063d547741f14610218578063dc6e13e11461022b57600080fd5b806336568abe116100f457806336568abe1461019c57806356d4de6e146101af5780635f695e87146101b85780637b0472f0146101c15780638af92c93146101d457600080fd5b806301ffc9a714610126578063248a9ca31461014e5780632def66201461017f5780632f2ff15d14610189575b600080fd5b6101396101343660046109a5565b610300565b60405190151581526020015b60405180910390f35b61017161015c3660046109d6565b60009081526020819052604090206001015490565b604051908152602001610145565b610187610337565b005b610187610197366004610a0b565b610563565b6101876101aa366004610a0b565b61058e565b61017160085481565b61017160065481565b6101876101cf366004610a37565b6105c6565b6101716101e23660046109d6565b60036020526000908152604090205481565b610139610202366004610a0b565b610786565b610171600081565b61017160055481565b610187610226366004610a0b565b6107af565b610259610239366004610a59565b600160208190526000918252604090912080549181015460029091015483565b60408051938452602084019290925290820152606001610145565b61017160075481565b6101717f189ab7a9244df0848122154315af71fe140f3db0fe014031783b0946b8c9d2e381565b6102b76102b2366004610a59565b6107d4565b60408051928352602083019190915201610145565b61017160045481565b6002546102e8906001600160a01b031681565b6040516001600160a01b039091168152602001610145565b60006001600160e01b03198216637965db0b60e01b148061033157506301ffc9a760e01b6001600160e01b03198316145b92915050565b336000908152600160205260409020805461038c5760405162461bcd60e51b815260206004820152601060248201526f139bc81cdd185ada5b99c8199bdd5b9960821b60448201526064015b60405180910390fd5b806002015481600101546103a09190610a8a565b4210156103ef5760405162461bcd60e51b815260206004820152601860248201527f5374616b696e6720706572696f64206e6f7420656e64656400000000000000006044820152606401610383565b6002810154600090815260036020526040812054825460649161041191610a9d565b61041b9190610ab4565b60025483549192506001600160a01b0316906340c10f19903390610440908590610a8a565b6040516001600160e01b031960e085901b1681526001600160a01b0390921660048301526024820152604401600060405180830381600087803b15801561048657600080fd5b505af115801561049a573d6000803e3d6000fd5b50506002548454604051630852cd8d60e31b81526001600160a01b0390921693506342966c6892506104d29160040190815260200190565b600060405180830381600087803b1580156104ec57600080fd5b505af1158015610500573d6000803e3d6000fd5b5050835460408051918252602082018590523393507f7fc4727e062e336010f2c282598ef5f14facb3de68cf8195c2f23e1454b2b74e92500160405180910390a25050336000908152600160208190526040822082815590810182905560020155565b60008281526020819052604090206001015461057e8161085e565b610588838361086b565b50505050565b6001600160a01b03811633146105b75760405163334bd91960e11b815260040160405180910390fd5b6105c182826108fd565b505050565b8062278d0014806105d95750806277f880145b806105e657508062eff100145b806105f45750806301e13380145b8061060057508061012c145b61063f5760405162461bcd60e51b815260206004820152601060248201526f24b73b30b634b210323ab930ba34b7b760811b6044820152606401610383565b336000908152600160205260409020541561068d5760405162461bcd60e51b815260206004820152600e60248201526d105b1c9958591e481cdd185ad95960921b6044820152606401610383565b6002546040516323b872dd60e01b8152336004820152306024820152604481018490526001600160a01b03909116906323b872dd906064016020604051808303816000875af11580156106e4573d6000803e3d6000fd5b505050506040513d601f19601f820116820180604052508101906107089190610ad6565b506040805160608101825283815242602080830191825282840185815233600081815260018085529087902095518655935193850193909355516002909301929092558251858152918201849052917f1449c6dd7851abc30abf37f57715f492010519147cc2652fbc38202c18a6ee90910160405180910390a25050565b6000918252602082815260408084206001600160a01b0393909316845291905290205460ff1690565b6000828152602081905260409020600101546107ca8161085e565b61058883836108fd565b6001600160a01b0381166000908152600160205260408120805482919082036108035750600093849350915050565b6000428260020154836001015461081a9190610a8a565b6108249190610af8565b6002830154600090815260036020526040902054835491925060649161084a9190610a9d565b6108549190610ab4565b9590945092505050565b6108688133610968565b50565b60006108778383610786565b6108f5576000838152602081815260408083206001600160a01b03861684529091529020805460ff191660011790556108ad3390565b6001600160a01b0316826001600160a01b0316847f2f8788117e7eff1d82e926ec794901d17c78024a50270940304540a733656f0d60405160405180910390a4506001610331565b506000610331565b60006109098383610786565b156108f5576000838152602081815260408083206001600160a01b0386168085529252808320805460ff1916905551339286917ff6391f5c32d9c69d2a47ea670b442974b53935d1edc7fd64eb21e047a839171b9190a4506001610331565b6109728282610786565b6109a15760405163e2517d3f60e01b81526001600160a01b038216600482015260248101839052604401610383565b5050565b6000602082840312156109b757600080fd5b81356001600160e01b0319811681146109cf57600080fd5b9392505050565b6000602082840312156109e857600080fd5b5035919050565b80356001600160a01b0381168114610a0657600080fd5b919050565b60008060408385031215610a1e57600080fd5b82359150610a2e602084016109ef565b90509250929050565b60008060408385031215610a4a57600080fd5b50508035926020909101359150565b600060208284031215610a6b57600080fd5b6109cf826109ef565b634e487b7160e01b600052601160045260246000fd5b8082018082111561033157610331610a74565b808202811582820484141761033157610331610a74565b600082610ad157634e487b7160e01b600052601260045260246000fd5b500490565b600060208284031215610ae857600080fd5b815180151581146109cf57600080fd5b8181038181111561033157610331610a7456fea264697066735822122090a5439ce6c09e3ac12bf1aa69d16a55a0edbd1a441050cbb9b8efb60a7bc7e864736f6c63430008190033","linkReferences":{}},"methodIdentifiers":{"DEFAULT_ADMIN_ROLE()":"a217fddf","UPGRADER_ROLE()":"f72c0d8b","fiveMinutes()":"56d4de6e","getRoleAdmin(bytes32)":"248a9ca3","getUserStakingDetails(address)":"f93f3b63","grantRole(bytes32,address)":"2f2ff15d","hasRole(bytes32,address)":"91d14854","oneYear()":"f27c3bf6","renounceRole(bytes32,address)":"36568abe","revokeRole(bytes32,address)":"d547741f","sixMonths()":"5f695e87","stake(uint256,uint256)":"7b0472f0","stakingPeriods(uint256)":"8af92c93","stakings(address)":"dc6e13e1","supportsInterface(bytes4)":"01ffc9a7","thirstyDays()":"f9a88247","threeMonths()":"c95e4007","trotelToken()":"fd4608a9","unstake()":"2def6620"},"id":3}