{"abi":[{"type":"constructor","inputs":[],"stateMutability":"nonpayable"},{"type":"function","name":"DEFAULT_ADMIN_ROLE","inputs":[],"outputs":[{"name":"","type":"bytes32","internalType":"bytes32"}],"stateMutability":"view"},{"type":"function","name":"UPGRADER_ROLE","inputs":[],"outputs":[{"name":"","type":"bytes32","internalType":"bytes32"}],"stateMutability":"view"},{"type":"function","name":"UPGRADE_INTERFACE_VERSION","inputs":[],"outputs":[{"name":"","type":"string","internalType":"string"}],"stateMutability":"view"},{"type":"function","name":"addCategory","inputs":[{"name":"_name","type":"string","internalType":"string"}],"outputs":[],"stateMutability":"nonpayable"},{"type":"function","name":"addItem","inputs":[{"name":"_name","type":"string","internalType":"string"},{"name":"_price","type":"uint256","internalType":"uint256"},{"name":"_discount","type":"uint256","internalType":"uint256"},{"name":"_emoji","type":"string","internalType":"string"},{"name":"_description","type":"string","internalType":"string"}],"outputs":[],"stateMutability":"nonpayable"},{"type":"function","name":"addItemToCategory","inputs":[{"name":"_itemId","type":"uint256","internalType":"uint256"},{"name":"_categoryId","type":"uint256","internalType":"uint256"}],"outputs":[],"stateMutability":"nonpayable"},{"type":"function","name":"buyItem","inputs":[{"name":"_itemId","type":"uint256","internalType":"uint256"},{"name":"_quantity","type":"uint256","internalType":"uint256"}],"outputs":[],"stateMutability":"nonpayable"},{"type":"function","name":"changeFeePercentage","inputs":[{"name":"_newFeePercentage","type":"uint256","internalType":"uint256"}],"outputs":[],"stateMutability":"nonpayable"},{"type":"function","name":"changeTokenFee","inputs":[{"name":"_newAddress","type":"address","internalType":"address"}],"outputs":[],"stateMutability":"nonpayable"},{"type":"function","name":"daoAddress","inputs":[],"outputs":[{"name":"","type":"address","internalType":"address"}],"stateMutability":"view"},{"type":"function","name":"enableCategory","inputs":[{"name":"_categoryId","type":"uint256","internalType":"uint256"}],"outputs":[],"stateMutability":"nonpayable"},{"type":"function","name":"enableItem","inputs":[{"name":"_itemId","type":"uint256","internalType":"uint256"}],"outputs":[],"stateMutability":"nonpayable"},{"type":"function","name":"feePercentage","inputs":[],"outputs":[{"name":"","type":"uint256","internalType":"uint256"}],"stateMutability":"view"},{"type":"function","name":"getAllCategories","inputs":[],"outputs":[{"name":"","type":"tuple[]","internalType":"struct TrotelCoinShop.Category[]","components":[{"name":"name","type":"string","internalType":"string"},{"name":"categoryItems","type":"uint256[]","internalType":"uint256[]"},{"name":"disabled","type":"bool","internalType":"bool"}]}],"stateMutability":"view"},{"type":"function","name":"getAllItems","inputs":[],"outputs":[{"name":"","type":"tuple[]","internalType":"struct TrotelCoinShop.Item[]","components":[{"name":"name","type":"string","internalType":"string"},{"name":"price","type":"uint256","internalType":"uint256"},{"name":"discount","type":"uint256","internalType":"uint256"},{"name":"emoji","type":"string","internalType":"string"},{"name":"description","type":"string","internalType":"string"},{"name":"disabled","type":"bool","internalType":"bool"}]}],"stateMutability":"view"},{"type":"function","name":"getCategoryInformations","inputs":[{"name":"_categoryId","type":"uint256","internalType":"uint256"}],"outputs":[{"name":"","type":"tuple","internalType":"struct TrotelCoinShop.Category","components":[{"name":"name","type":"string","internalType":"string"},{"name":"categoryItems","type":"uint256[]","internalType":"uint256[]"},{"name":"disabled","type":"bool","internalType":"bool"}]}],"stateMutability":"view"},{"type":"function","name":"getItemInformations","inputs":[{"name":"_itemId","type":"uint256","internalType":"uint256"}],"outputs":[{"name":"","type":"tuple","internalType":"struct TrotelCoinShop.Item","components":[{"name":"name","type":"string","internalType":"string"},{"name":"price","type":"uint256","internalType":"uint256"},{"name":"discount","type":"uint256","internalType":"uint256"},{"name":"emoji","type":"string","internalType":"string"},{"name":"description","type":"string","internalType":"string"},{"name":"disabled","type":"bool","internalType":"bool"}]}],"stateMutability":"view"},{"type":"function","name":"getItemQuantity","inputs":[{"name":"_address","type":"address","internalType":"address"},{"name":"_itemId","type":"uint256","internalType":"uint256"}],"outputs":[{"name":"","type":"uint256","internalType":"uint256"}],"stateMutability":"view"},{"type":"function","name":"getItemsInCategory","inputs":[{"name":"_categoryId","type":"uint256","internalType":"uint256"}],"outputs":[{"name":"","type":"tuple[]","internalType":"struct TrotelCoinShop.Item[]","components":[{"name":"name","type":"string","internalType":"string"},{"name":"price","type":"uint256","internalType":"uint256"},{"name":"discount","type":"uint256","internalType":"uint256"},{"name":"emoji","type":"string","internalType":"string"},{"name":"description","type":"string","internalType":"string"},{"name":"disabled","type":"bool","internalType":"bool"}]}],"stateMutability":"view"},{"type":"function","name":"getRoleAdmin","inputs":[{"name":"role","type":"bytes32","internalType":"bytes32"}],"outputs":[{"name":"","type":"bytes32","internalType":"bytes32"}],"stateMutability":"view"},{"type":"function","name":"getTotalCategories","inputs":[],"outputs":[{"name":"","type":"uint256","internalType":"uint256"}],"stateMutability":"view"},{"type":"function","name":"getTotalItems","inputs":[],"outputs":[{"name":"","type":"uint256","internalType":"uint256"}],"stateMutability":"view"},{"type":"function","name":"grantRole","inputs":[{"name":"role","type":"bytes32","internalType":"bytes32"},{"name":"account","type":"address","internalType":"address"}],"outputs":[],"stateMutability":"nonpayable"},{"type":"function","name":"hasRole","inputs":[{"name":"role","type":"bytes32","internalType":"bytes32"},{"name":"account","type":"address","internalType":"address"}],"outputs":[{"name":"","type":"bool","internalType":"bool"}],"stateMutability":"view"},{"type":"function","name":"initialize","inputs":[{"name":"_daoAddress","type":"address","internalType":"address"},{"name":"_feePercentage","type":"uint256","internalType":"uint256"},{"name":"_tokenFeeAddress","type":"address","internalType":"address"},{"name":"_upgrader","type":"address","internalType":"address"}],"outputs":[],"stateMutability":"nonpayable"},{"type":"function","name":"modifyCategory","inputs":[{"name":"_categoryId","type":"uint256","internalType":"uint256"},{"name":"_newName","type":"string","internalType":"string"}],"outputs":[],"stateMutability":"nonpayable"},{"type":"function","name":"modifyItem","inputs":[{"name":"_itemId","type":"uint256","internalType":"uint256"},{"name":"_newName","type":"string","internalType":"string"},{"name":"_newPrice","type":"uint256","internalType":"uint256"},{"name":"_newDiscount","type":"uint256","internalType":"uint256"},{"name":"_newEmoji","type":"string","internalType":"string"},{"name":"_newDescription","type":"string","internalType":"string"}],"outputs":[],"stateMutability":"nonpayable"},{"type":"function","name":"owner","inputs":[],"outputs":[{"name":"","type":"address","internalType":"address"}],"stateMutability":"view"},{"type":"function","name":"proxiableUUID","inputs":[],"outputs":[{"name":"","type":"bytes32","internalType":"bytes32"}],"stateMutability":"view"},{"type":"function","name":"removeCategory","inputs":[{"name":"_categoryId","type":"uint256","internalType":"uint256"}],"outputs":[],"stateMutability":"nonpayable"},{"type":"function","name":"removeItem","inputs":[{"name":"_itemId","type":"uint256","internalType":"uint256"}],"outputs":[],"stateMutability":"nonpayable"},{"type":"function","name":"removeItemFromCategory","inputs":[{"name":"_itemId","type":"uint256","internalType":"uint256"},{"name":"_categoryId","type":"uint256","internalType":"uint256"}],"outputs":[],"stateMutability":"nonpayable"},{"type":"function","name":"renounceOwnership","inputs":[],"outputs":[],"stateMutability":"nonpayable"},{"type":"function","name":"renounceRole","inputs":[{"name":"role","type":"bytes32","internalType":"bytes32"},{"name":"callerConfirmation","type":"address","internalType":"address"}],"outputs":[],"stateMutability":"nonpayable"},{"type":"function","name":"revokeRole","inputs":[{"name":"role","type":"bytes32","internalType":"bytes32"},{"name":"account","type":"address","internalType":"address"}],"outputs":[],"stateMutability":"nonpayable"},{"type":"function","name":"supportsInterface","inputs":[{"name":"interfaceId","type":"bytes4","internalType":"bytes4"}],"outputs":[{"name":"","type":"bool","internalType":"bool"}],"stateMutability":"view"},{"type":"function","name":"tokenFee","inputs":[],"outputs":[{"name":"","type":"address","internalType":"contract TrotelCoinV2"}],"stateMutability":"view"},{"type":"function","name":"transferOwnership","inputs":[{"name":"newOwner","type":"address","internalType":"address"}],"outputs":[],"stateMutability":"nonpayable"},{"type":"function","name":"upgradeToAndCall","inputs":[{"name":"newImplementation","type":"address","internalType":"address"},{"name":"data","type":"bytes","internalType":"bytes"}],"outputs":[],"stateMutability":"payable"},{"type":"function","name":"useItem","inputs":[{"name":"_itemId","type":"uint256","internalType":"uint256"}],"outputs":[],"stateMutability":"nonpayable"},{"type":"event","name":"CategoryAdded","inputs":[{"name":"categoryId","type":"uint256","indexed":true,"internalType":"uint256"},{"name":"name","type":"string","indexed":false,"internalType":"string"}],"anonymous":false},{"type":"event","name":"CategoryChanged","inputs":[{"name":"categoryId","type":"uint256","indexed":true,"internalType":"uint256"},{"name":"newName","type":"string","indexed":false,"internalType":"string"}],"anonymous":false},{"type":"event","name":"CategoryEnabled","inputs":[{"name":"categoryId","type":"uint256","indexed":true,"internalType":"uint256"}],"anonymous":false},{"type":"event","name":"CategoryRemoved","inputs":[{"name":"categoryId","type":"uint256","indexed":true,"internalType":"uint256"}],"anonymous":false},{"type":"event","name":"FeePercentageChanged","inputs":[{"name":"newFeePercentage","type":"uint256","indexed":false,"internalType":"uint256"}],"anonymous":false},{"type":"event","name":"Initialized","inputs":[{"name":"version","type":"uint64","indexed":false,"internalType":"uint64"}],"anonymous":false},{"type":"event","name":"ItemAdded","inputs":[{"name":"itemId","type":"uint256","indexed":true,"internalType":"uint256"},{"name":"name","type":"string","indexed":false,"internalType":"string"},{"name":"price","type":"uint256","indexed":false,"internalType":"uint256"},{"name":"discount","type":"uint256","indexed":false,"internalType":"uint256"},{"name":"emoji","type":"string","indexed":false,"internalType":"string"},{"name":"description","type":"string","indexed":false,"internalType":"string"}],"anonymous":false},{"type":"event","name":"ItemAddedToCategory","inputs":[{"name":"itemId","type":"uint256","indexed":true,"internalType":"uint256"},{"name":"categoryId","type":"uint256","indexed":true,"internalType":"uint256"}],"anonymous":false},{"type":"event","name":"ItemBuyed","inputs":[{"name":"itemId","type":"uint256","indexed":true,"internalType":"uint256"},{"name":"quantity","type":"uint256","indexed":false,"internalType":"uint256"},{"name":"price","type":"uint256","indexed":false,"internalType":"uint256"}],"anonymous":false},{"type":"event","name":"ItemChanged","inputs":[{"name":"itemId","type":"uint256","indexed":true,"internalType":"uint256"},{"name":"newName","type":"string","indexed":false,"internalType":"string"},{"name":"newPrice","type":"uint256","indexed":false,"internalType":"uint256"},{"name":"newDiscount","type":"uint256","indexed":false,"internalType":"uint256"},{"name":"newEmoji","type":"string","indexed":false,"internalType":"string"},{"name":"newDescription","type":"string","indexed":false,"internalType":"string"}],"anonymous":false},{"type":"event","name":"ItemEnabled","inputs":[{"name":"itemId","type":"uint256","indexed":true,"internalType":"uint256"}],"anonymous":false},{"type":"event","name":"ItemRemoved","inputs":[{"name":"itemId","type":"uint256","indexed":true,"internalType":"uint256"}],"anonymous":false},{"type":"event","name":"ItemRemovedFromCategory","inputs":[{"name":"itemId","type":"uint256","indexed":true,"internalType":"uint256"},{"name":"categoryId","type":"uint256","indexed":true,"internalType":"uint256"}],"anonymous":false},{"type":"event","name":"ItemUsed","inputs":[{"name":"itemId","type":"uint256","indexed":true,"internalType":"uint256"},{"name":"user","type":"address","indexed":true,"internalType":"address"}],"anonymous":false},{"type":"event","name":"OwnerChanged","inputs":[{"name":"newOwner","type":"address","indexed":false,"internalType":"address"}],"anonymous":false},{"type":"event","name":"OwnershipTransferred","inputs":[{"name":"previousOwner","type":"address","indexed":true,"internalType":"address"},{"name":"newOwner","type":"address","indexed":true,"internalType":"address"}],"anonymous":false},{"type":"event","name":"RoleAdminChanged","inputs":[{"name":"role","type":"bytes32","indexed":true,"internalType":"bytes32"},{"name":"previousAdminRole","type":"bytes32","indexed":true,"internalType":"bytes32"},{"name":"newAdminRole","type":"bytes32","indexed":true,"internalType":"bytes32"}],"anonymous":false},{"type":"event","name":"RoleGranted","inputs":[{"name":"role","type":"bytes32","indexed":true,"internalType":"bytes32"},{"name":"account","type":"address","indexed":true,"internalType":"address"},{"name":"sender","type":"address","indexed":true,"internalType":"address"}],"anonymous":false},{"type":"event","name":"RoleRevoked","inputs":[{"name":"role","type":"bytes32","indexed":true,"internalType":"bytes32"},{"name":"account","type":"address","indexed":true,"internalType":"address"},{"name":"sender","type":"address","indexed":true,"internalType":"address"}],"anonymous":false},{"type":"event","name":"TokenChanged","inputs":[{"name":"newAddress","type":"address","indexed":false,"internalType":"address"}],"anonymous":false},{"type":"event","name":"Upgraded","inputs":[{"name":"implementation","type":"address","indexed":true,"internalType":"address"}],"anonymous":false},{"type":"error","name":"AccessControlBadConfirmation","inputs":[]},{"type":"error","name":"AccessControlUnauthorizedAccount","inputs":[{"name":"account","type":"address","internalType":"address"},{"name":"neededRole","type":"bytes32","internalType":"bytes32"}]},{"type":"error","name":"AddressEmptyCode","inputs":[{"name":"target","type":"address","internalType":"address"}]},{"type":"error","name":"ERC1967InvalidImplementation","inputs":[{"name":"implementation","type":"address","internalType":"address"}]},{"type":"error","name":"ERC1967NonPayable","inputs":[]},{"type":"error","name":"FailedInnerCall","inputs":[]},{"type":"error","name":"InvalidInitialization","inputs":[]},{"type":"error","name":"NotInitializing","inputs":[]},{"type":"error","name":"OwnableInvalidOwner","inputs":[{"name":"owner","type":"address","internalType":"address"}]},{"type":"error","name":"OwnableUnauthorizedAccount","inputs":[{"name":"account","type":"address","internalType":"address"}]},{"type":"error","name":"UUPSUnauthorizedCallContext","inputs":[]},{"type":"error","name":"UUPSUnsupportedProxiableUUID","inputs":[{"name":"slot","type":"bytes32","internalType":"bytes32"}]}],"bytecode":{"object":"0x60a06040523060805234801561001457600080fd5b5061001d610022565b6100d4565b7ff0c57e16840df040f15088dc2f81fe391c3923bec73e23a9662efc9c229c6a00805468010000000000000000900460ff16156100725760405163f92ee8a960e01b815260040160405180910390fd5b80546001600160401b03908116146100d15780546001600160401b0319166001600160401b0390811782556040519081527fc7f505b2f371ae2175ee4913f4499e1f2633a7b5936321eed1cdaeb6115181d29060200160405180910390a15b50565b60805161334e6100fd6000396000818161243c0152818161246501526125c8015261334e6000f3fe60806040526004361061023b5760003560e01c80638b5d013c1161012e578063d6341812116100ab578063f72c0d8b1161006f578063f72c0d8b146106e8578063f8399f471461071c578063f979406e1461073c578063fa5d78331461075c578063fae141921461077c57600080fd5b8063d634181214610651578063d884424114610671578063dadd0a5714610686578063e7603ccb146106a8578063f2fde38b146106c857600080fd5b80639cbcfed5116100f25780639cbcfed5146105a8578063a001ecdd146105c8578063a217fddf146105de578063ad3cb1cc146105f3578063d547741f1461063157600080fd5b80638b5d013c146104d15780638da5cb5b146104fe57806391d148541461053b5780639737f81f1461055b5780639979c0091461058857600080fd5b806345599136116101bc57806352d1902d1161018057806352d1902d14610447578063713291711461045c578063715018a61461047c57806377c9c2d71461049157806380420b31146104b157600080fd5b806345599136146103b2578063479678d9146103d25780634ba1d6aa146103f25780634dbc8611146104145780634f1ef2861461043457600080fd5b80632e0dcbf7116102035780632e0dcbf71461031d5780632f2ff15d1461033d578063310aac691461035d578063358394d81461037257806336568abe1461039257600080fd5b806301ffc9a71461024057806303b2f4c1146102755780631689cc02146102975780632131c68c146102b7578063248a9ca3146102ef575b600080fd5b34801561024c57600080fd5b5061026061025b366004612964565b61079c565b60405190151581526020015b60405180910390f35b34801561028157600080fd5b50610295610290366004612a3a565b6107d3565b005b3480156102a357600080fd5b506102956102b2366004612a9d565b61086b565b3480156102c357600080fd5b506000546102d7906001600160a01b031681565b6040516001600160a01b03909116815260200161026c565b3480156102fb57600080fd5b5061030f61030a366004612ab8565b6108cc565b60405190815260200161026c565b34801561032957600080fd5b50610295610338366004612ad1565b6108ee565b34801561034957600080fd5b50610295610358366004612b0e565b61095a565b34801561036957600080fd5b5061030f61097c565b34801561037e57600080fd5b5061029561038d366004612b3a565b6109ca565b34801561039e57600080fd5b506102956103ad366004612b0e565b610b71565b3480156103be57600080fd5b506002546102d7906001600160a01b031681565b3480156103de57600080fd5b506102956103ed366004612ab8565b610ba9565b3480156103fe57600080fd5b50610407610c26565b60405161026c9190612c4c565b34801561042057600080fd5b5061029561042f366004612ab8565b610eba565b610295610442366004612cb0565b610fab565b34801561045357600080fd5b5061030f610fca565b34801561046857600080fd5b50610295610477366004612ab8565b610fe7565b34801561048857600080fd5b50610295611067565b34801561049d57600080fd5b506104076104ac366004612ab8565b61107b565b3480156104bd57600080fd5b506102956104cc366004612ab8565b6113b0565b3480156104dd57600080fd5b506104f16104ec366004612ab8565b611484565b60405161026c9190612d78565b34801561050a57600080fd5b507f9016d09d72d40fdae2fd8ceac6b6234c7706214fd39c1cd1e609a0528c199300546001600160a01b03166102d7565b34801561054757600080fd5b50610260610556366004612b0e565b6115b9565b34801561056757600080fd5b5061057b610576366004612ab8565b6115f1565b60405161026c9190612d8b565b34801561059457600080fd5b506102956105a3366004612d9e565b6117f2565b3480156105b457600080fd5b506102956105c3366004612ab8565b611b90565b3480156105d457600080fd5b5061030f60015481565b3480156105ea57600080fd5b5061030f600081565b3480156105ff57600080fd5b50610624604051806040016040528060058152602001640352e302e360dc1b81525081565b60405161026c9190612dc0565b34801561063d57600080fd5b5061029561064c366004612b0e565b611c0d565b34801561065d57600080fd5b5061029561066c366004612dd3565b611c29565b34801561067d57600080fd5b5061030f611d0a565b34801561069257600080fd5b5061069b611d52565b60405161026c9190612e77565b3480156106b457600080fd5b506102956106c3366004612d9e565b611f1a565b3480156106d457600080fd5b506102956106e3366004612a9d565b612047565b3480156106f457600080fd5b5061030f7f189ab7a9244df0848122154315af71fe140f3db0fe014031783b0946b8c9d2e381565b34801561072857600080fd5b50610295610737366004612ece565b612085565b34801561074857600080fd5b50610295610757366004612d9e565b612188565b34801561076857600080fd5b5061030f610777366004612f6a565b612245565b34801561078857600080fd5b50610295610797366004612ab8565b61229d565b60006001600160e01b03198216637965db0b60e01b14806107cd57506301ffc9a760e01b6001600160e01b03198316145b92915050565b60006107de816122fe565b6000831180156107f057506003548311155b6108155760405162461bcd60e51b815260040161080c90612f94565b60405180910390fd5b600083815260056020526040902061082d8382613045565b50827ffd913b27993f9a3527593073219e70d74234c69b965a1d58962cac81e0b884748360405161085e9190612dc0565b60405180910390a2505050565b6000610876816122fe565b600280546001600160a01b0319166001600160a01b0384169081179091556040519081527f5d108ca248943e98e1886bbc2c38beda701271994a14354258a11692b81b73cf906020015b60405180910390a15050565b60009081526000805160206132f9833981519152602052604090206001015490565b60006108f9816122fe565b600380549060006109098361311b565b909155505060035460008181526005602052604090206109298482613045565b50807f5bae3f75753ef0a1c0ea0f6c51d7b43a4b8d116572b8b7b5cb771f9ad32d4ae58460405161085e9190612dc0565b610963826108cc565b61096c816122fe565b6109768383612308565b50505050565b60008060015b60045481116109c45760008181526006602052604090206005015460ff166109b257816109ae8161311b565b9250505b806109bc8161311b565b915050610982565b50919050565b7ff0c57e16840df040f15088dc2f81fe391c3923bec73e23a9662efc9c229c6a008054600160401b810460ff16159067ffffffffffffffff16600081158015610a105750825b905060008267ffffffffffffffff166001148015610a2d5750303b155b905081158015610a3b575080155b15610a595760405163f92ee8a960e01b815260040160405180910390fd5b845467ffffffffffffffff191660011785558315610a8357845460ff60401b1916600160401b1785555b6064881115610aa45760405162461bcd60e51b815260040161080c90613134565b610aac6123ad565b610ab46123ad565b610ade7f189ab7a9244df0848122154315af71fe140f3db0fe014031783b0946b8c9d2e387612308565b50610aea600033612308565b50600080546001600160a01b03808c166001600160a01b03199283161790925560018a905560028054928a16929091169190911790558315610b6657845460ff60401b19168555604051600181527fc7f505b2f371ae2175ee4913f4499e1f2633a7b5936321eed1cdaeb6115181d29060200160405180910390a15b505050505050505050565b6001600160a01b0381163314610b9a5760405163334bd91960e11b815260040160405180910390fd5b610ba482826123b5565b505050565b6000610bb4816122fe565b600082118015610bc657506003548211155b610be25760405162461bcd60e51b815260040161080c90612f94565b600082815260056020526040808220600201805460ff191690555183917f859d485ecfc837828c14c8deb22d42e931f1c407e6884e65e0b221017e4070e791a25050565b6060600060045467ffffffffffffffff811115610c4557610c4561298e565b604051908082528060200260200182016040528015610c7e57816020015b610c6b61292c565b815260200190600190039081610c635790505b50905060015b60045481116109c45760008181526006602052604090819020815160c08101909252805482908290610cb590612fc1565b80601f0160208091040260200160405190810160405280929190818152602001828054610ce190612fc1565b8015610d2e5780601f10610d0357610100808354040283529160200191610d2e565b820191906000526020600020905b815481529060010190602001808311610d1157829003601f168201915b505050505081526020016001820154815260200160028201548152602001600382018054610d5b90612fc1565b80601f0160208091040260200160405190810160405280929190818152602001828054610d8790612fc1565b8015610dd45780601f10610da957610100808354040283529160200191610dd4565b820191906000526020600020905b815481529060010190602001808311610db757829003601f168201915b50505050508152602001600482018054610ded90612fc1565b80601f0160208091040260200160405190810160405280929190818152602001828054610e1990612fc1565b8015610e665780601f10610e3b57610100808354040283529160200191610e66565b820191906000526020600020905b815481529060010190602001808311610e4957829003601f168201915b50505091835250506005919091015460ff16151560209091015282610e8c60018461317c565b81518110610e9c57610e9c61318f565b60200260200101819052508080610eb29061311b565b915050610c84565b600081118015610ecc57506004548111155b610ee85760405162461bcd60e51b815260040161080c906131a5565b336000908152600760209081526040808320848452909152902054610f4f5760405162461bcd60e51b815260206004820152601b60248201527f4974656d206e6f7420666f756e6420696e20696e76656e746f72790000000000604482015260640161080c565b3360009081526007602090815260408083208484529091528120805491610f76838061317c565b9091555050604051339082907f697fe668f50dbd9b1cfb6b66911015797935f1a1c873d43501294e97024bf00f90600090a350565b610fb3612431565b610fbc826124d6565b610fc68282612500565b5050565b6000610fd46125bd565b506000805160206132d983398151915290565b6000610ff2816122fe565b60008211801561100457506004548211155b6110205760405162461bcd60e51b815260040161080c906131a5565b600082815260066020526040808220600501805460ff191660011790555183917fa54eda4149a0fb9258911733973ecf1f6762357ed371fc6d1e63123bbce23bed91a25050565b61106f612606565b6110796000612661565b565b606060008211801561108f57506003548211155b6110ab5760405162461bcd60e51b815260040161080c90612f94565b60008281526005602090815260408083206001018054825181850281018501909352808352919290919083018282801561110457602002820191906000526020600020905b8154815260200190600101908083116110f0575b505050505090506000815167ffffffffffffffff8111156111275761112761298e565b60405190808252806020026020018201604052801561116057816020015b61114d61292c565b8152602001906001900390816111455790505b50905060005b82518110156113a857600660008483815181106111855761118561318f565b602002602001015181526020019081526020016000206040518060c00160405290816000820180546111b690612fc1565b80601f01602080910402602001604051908101604052809291908181526020018280546111e290612fc1565b801561122f5780601f106112045761010080835404028352916020019161122f565b820191906000526020600020905b81548152906001019060200180831161121257829003601f168201915b50505050508152602001600182015481526020016002820154815260200160038201805461125c90612fc1565b80601f016020809104026020016040519081016040528092919081815260200182805461128890612fc1565b80156112d55780601f106112aa576101008083540402835291602001916112d5565b820191906000526020600020905b8154815290600101906020018083116112b857829003601f168201915b505050505081526020016004820180546112ee90612fc1565b80601f016020809104026020016040519081016040528092919081815260200182805461131a90612fc1565b80156113675780601f1061133c57610100808354040283529160200191611367565b820191906000526020600020905b81548152906001019060200180831161134a57829003601f168201915b50505091835250506005919091015460ff16151560209091015282518390839081106113955761139561318f565b6020908102919091010152600101611166565b509392505050565b60006113bb816122fe565b6000821180156113cd57506003548211155b6113e95760405162461bcd60e51b815260040161080c90612f94565b6000828152600560205260409020600101541561143d5760405162461bcd60e51b815260206004820152601260248201527143617465676f7279206e6f7420656d70747960701b604482015260640161080c565b600082815260056020526040808220600201805460ff191660011790555183917faf870895aa6217ac2ea81b64ac63c84362eb51f9b6a49e12df4843c08140528191a25050565b60408051606080820183528082526020820152600091810191909152600082815260056020526040908190208151606081019092528054829082906114c890612fc1565b80601f01602080910402602001604051908101604052809291908181526020018280546114f490612fc1565b80156115415780601f1061151657610100808354040283529160200191611541565b820191906000526020600020905b81548152906001019060200180831161152457829003601f168201915b505050505081526020016001820180548060200260200160405190810160405280929190818152602001828054801561159957602002820191906000526020600020905b815481526020019060010190808311611585575b50505091835250506002919091015460ff16151560209091015292915050565b60009182526000805160206132f9833981519152602090815260408084206001600160a01b0393909316845291905290205460ff1690565b6115f961292c565b60008281526006602052604090819020815160c0810190925280548290829061162190612fc1565b80601f016020809104026020016040519081016040528092919081815260200182805461164d90612fc1565b801561169a5780601f1061166f5761010080835404028352916020019161169a565b820191906000526020600020905b81548152906001019060200180831161167d57829003601f168201915b5050505050815260200160018201548152602001600282015481526020016003820180546116c790612fc1565b80601f01602080910402602001604051908101604052809291908181526020018280546116f390612fc1565b80156117405780601f1061171557610100808354040283529160200191611740565b820191906000526020600020905b81548152906001019060200180831161172357829003601f168201915b5050505050815260200160048201805461175990612fc1565b80601f016020809104026020016040519081016040528092919081815260200182805461178590612fc1565b80156117d25780601f106117a7576101008083540402835291602001916117d2565b820191906000526020600020905b8154815290600101906020018083116117b557829003601f168201915b50505091835250506005919091015460ff16151560209091015292915050565b60008211801561180457506004548211155b6118205760405162461bcd60e51b815260040161080c906131a5565b60008281526006602052604090208161186e5760405162461bcd60e51b815260206004820152601060248201526f496e76616c6964207175616e7469747960801b604482015260640161080c565b60008160010154116118b35760405162461bcd60e51b815260206004820152600e60248201526d125d195b481b9bdd08199bdd5b9960921b604482015260640161080c565b60008282600101546118c591906131ce565b905060006001841180156118dd575060008360020154115b1561190d5760018484600201546118f491906131ce565b6118fe919061317c565b905061190a818361317c565b91505b600060646001548461191f91906131ce565b61192991906131e5565b6002546040516323b872dd60e01b8152336004820152306024820152604481018690529192506001600160a01b0316906323b872dd906064016020604051808303816000875af1158015611981573d6000803e3d6000fd5b505050506040513d601f19601f820116820180604052508101906119a59190613207565b6119e35760405162461bcd60e51b815260206004820152600f60248201526e151c985b9cd9995c8819985a5b1959608a1b604482015260640161080c565b60025460005460405163a9059cbb60e01b81526001600160a01b0391821660048201526024810184905291169063a9059cbb906044016020604051808303816000875af1158015611a38573d6000803e3d6000fd5b505050506040513d601f19601f82011682018060405250810190611a5c9190613207565b611aa15760405162461bcd60e51b8152602060048201526016602482015275151c985b9cd9995c881d1bc8111053c819985a5b195960521b604482015260640161080c565b611aab818461317c565b600254604051630852cd8d60e31b8152600481018390529194506001600160a01b0316906342966c6890602401600060405180830381600087803b158015611af257600080fd5b505af1158015611b06573d6000803e3d6000fd5b50503360009081526007602090815260408083208b8452909152902054611b309250879150613229565b3360009081526007602090815260408083208a845282529182902092909255805187815291820185905287917ffdf185b22bb5860396555ee900cf11ccf345d4a4ac63c40cb95a8a30e2772ba691015b60405180910390a2505050505050565b6000611b9b816122fe565b600082118015611bad57506004548211155b611bc95760405162461bcd60e51b815260040161080c906131a5565b600082815260066020526040808220600501805460ff191690555183917fa9169b45fa7962b9f1d36e33cf151d34eb8538a0c745de4fb5f1fd6bb741155191a25050565b611c16826108cc565b611c1f816122fe565b61097683836123b5565b6000611c34816122fe565b600087118015611c4657506004548711155b611c625760405162461bcd60e51b815260040161080c906131a5565b6000878152600660205260409020611c7a8782613045565b5060008781526006602052604090206001810186905560028101859055600301611ca48482613045565b506000878152600660205260409020600401611cc08382613045565b50867f62f1fd90c00bb58fdf3d74ccc197a9ccd050c41e75c482ad4dd33aa18861e5fb8787878787604051611cf995949392919061323c565b60405180910390a250505050505050565b60008060015b60035481116109c45760008181526005602052604090206002015460ff16611d405781611d3c8161311b565b9250505b80611d4a8161311b565b915050611d10565b6060600060035467ffffffffffffffff811115611d7157611d7161298e565b604051908082528060200260200182016040528015611dbe57816020015b60408051606080820183528082526020820152600091810191909152815260200190600190039081611d8f5790505b50905060015b60035481116109c45760008181526005602052604090819020815160608101909252805482908290611df590612fc1565b80601f0160208091040260200160405190810160405280929190818152602001828054611e2190612fc1565b8015611e6e5780601f10611e4357610100808354040283529160200191611e6e565b820191906000526020600020905b815481529060010190602001808311611e5157829003601f168201915b5050505050815260200160018201805480602002602001604051908101604052809291908181526020018280548015611ec657602002820191906000526020600020905b815481526020019060010190808311611eb2575b50505091835250506002919091015460ff16151560209091015282611eec60018461317c565b81518110611efc57611efc61318f565b60200260200101819052508080611f129061311b565b915050611dc4565b6000611f25816122fe565b600082118015611f3757506003548211155b611f535760405162461bcd60e51b815260040161080c90612f94565b6000828152600560205260408120600101905b81548110156120405784828281548110611f8257611f8261318f565b9060005260206000200154036120385781548290611fa29060019061317c565b81548110611fb257611fb261318f565b9060005260206000200154828281548110611fcf57611fcf61318f565b906000526020600020018190555081805480611fed57611fed61328d565b6001900381819060005260206000200160009055905583857f3e2baa13162a0f97efdec82ca41fad1c5022fcd3cd85e148a562214b2853c77f60405160405180910390a35050505050565b600101611f66565b5050505050565b61204f612606565b6001600160a01b03811661207957604051631e4fbdf760e01b81526000600482015260240161080c565b61208281612661565b50565b6000612090816122fe565b600480549060006120a08361311b565b90915550506040805160c08101825287815260208082018890528183018790526060820186905260808201859052600060a083018190526004548152600690915291909120815181906120f39082613045565b5060208201516001820155604082015160028201556060820151600382019061211c9082613045565b50608082015160048201906121319082613045565b5060a091909101516005909101805460ff19169115159190911790556004546040517fbb807f51c00270abe5fb45f5b032f820014572527e3087376b937f5531fee46390611b80908990899089908990899061323c565b6000612193816122fe565b6000831180156121a557506004548311155b6121c15760405162461bcd60e51b815260040161080c906131a5565b6000821180156121d357506003548211155b6121ef5760405162461bcd60e51b815260040161080c90612f94565b6000828152600560209081526040808320600190810180549182018155845291832090910185905551839185917fc4aee51f49661621f15fe4d84042d95a96b9867ac6618cbb567569ea7a5e930e9190a3505050565b6000808211801561225857506004548211155b6122745760405162461bcd60e51b815260040161080c906131a5565b506001600160a01b03919091166000908152600760209081526040808320938352929052205490565b60006122a8816122fe565b60648211156122c95760405162461bcd60e51b815260040161080c90613134565b60018290556040518281527f97e97c577f03bda90e2c9739011ec065ed5fbfb36ae217d20bb0d9be95e160cd906020016108c0565b61208281336126d2565b60006000805160206132f983398151915261232384846115b9565b6123a3576000848152602082815260408083206001600160a01b03871684529091529020805460ff191660011790556123593390565b6001600160a01b0316836001600160a01b0316857f2f8788117e7eff1d82e926ec794901d17c78024a50270940304540a733656f0d60405160405180910390a460019150506107cd565b60009150506107cd565b61107961270b565b60006000805160206132f98339815191526123d084846115b9565b156123a3576000848152602082815260408083206001600160a01b0387168085529252808320805460ff1916905551339287917ff6391f5c32d9c69d2a47ea670b442974b53935d1edc7fd64eb21e047a839171b9190a460019150506107cd565b306001600160a01b037f00000000000000000000000000000000000000000000000000000000000000001614806124b857507f00000000000000000000000000000000000000000000000000000000000000006001600160a01b03166124ac6000805160206132d9833981519152546001600160a01b031690565b6001600160a01b031614155b156110795760405163703e46dd60e11b815260040160405180910390fd5b7f189ab7a9244df0848122154315af71fe140f3db0fe014031783b0946b8c9d2e3610fc6816122fe565b816001600160a01b03166352d1902d6040518163ffffffff1660e01b8152600401602060405180830381865afa92505050801561255a575060408051601f3d908101601f19168201909252612557918101906132a3565b60015b61258257604051634c9c8ce360e01b81526001600160a01b038316600482015260240161080c565b6000805160206132d983398151915281146125b357604051632a87526960e21b81526004810182905260240161080c565b610ba48383612754565b306001600160a01b037f000000000000000000000000000000000000000000000000000000000000000016146110795760405163703e46dd60e11b815260040160405180910390fd5b336126387f9016d09d72d40fdae2fd8ceac6b6234c7706214fd39c1cd1e609a0528c199300546001600160a01b031690565b6001600160a01b0316146110795760405163118cdaa760e01b815233600482015260240161080c565b7f9016d09d72d40fdae2fd8ceac6b6234c7706214fd39c1cd1e609a0528c19930080546001600160a01b031981166001600160a01b03848116918217845560405192169182907f8be0079c531659141344cd1fd0a4f28419497f9722a3daafe3b4186f6b6457e090600090a3505050565b6126dc82826115b9565b610fc65760405163e2517d3f60e01b81526001600160a01b03821660048201526024810183905260440161080c565b7ff0c57e16840df040f15088dc2f81fe391c3923bec73e23a9662efc9c229c6a0054600160401b900460ff1661107957604051631afcd79f60e31b815260040160405180910390fd5b61275d826127aa565b6040516001600160a01b038316907fbc7cd75a20ee27fd9adebab32041f755214dbc6bffa90cc0225b39da2e5c2d3b90600090a28051156127a257610ba4828261280f565b610fc6612885565b806001600160a01b03163b6000036127e057604051634c9c8ce360e01b81526001600160a01b038216600482015260240161080c565b6000805160206132d983398151915280546001600160a01b0319166001600160a01b0392909216919091179055565b6060600080846001600160a01b03168460405161282c91906132bc565b600060405180830381855af49150503d8060008114612867576040519150601f19603f3d011682016040523d82523d6000602084013e61286c565b606091505b509150915061287c8583836128a4565b95945050505050565b34156110795760405163b398979f60e01b815260040160405180910390fd5b6060826128b9576128b482612903565b6128fc565b81511580156128d057506001600160a01b0384163b155b156128f957604051639996b31560e01b81526001600160a01b038516600482015260240161080c565b50805b9392505050565b8051156129135780518082602001fd5b604051630a12f52160e11b815260040160405180910390fd5b6040518060c0016040528060608152602001600081526020016000815260200160608152602001606081526020016000151581525090565b60006020828403121561297657600080fd5b81356001600160e01b0319811681146128fc57600080fd5b634e487b7160e01b600052604160045260246000fd5b600067ffffffffffffffff808411156129bf576129bf61298e565b604051601f8501601f19908116603f011681019082821181831017156129e7576129e761298e565b81604052809350858152868686011115612a0057600080fd5b858560208301376000602087830101525050509392505050565b600082601f830112612a2b57600080fd5b6128fc838335602085016129a4565b60008060408385031215612a4d57600080fd5b82359150602083013567ffffffffffffffff811115612a6b57600080fd5b612a7785828601612a1a565b9150509250929050565b80356001600160a01b0381168114612a9857600080fd5b919050565b600060208284031215612aaf57600080fd5b6128fc82612a81565b600060208284031215612aca57600080fd5b5035919050565b600060208284031215612ae357600080fd5b813567ffffffffffffffff811115612afa57600080fd5b612b0684828501612a1a565b949350505050565b60008060408385031215612b2157600080fd5b82359150612b3160208401612a81565b90509250929050565b60008060008060808587031215612b5057600080fd5b612b5985612a81565b935060208501359250612b6e60408601612a81565b9150612b7c60608601612a81565b905092959194509250565b60005b83811015612ba2578181015183820152602001612b8a565b50506000910152565b60008151808452612bc3816020860160208601612b87565b601f01601f19169290920160200192915050565b6000815160c08452612bec60c0850182612bab565b9050602083015160208501526040830151604085015260608301518482036060860152612c198282612bab565b91505060808301518482036080860152612c338282612bab565b91505060a0830151151560a08501528091505092915050565b600060208083016020845280855180835260408601915060408160051b87010192506020870160005b82811015612ca357603f19888603018452612c91858351612bd7565b94509285019290850190600101612c75565b5092979650505050505050565b60008060408385031215612cc357600080fd5b612ccc83612a81565b9150602083013567ffffffffffffffff811115612ce857600080fd5b8301601f81018513612cf957600080fd5b612a77858235602084016129a4565b6000815160608452612d1d6060850182612bab565b60208481015186830387830152805180845290820193509091600091908301905b80831015612d5e5784518252938301936001929092019190830190612d3e565b506040860151151560408801528094505050505092915050565b6020815260006128fc6020830184612d08565b6020815260006128fc6020830184612bd7565b60008060408385031215612db157600080fd5b50508035926020909101359150565b6020815260006128fc6020830184612bab565b60008060008060008060c08789031215612dec57600080fd5b86359550602087013567ffffffffffffffff80821115612e0b57600080fd5b612e178a838b01612a1a565b965060408901359550606089013594506080890135915080821115612e3b57600080fd5b612e478a838b01612a1a565b935060a0890135915080821115612e5d57600080fd5b50612e6a89828a01612a1a565b9150509295509295509295565b600060208083016020845280855180835260408601915060408160051b87010192506020870160005b82811015612ca357603f19888603018452612ebc858351612d08565b94509285019290850190600101612ea0565b600080600080600060a08688031215612ee657600080fd5b853567ffffffffffffffff80821115612efe57600080fd5b612f0a89838a01612a1a565b965060208801359550604088013594506060880135915080821115612f2e57600080fd5b612f3a89838a01612a1a565b93506080880135915080821115612f5057600080fd5b50612f5d88828901612a1a565b9150509295509295909350565b60008060408385031215612f7d57600080fd5b612f8683612a81565b946020939093013593505050565b602080825260139082015272125b9d985b1a590818d85d1959dbdc9e481a59606a1b604082015260600190565b600181811c90821680612fd557607f821691505b6020821081036109c457634e487b7160e01b600052602260045260246000fd5b601f821115610ba4576000816000526020600020601f850160051c8101602086101561301e5750805b601f850160051c820191505b8181101561303d5782815560010161302a565b505050505050565b815167ffffffffffffffff81111561305f5761305f61298e565b6130738161306d8454612fc1565b84612ff5565b602080601f8311600181146130a857600084156130905750858301515b600019600386901b1c1916600185901b17855561303d565b600085815260208120601f198616915b828110156130d7578886015182559484019460019091019084016130b8565b50858210156130f55787850151600019600388901b60f8161c191681555b5050505050600190811b01905550565b634e487b7160e01b600052601160045260246000fd5b60006001820161312d5761312d613105565b5060010190565b60208082526028908201527f4665652070657263656e74616765206d757374206265206265747765656e2030604082015267020616e64203130360c41b606082015260800190565b818103818111156107cd576107cd613105565b634e487b7160e01b600052603260045260246000fd5b6020808252600f908201526e125b9d985b1a59081a5d195b481a59608a1b604082015260600190565b80820281158282048414176107cd576107cd613105565b60008261320257634e487b7160e01b600052601260045260246000fd5b500490565b60006020828403121561321957600080fd5b815180151581146128fc57600080fd5b808201808211156107cd576107cd613105565b60a08152600061324f60a0830188612bab565b866020840152856040840152828103606084015261326d8186612bab565b905082810360808401526132818185612bab565b98975050505050505050565b634e487b7160e01b600052603160045260246000fd5b6000602082840312156132b557600080fd5b5051919050565b600082516132ce818460208701612b87565b919091019291505056fe360894a13ba1a3210667c828492db98dca3e2076cc3735a920a3ca505d382bbc02dd7bc7dec4dceedda775e58dd541e08a116c6c53815c0bd028192f7b626800a2646970667358221220a68224b8aee044520a2bc74ef74b94449a2de6f1f79a8a64ff7449da777c67b564736f6c63430008190033","linkReferences":{}},"methodIdentifiers":{"DEFAULT_ADMIN_ROLE()":"a217fddf","UPGRADER_ROLE()":"f72c0d8b","UPGRADE_INTERFACE_VERSION()":"ad3cb1cc","addCategory(string)":"2e0dcbf7","addItem(string,uint256,uint256,string,string)":"f8399f47","addItemToCategory(uint256,uint256)":"f979406e","buyItem(uint256,uint256)":"9979c009","changeFeePercentage(uint256)":"fae14192","changeTokenFee(address)":"1689cc02","daoAddress()":"2131c68c","enableCategory(uint256)":"479678d9","enableItem(uint256)":"9cbcfed5","feePercentage()":"a001ecdd","getAllCategories()":"dadd0a57","getAllItems()":"4ba1d6aa","getCategoryInformations(uint256)":"8b5d013c","getItemInformations(uint256)":"9737f81f","getItemQuantity(address,uint256)":"fa5d7833","getItemsInCategory(uint256)":"77c9c2d7","getRoleAdmin(bytes32)":"248a9ca3","getTotalCategories()":"d8844241","getTotalItems()":"310aac69","grantRole(bytes32,address)":"2f2ff15d","hasRole(bytes32,address)":"91d14854","initialize(address,uint256,address,address)":"358394d8","modifyCategory(uint256,string)":"03b2f4c1","modifyItem(uint256,string,uint256,uint256,string,string)":"d6341812","owner()":"8da5cb5b","proxiableUUID()":"52d1902d","removeCategory(uint256)":"80420b31","removeItem(uint256)":"71329171","removeItemFromCategory(uint256,uint256)":"e7603ccb","renounceOwnership()":"715018a6","renounceRole(bytes32,address)":"36568abe","revokeRole(bytes32,address)":"d547741f","supportsInterface(bytes4)":"01ffc9a7","tokenFee()":"45599136","transferOwnership(address)":"f2fde38b","upgradeToAndCall(address,bytes)":"4f1ef286","useItem(uint256)":"4dbc8611"},"id":1}