{"abi":[{"type":"constructor","inputs":[{"name":"_defaultAdmin","type":"address","internalType":"address"},{"name":"_trotelToken","type":"address","internalType":"address"}],"stateMutability":"nonpayable"},{"type":"function","name":"DEFAULT_ADMIN_ROLE","inputs":[],"outputs":[{"name":"","type":"bytes32","internalType":"bytes32"}],"stateMutability":"view"},{"type":"function","name":"calculateReward","inputs":[{"name":"amount","type":"uint256","internalType":"uint256"},{"name":"stakingTime","type":"uint256","internalType":"uint256"},{"name":"apr","type":"uint256","internalType":"uint256"}],"outputs":[{"name":"","type":"uint256","internalType":"uint256"}],"stateMutability":"pure"},{"type":"function","name":"changeMultiplierVotingPower","inputs":[{"name":"newMultiplierVotingPower","type":"uint256","internalType":"uint256"}],"outputs":[],"stateMutability":"nonpayable"},{"type":"function","name":"changeRewards","inputs":[{"name":"duration","type":"uint32","internalType":"uint32"},{"name":"newAPR","type":"uint256","internalType":"uint256"}],"outputs":[],"stateMutability":"nonpayable"},{"type":"function","name":"durations","inputs":[{"name":"","type":"uint256","internalType":"uint256"}],"outputs":[{"name":"","type":"uint256","internalType":"uint256"}],"stateMutability":"view"},{"type":"function","name":"getRewardApr","inputs":[{"name":"duration","type":"uint256","internalType":"uint256"}],"outputs":[{"name":"","type":"uint256","internalType":"uint256"}],"stateMutability":"view"},{"type":"function","name":"getRoleAdmin","inputs":[{"name":"role","type":"bytes32","internalType":"bytes32"}],"outputs":[{"name":"","type":"bytes32","internalType":"bytes32"}],"stateMutability":"view"},{"type":"function","name":"getStakingTotalAmount","inputs":[{"name":"_address","type":"address","internalType":"address"}],"outputs":[{"name":"","type":"uint256","internalType":"uint256"}],"stateMutability":"view"},{"type":"function","name":"getStakings","inputs":[{"name":"_address","type":"address","internalType":"address"}],"outputs":[{"name":"","type":"tuple","internalType":"struct TrotelCoinStakingV2.UserStaking","components":[{"name":"totalAmount","type":"uint256","internalType":"uint256"},{"name":"startTime","type":"uint256","internalType":"uint256"},{"name":"duration","type":"uint32","internalType":"uint32"},{"name":"endTime","type":"uint256","internalType":"uint256"},{"name":"apr","type":"uint256","internalType":"uint256"},{"name":"amounts","type":"uint256[]","internalType":"uint256[]"},{"name":"times","type":"uint256[]","internalType":"uint256[]"}]}],"stateMutability":"view"},{"type":"function","name":"getUserReward","inputs":[{"name":"user","type":"address","internalType":"address"}],"outputs":[{"name":"","type":"uint256","internalType":"uint256"}],"stateMutability":"view"},{"type":"function","name":"getUserTimeLeft","inputs":[{"name":"user","type":"address","internalType":"address"}],"outputs":[{"name":"","type":"uint256","internalType":"uint256"}],"stateMutability":"view"},{"type":"function","name":"getVotingPower","inputs":[{"name":"user","type":"address","internalType":"address"}],"outputs":[{"name":"","type":"uint256","internalType":"uint256"}],"stateMutability":"view"},{"type":"function","name":"grantRole","inputs":[{"name":"role","type":"bytes32","internalType":"bytes32"},{"name":"account","type":"address","internalType":"address"}],"outputs":[],"stateMutability":"nonpayable"},{"type":"function","name":"hasRole","inputs":[{"name":"role","type":"bytes32","internalType":"bytes32"},{"name":"account","type":"address","internalType":"address"}],"outputs":[{"name":"","type":"bool","internalType":"bool"}],"stateMutability":"view"},{"type":"function","name":"increaseStaking","inputs":[{"name":"amount","type":"uint256","internalType":"uint256"}],"outputs":[],"stateMutability":"nonpayable"},{"type":"function","name":"multiplierVotingPower","inputs":[],"outputs":[{"name":"","type":"uint256","internalType":"uint256"}],"stateMutability":"view"},{"type":"function","name":"renounceRole","inputs":[{"name":"role","type":"bytes32","internalType":"bytes32"},{"name":"callerConfirmation","type":"address","internalType":"address"}],"outputs":[],"stateMutability":"nonpayable"},{"type":"function","name":"revokeRole","inputs":[{"name":"role","type":"bytes32","internalType":"bytes32"},{"name":"account","type":"address","internalType":"address"}],"outputs":[],"stateMutability":"nonpayable"},{"type":"function","name":"rewards","inputs":[{"name":"","type":"uint256","internalType":"uint256"}],"outputs":[{"name":"apr","type":"uint256","internalType":"uint256"},{"name":"exists","type":"bool","internalType":"bool"}],"stateMutability":"view"},{"type":"function","name":"stake","inputs":[{"name":"amount","type":"uint256","internalType":"uint256"},{"name":"duration","type":"uint32","internalType":"uint32"}],"outputs":[],"stateMutability":"nonpayable"},{"type":"function","name":"stakings","inputs":[{"name":"","type":"address","internalType":"address"}],"outputs":[{"name":"totalAmount","type":"uint256","internalType":"uint256"},{"name":"startTime","type":"uint256","internalType":"uint256"},{"name":"duration","type":"uint32","internalType":"uint32"},{"name":"endTime","type":"uint256","internalType":"uint256"},{"name":"apr","type":"uint256","internalType":"uint256"}],"stateMutability":"view"},{"type":"function","name":"supportsInterface","inputs":[{"name":"interfaceId","type":"bytes4","internalType":"bytes4"}],"outputs":[{"name":"","type":"bool","internalType":"bool"}],"stateMutability":"view"},{"type":"function","name":"trotelToken","inputs":[],"outputs":[{"name":"","type":"address","internalType":"contract TrotelCoinV2"}],"stateMutability":"view"},{"type":"function","name":"unstake","inputs":[],"outputs":[],"stateMutability":"nonpayable"},{"type":"event","name":"IncreasedStaking","inputs":[{"name":"user","type":"address","indexed":true,"internalType":"address"},{"name":"amount","type":"uint256","indexed":false,"internalType":"uint256"}],"anonymous":false},{"type":"event","name":"RoleAdminChanged","inputs":[{"name":"role","type":"bytes32","indexed":true,"internalType":"bytes32"},{"name":"previousAdminRole","type":"bytes32","indexed":true,"internalType":"bytes32"},{"name":"newAdminRole","type":"bytes32","indexed":true,"internalType":"bytes32"}],"anonymous":false},{"type":"event","name":"RoleGranted","inputs":[{"name":"role","type":"bytes32","indexed":true,"internalType":"bytes32"},{"name":"account","type":"address","indexed":true,"internalType":"address"},{"name":"sender","type":"address","indexed":true,"internalType":"address"}],"anonymous":false},{"type":"event","name":"RoleRevoked","inputs":[{"name":"role","type":"bytes32","indexed":true,"internalType":"bytes32"},{"name":"account","type":"address","indexed":true,"internalType":"address"},{"name":"sender","type":"address","indexed":true,"internalType":"address"}],"anonymous":false},{"type":"event","name":"Staked","inputs":[{"name":"user","type":"address","indexed":true,"internalType":"address"},{"name":"amount","type":"uint256","indexed":false,"internalType":"uint256"},{"name":"duration","type":"uint32","indexed":false,"internalType":"uint32"}],"anonymous":false},{"type":"event","name":"Unstaked","inputs":[{"name":"user","type":"address","indexed":true,"internalType":"address"},{"name":"amount","type":"uint256","indexed":false,"internalType":"uint256"},{"name":"reward","type":"uint256","indexed":false,"internalType":"uint256"}],"anonymous":false},{"type":"error","name":"AccessControlBadConfirmation","inputs":[]},{"type":"error","name":"AccessControlUnauthorizedAccount","inputs":[{"name":"account","type":"address","internalType":"address"},{"name":"neededRole","type":"bytes32","internalType":"bytes32"}]}],"bytecode":{"object":"0x61014060405262278d0060809081526277f88060a05262eff10060c0526301e1338060e0526303c2670061010052630784ce00610120526100449060049060066103f2565b5034801561005157600080fd5b50604051611bbd380380611bbd83398101604081905261007091610476565b61007b600083610346565b50600280546001600160a01b0319166001600160a01b039290921691909117815560408051808201825260038082526001602080840182815262278d00600090815284835294517f088aab27fb2d2799e31fa393824fe216196a49fc27b39913450798eb702f196c55517f088aab27fb2d2799e31fa393824fe216196a49fc27b39913450798eb702f196d805460ff1990811692151592909217905585518087018752600681528083018481526277f880875285845290517f96969103e822e0e947d6832818408304f963a4290d2e0c4166bbd7b3b4009f8455517f96969103e822e0e947d6832818408304f963a4290d2e0c4166bbd7b3b4009f858054831691151591909117905585518087018752600a815280830184815262eff100875285845290517fb40ea04fa8b2ad21f9cf922a9056c52b28df50646d2fe3846b19b97d0a06018155517fb40ea04fa8b2ad21f9cf922a9056c52b28df50646d2fe3846b19b97d0a0601828054831691151591909117905585518087018752600f81528083018481526301e13380875285845290517f42792e04ade73599c164d1618add98dbd7f5c73bae7634123a66cb0d04ac4fc555517f42792e04ade73599c164d1618add98dbd7f5c73bae7634123a66cb0d04ac4fc68054831691151591909117905585518087018752601481528083018481526303c26700875285845290517f85a16d3a3d003d69ac469d340d8fa89942d475722ce564ee5635d730bd82e84e55517f85a16d3a3d003d69ac469d340d8fa89942d475722ce564ee5635d730bd82e84f805483169115159190911790558551808701909652601e8652858201928352630784ce009094529190915291517ffb48ac414bdd24fdb6989f35a0ed9937e4f11bdea9fcc08357f389c3a9bb47305590517ffb48ac414bdd24fdb6989f35a0ed9937e4f11bdea9fcc08357f389c3a9bb47318054909216901515179055600555506104a9565b6000828152602081815260408083206001600160a01b038516845290915281205460ff166103e8576000838152602081815260408083206001600160a01b03861684529091529020805460ff191660011790556103a03390565b6001600160a01b0316826001600160a01b0316847f2f8788117e7eff1d82e926ec794901d17c78024a50270940304540a733656f0d60405160405180910390a45060016103ec565b5060005b92915050565b828054828255906000526020600020908101928215610435579160200282015b82811115610435578251829063ffffffff16905591602001919060010190610412565b50610441929150610445565b5090565b5b808211156104415760008155600101610446565b80516001600160a01b038116811461047157600080fd5b919050565b6000806040838503121561048957600080fd5b6104928361045a565b91506104a06020840161045a565b90509250929050565b611705806104b86000396000f3fe608060405234801561001057600080fd5b50600436106101585760003560e01c8063a8e62b97116100c3578063d07690321161007c578063d0769032146102d5578063d0eee6cb146102f5578063d547741f1461031e578063dc6e13e114610331578063f301af42146103a7578063fd4608a9146103e657600080fd5b8063a8e62b971461026d578063ac4cf64114610280578063bb4d443614610289578063bc20a7af1461029c578063c75ebb82146102af578063c8cf2250146102c257600080fd5b806336568abe1161011557806336568abe146101f957806378a96cc01461020c57806391d148541461021f5780639c1a51ef146102325780639f50a1ba14610252578063a217fddf1461026557600080fd5b806301ffc9a71461015d57806308c145df14610185578063137903631461019a578063248a9ca3146101bb5780632def6620146101de5780632f2ff15d146101e6575b600080fd5b61017061016b3660046113dc565b610411565b60405190151581526020015b60405180910390f35b610198610193366004611426565b610448565b005b6101ad6101a8366004611467565b6104d0565b60405190815260200161017c565b6101ad6101c9366004611482565b60009081526020819052604090206001015490565b610198610530565b6101986101f436600461149b565b6107d0565b61019861020736600461149b565b6107f5565b61019861021a3660046114c7565b61082d565b61017061022d36600461149b565b610c53565b6101ad610240366004611482565b60009081526003602052604090205490565b610198610260366004611482565b600555565b6101ad600081565b6101ad61027b3660046114ea565b610c7c565b6101ad60055481565b6101ad610297366004611467565b610caf565b6101ad6102aa366004611482565b610cd6565b6101ad6102bd366004611467565b610cf7565b6101986102d0366004611482565b610d86565b6102e86102e3366004611467565b6110a4565b60405161017c9190611552565b6101ad610303366004611467565b6001600160a01b031660009081526001602052604090205490565b61019861032c36600461149b565b6111f2565b61037461033f366004611467565b600160208190526000918252604090912080549181015460028201546003830154600490930154919263ffffffff9091169185565b60408051958652602086019490945263ffffffff909216928401929092526060830191909152608082015260a00161017c565b6103d16103b5366004611482565b6003602052600090815260409020805460019091015460ff1682565b6040805192835290151560208301520161017c565b6002546103f9906001600160a01b031681565b6040516001600160a01b03909116815260200161017c565b60006001600160e01b03198216637965db0b60e01b148061044257506301ffc9a760e01b6001600160e01b03198316145b92915050565b63ffffffff8216600090815260036020526040902060010154829060ff166104aa5760405162461bcd60e51b815260206004820152601060248201526f24b73b30b634b210323ab930ba34b7b760811b60448201526064015b60405180910390fd5b60006104b581611217565b505063ffffffff909116600090815260036020526040902055565b6001600160a01b03811660009081526001602081905260408220600281015491810154909183916105079163ffffffff16906115da565b90508042101561052657600061051d42836115ed565b95945050505050565b5060009392505050565b33600090815260016020526040902080546105805760405162461bcd60e51b815260206004820152601060248201526f139bc81cdd185ada5b99c8199bdd5b9960821b60448201526064016104a1565b610589336104d0565b156105d65760405162461bcd60e51b815260206004820181905260248201527f5374616b696e67206475726174696f6e206e6f7420796574206578706972656460448201526064016104a1565b6000805b600583015481101561065c5760008360060182815481106105fd576105fd611600565b9060005260206000200154846003015461061791906115ed565b905061064784600501838154811061063157610631611600565b9060005260206000200154828660040154610c7c565b61065190846115da565b9250506001016105da565b50600254825460405163a9059cbb60e01b815233600482015260248101919091526001600160a01b039091169063a9059cbb906044016020604051808303816000875af11580156106b1573d6000803e3d6000fd5b505050506040513d601f19601f820116820180604052508101906106d59190611616565b506002546040516340c10f1960e01b8152336004820152602481018390526001600160a01b03909116906340c10f1990604401600060405180830381600087803b15801561072257600080fd5b505af1158015610736573d6000803e3d6000fd5b5050835460408051918252602082018590523393507f7fc4727e062e336010f2c282598ef5f14facb3de68cf8195c2f23e1454b2b74e92500160405180910390a2336000908152600160208190526040822082815590810182905560028101805463ffffffff191690556003810182905560048101829055906107bc600583018261135e565b6107ca60068301600061135e565b50505050565b6000828152602081905260409020600101546107eb81611217565b6107ca8383611224565b6001600160a01b038116331461081e5760405163334bd91960e11b815260040160405180910390fd5b61082882826112b6565b505050565b63ffffffff8116600090815260036020526040902060010154819060ff1661088a5760405162461bcd60e51b815260206004820152601060248201526f24b73b30b634b210323ab930ba34b7b760811b60448201526064016104a1565b600083116108aa5760405162461bcd60e51b81526004016104a190611638565b33600090815260016020526040902054156108f85760405162461bcd60e51b815260206004820152600e60248201526d105b1c9958591e481cdd185ad95960921b60448201526064016104a1565b63ffffffff8216600081815260036020526040812054909161091c91869190610c7c565b90506000600260009054906101000a90046001600160a01b03166001600160a01b03166318160ddd6040518163ffffffff1660e01b8152600401602060405180830381865afa158015610973573d6000803e3d6000fd5b505050506040513d601f19601f82011682018060405250810190610997919061167d565b90506000600260009054906101000a90046001600160a01b03166001600160a01b031663355274ea6040518163ffffffff1660e01b8152600401602060405180830381865afa1580156109ee573d6000803e3d6000fd5b505050506040513d601f19601f82011682018060405250810190610a12919061167d565b905080610a1f84846115da565b1115610a5c5760405162461bcd60e51b815260206004820152600c60248201526b10d85c08195e18d95959195960a21b60448201526064016104a1565b6002546040516323b872dd60e01b8152336004820152306024820152604481018890526001600160a01b03909116906323b872dd906064016020604051808303816000875af1158015610ab3573d6000803e3d6000fd5b505050506040513d601f19601f82011682018060405250810190610ad79190611616565b506040518060e001604052808781526020014281526020018663ffffffff1681526020018663ffffffff1642610b0d91906115da565b815263ffffffff8781166000908152600360208181526040808420548287015280518481528083018252818701528051848152808301825260609687015233845260018083529381902087518155878301519481019490945586015160028401805463ffffffff1916919095161790935592840151928101929092556080830151600483015560a08301518051610baa926005850192019061137c565b5060c08201518051610bc691600684019160209091019061137c565b50503360008181526001602081815260408084206005810180548086018255908652838620018d9055600601805493840181558452922042910155519091507f1186a0fd4b6c8a1f60c379695fa5433d9528920b68d49c541a722a287e5de57890610c43908990899091825263ffffffff16602082015260400190565b60405180910390a2505050505050565b6000918252602082815260408084206001600160a01b0393909316845291905290205460ff1690565b60008060646301e1338084610c918789611696565b610c9b9190611696565b610ca591906116ad565b61051d91906116ad565b6005546001600160a01b038216600090815260016020526040812054909161044291611696565b60048181548110610ce657600080fd5b600091825260209091200154905081565b6001600160a01b038116600090815260016020526040812081805b6005830154811015610d7e576000836006018281548110610d3557610d35611600565b90600052602060002001548460030154610d4f91906115ed565b9050610d6984600501838154811061063157610631611600565b610d7390846115da565b925050600101610d12565b509392505050565b60008111610da65760405162461bcd60e51b81526004016104a190611638565b3360009081526001602052604090208054610df65760405162461bcd60e51b815260206004820152601060248201526f139bc81cdd185ada5b99c8199bdd5b9960821b60448201526064016104a1565b6000610e01336104d0565b11610e4e5760405162461bcd60e51b815260206004820152601b60248201527f5374616b696e67206475726174696f6e2069732065787069726564000000000060448201526064016104a1565b60028101546004820154600091610e6d91859163ffffffff1690610c7c565b90506000600260009054906101000a90046001600160a01b03166001600160a01b03166318160ddd6040518163ffffffff1660e01b8152600401602060405180830381865afa158015610ec4573d6000803e3d6000fd5b505050506040513d601f19601f82011682018060405250810190610ee8919061167d565b90506000600260009054906101000a90046001600160a01b03166001600160a01b031663355274ea6040518163ffffffff1660e01b8152600401602060405180830381865afa158015610f3f573d6000803e3d6000fd5b505050506040513d601f19601f82011682018060405250810190610f63919061167d565b905080610f7084846115da565b1115610fad5760405162461bcd60e51b815260206004820152600c60248201526b10d85c08195e18d95959195960a21b60448201526064016104a1565b6002546040516323b872dd60e01b8152336004820152306024820152604481018790526001600160a01b03909116906323b872dd906064016020604051808303816000875af1158015611004573d6000803e3d6000fd5b505050506040513d601f19601f820116820180604052508101906110289190611616565b5060058401805460018181018355600092835260208084209092018890556006870180549182018155835291204291015583546110669086906115da565b845560405185815233907fd81d2df8b24b91b940c6e677a8e082f6500a8e10ef975dd3de541449480984f29060200160405180910390a25050505050565b6110ea6040518060e001604052806000815260200160008152602001600063ffffffff168152602001600081526020016000815260200160608152602001606081525090565b6001600160a01b038216600090815260016020818152604092839020835160e081018552815481529281015483830152600281015463ffffffff168385015260038101546060840152600481015460808401526005810180548551818502810185019096528086529394919360a086019383018282801561118a57602002820191906000526020600020905b815481526020019060010190808311611176575b50505050508152602001600682018054806020026020016040519081016040528092919081815260200182805480156111e257602002820191906000526020600020905b8154815260200190600101908083116111ce575b5050505050815250509050919050565b60008281526020819052604090206001015461120d81611217565b6107ca83836112b6565b6112218133611321565b50565b60006112308383610c53565b6112ae576000838152602081815260408083206001600160a01b03861684529091529020805460ff191660011790556112663390565b6001600160a01b0316826001600160a01b0316847f2f8788117e7eff1d82e926ec794901d17c78024a50270940304540a733656f0d60405160405180910390a4506001610442565b506000610442565b60006112c28383610c53565b156112ae576000838152602081815260408083206001600160a01b0386168085529252808320805460ff1916905551339286917ff6391f5c32d9c69d2a47ea670b442974b53935d1edc7fd64eb21e047a839171b9190a4506001610442565b61132b8282610c53565b61135a5760405163e2517d3f60e01b81526001600160a01b0382166004820152602481018390526044016104a1565b5050565b508054600082559060005260206000209081019061122191906113c7565b8280548282559060005260206000209081019282156113b7579160200282015b828111156113b757825182559160200191906001019061139c565b506113c39291506113c7565b5090565b5b808211156113c357600081556001016113c8565b6000602082840312156113ee57600080fd5b81356001600160e01b03198116811461140657600080fd5b9392505050565b803563ffffffff8116811461142157600080fd5b919050565b6000806040838503121561143957600080fd5b6114428361140d565b946020939093013593505050565b80356001600160a01b038116811461142157600080fd5b60006020828403121561147957600080fd5b61140682611450565b60006020828403121561149457600080fd5b5035919050565b600080604083850312156114ae57600080fd5b823591506114be60208401611450565b90509250929050565b600080604083850312156114da57600080fd5b823591506114be6020840161140d565b6000806000606084860312156114ff57600080fd5b505081359360208301359350604090920135919050565b60008151808452602080850194506020840160005b838110156115475781518752958201959082019060010161152b565b509495945050505050565b60208152815160208201526020820151604082015263ffffffff604083015116606082015260608201516080820152608082015160a0820152600060a083015160e060c08401526115a7610100840182611516565b905060c0840151601f198483030160e085015261051d8282611516565b634e487b7160e01b600052601160045260246000fd5b80820180821115610442576104426115c4565b81810381811115610442576104426115c4565b634e487b7160e01b600052603260045260246000fd5b60006020828403121561162857600080fd5b8151801515811461140657600080fd5b60208082526025908201527f5374616b696e6720616d6f756e74206d75737420626520677265617465722074604082015264068616e20360dc1b606082015260800190565b60006020828403121561168f57600080fd5b5051919050565b8082028115828204841417610442576104426115c4565b6000826116ca57634e487b7160e01b600052601260045260246000fd5b50049056fea264697066735822122006aefe4a22a18d45a16d1b5a206764506f923773ccb34d3c9262366fe843172064736f6c63430008190033","linkReferences":{}},"methodIdentifiers":{"DEFAULT_ADMIN_ROLE()":"a217fddf","calculateReward(uint256,uint256,uint256)":"a8e62b97","changeMultiplierVotingPower(uint256)":"9f50a1ba","changeRewards(uint32,uint256)":"08c145df","durations(uint256)":"bc20a7af","getRewardApr(uint256)":"9c1a51ef","getRoleAdmin(bytes32)":"248a9ca3","getStakingTotalAmount(address)":"d0eee6cb","getStakings(address)":"d0769032","getUserReward(address)":"c75ebb82","getUserTimeLeft(address)":"13790363","getVotingPower(address)":"bb4d4436","grantRole(bytes32,address)":"2f2ff15d","hasRole(bytes32,address)":"91d14854","increaseStaking(uint256)":"c8cf2250","multiplierVotingPower()":"ac4cf641","renounceRole(bytes32,address)":"36568abe","revokeRole(bytes32,address)":"d547741f","rewards(uint256)":"f301af42","stake(uint256,uint32)":"78a96cc0","stakings(address)":"dc6e13e1","supportsInterface(bytes4)":"01ffc9a7","trotelToken()":"fd4608a9","unstake()":"2def6620"},"id":2}